:020000040800F2
:1000000000400120393D00082D0700082F07000897
:10001000310700083307000835070008000000001A
:10002000000000000000000000000000D1380008BF
:10003000370700080000000071390008B5390008D2
:10004000813D0008813D0008813D0008813D000898
:10005000813D0008813D0008813D0008813D000888
:10006000813D0008813D0008813D0008813D000878
:10007000813D0008813D0008813D0008813D000868
:10008000813D0008813D0008813D0008813D000858
:10009000813D0008813D0008813D0008813D000848
:1000A000813D0008813D0008813D0008813D000838
:1000B00039070008813D0008813D0008813D0008A6
:1000C000813D0008813D0008813D0008813D000818
:1000D000813D0008813D0008813D0008813D000808
:1000E000813D0008813D0008813D0008813D0008F8
:1000F000813D000800000000813D0008813D0008AE
:10010000813D0008813D0008813D0008813D0008D7
:10011000813D0008813D0008813D0008000000008D
:10012000813D000800000000000000000000000009
:0C01300000000000000000005FF808F173
:1001400010B5054C237833B9044B13B10448AFF311
:1001500000800123237010BD10000020000000006B
:10016000F43D00080C4B43B10C4810B50C49AFF3FB
:1001700000800C48036823B910BD0A48036833B9EE
:100180007047094B002BF7D0BDE810401847064BCD
:10019000002BF5D0184700BF00000000F43D000818
:1001A00014000020100000200000000053B94AB9DC
:1001B000002908BF00281CBF4FF0FF314FF0FF306F
:1001C00000F07AB9ADF1080C6DE904CE00F006F844
:1001D000DDF804E0DDE9022304B070472DE9F047C3
:1001E0008C460E460446089D002B50D18A42174685
:1001F0006CD9B2FA82FEBEF1000F0BD0CEF1200C0A
:1002000001FA0EF620FA0CFC02FA0EF74CEA060C84
:1002100000FA0EF43A0CBCFBF2F9BBB202FB19CCAB
:1002200009FB03FA4FEA144848EA0C46B2450AD9DA
:10023000F61909F1FF3180F02581B24540F22281A3
:10024000A9F102093E44A6EB0A06B6FBF2F002FB56
:10025000106600FB03F3A4B244EA0644A34209D9A2
:10026000E41900F1FF3280F00B81A34240F20881D3
:1002700002383C440021E41A40EA0940002D62D0D3
:10028000002324FA0EF42C606B60BDE8F0878B42EB
:1002900007D9002D55D0002185E841000846BDE86A
:1002A000F087B3FA83F1002940F08F80B34202D384
:1002B000824200F2FC80841A66EB03060120B446F9
:1002C000002D40D085E81010BDE8F08712B9012755
:1002D000B7FBF2F7B7FA87FEBEF1000F35D1012167
:1002E000F61B4FEA174C1FFA87F8B6FBFCF20CFB23
:1002F000126608FB02F0230C43EA0646B04207D917
:10030000F61902F1FF3302D2B04200F2D2801A464F
:10031000361AB6FBFCF00CFB106608FB00F8A3B223
:1003200043EA0644A04507D9E41900F1FF3302D29D
:10033000A04500F2B9801846A4EB080440EA024048
:100340009CE729462846BDE8F08707FA0EF7CEF16C
:10035000200326FA03F24FEA174CB2FBFCF11FFA16
:1003600087F80CFB112206FA0EF620FA03F301FBC4
:1003700008F933431E0C46EA0246B14500FA0EF472
:1003800009D9F61901F1FF3280F08C80B14540F2B5
:10039000898002393E44A6EB0906B6FBFCF00CFB53
:1003A000106200FB08F99EB246EA0246B14507D941
:1003B000F61900F1FF3371D2B1456FD902383E44CE
:1003C000A6EB090640EA01418FE7C1F1200722FAB6
:1003D00007F88B4048EA030326FA07F44FEA134E66
:1003E000B4FBFEF91FFA83FC0EFB19448E4020FA81
:1003F00007F809FB0CFA48EA06084FEA184646EAED
:100400000444A24502FA01F200FA01F608D9E41800
:1004100009F1FF3044D2A24542D9A9F102091C4496
:10042000A4EB0A04B4FBFEF00EFB104400FB0CFC32
:100430001FFA88F848EA0444A44507D9E41800F1F3
:10044000FF3E29D2A44527D902381C4440EA09407E
:10045000A0FB0289A4EB0C0CCC45C246CE4615D3BA
:1004600012D055B1B6EB0A036CEB0E0606FA07F78D
:10047000CB401F43CE402F606E600021BDE8F08767
:100480001046F7E68946DEE64645EAD2B8EB020AB0
:1004900069EB030E0138E4E77046D7E718468FE7AB
:1004A0008146BDE7114676E702383C4444E70846FA
:1004B00006E7023A3E442BE7704700BFF0B589B02B
:1004C0000024039404940594069407941F4BDA695E
:1004D00042F00102DA61DA6902F001020092009A48
:1004E000DA6942F00202DA61DA6902F0020201928C
:1004F000019ADA6942F00402DA61DB6903F004036D
:100500000293029B124F01221021384600F03EFF59
:10051000104D22464FF4E051284600F037FF1023DB
:100520000393012604960594069403A9384600F027
:1005300049FE4FF4E053039304960594069403A9EF
:10054000284600F03FFE09B0F0BD00BF0038024071
:10055000000002400008024000B585B001238DF87C
:100560000F301B4B1B68ADF80C301B0C8DF80E3098
:100570001AE00DF10F012C2003F0D8FA9DF80F308E
:10058000002BF6D00DF10F012D2003F0CFFA0DF165
:100590000F01302003F0CAFA0A2002F0FFFF4FF4E7
:1005A00080510C4800F0F8FE00212C2003F00AFBDB
:1005B0000DF10F012C2003F0B9FA03AB01930120D8
:1005C000009040F6AA22002303F056FBD6E700BFB6
:1005D0000C3E00080008024008B50368B3F1804FE4
:1005E00000D008BD00F096F9FBE772B6FEE7000008
:1005F00008B50E480E4B03604FF48273436000232E
:100600008360C36002220261012242614FF40072E2
:1006100082610822C2610362436283620A23C36269
:1006200000F0FFFF00B908BDFFF7DFFF8C190020C5
:100630000030014008B50D480D4B03604FF4827344
:10064000436000238360C360036143614FF4007221
:1006500082613022C2610362436283620A23C36201
:1006600000F0DFFF00B908BDFFF7BFFF341900201D
:100670000038004000B593B03422002105A803F0F3
:10068000B0FB002300930193029303930493164954
:100690000A6822F4C05242F400620A600222059203
:1006A00001210891102109910E920F934FF480239C
:1006B00010934FF48003119305A800F089F978B9DD
:1006C0000F230093032301930023029303930493C6
:1006D0000121684600F054FC20B913B05DF804FB1A
:1006E000FFF783FFFFF781FF0070004008B500F0BF
:1006F00001F9FFF7BFFFFFF7E1FEFFF779FFFFF713
:1007000099FF03F07FFA02F08BFE054A00210548AD
:1007100002F0CEFE044B186002F0A4FEFEE700BF1C
:10072000103E00085905000830190020FEE7FEE7DA
:10073000FEE7FEE7FEE7704708B5024801F018FB48
:1007400008BD00BFE419002000B585B0124B5A6AFD
:1007500042F000425A625A6A02F000420192019A43
:100760001A6A42F001021A621A6A02F00102029247
:10077000029A5A6A42F080525A625B6A03F08053CE
:100780000393039B00220F216FF0010000F020FE75
:1007900005B05DF804FB00BF0038024000B58BB027
:1007A0000023059306930793089309930368254A4A
:1007B000934205D0244A934222D00BB05DF804FB4B
:1007C000224B1A6A42F480521A621A6A02F4805268
:1007D0000192019ADA6942F00102DA61DB6903F001
:1007E00001030293029BE023059302230693032354
:1007F00008930523099305A9154800F0E3FCDCE7FD
:10080000124B5A6A42F480425A625A6A02F4804297
:100810000392039ADA6942F00202DA61DB6903F0BB
:1008200002030493049B4FF4604305930223069351
:10083000032308930523099305A9064800F0C2FC89
:10084000BBE700BF003001400038004000380240E4
:10085000000002400004024030B589B00446214B3C
:100860005A6A42F001025A625B6A03F00103019383
:10087000019B02A903A800F087FC069BC3B900F006
:1008800073FC194BA3FB00239B0C013B17484FF053
:100890008042026040F2E732C2604360002303619D
:1008A000836001F00AFA054630B1284609B030BD30
:1008B00000F05AFC4000E4E70C4801F021FA05463C
:1008C0000028F2D11C2000F0B5FD0F2C01D9012524
:1008D000EBE7002221461C2000F07AFD044B1C604F
:1008E000E3E700BF0038024083DE1B43E419002029
:1008F0000400002010B5032000F058FD0F20FFF782
:10090000ABFF10B10124204610BD0446FFF71CFFC9
:10091000F9E70000034A1368034909680B441360B0
:10092000704700BF241A002000000020014B186807
:10093000704700BF241A002082B0224B9B6813F03E
:10094000F00F25D11F4B5B6A13F0805F08D01E4B60
:100950001B6803F4C053B3F5C05F14D0002118E046
:10096000184A536A43F080535362536A03F080532A
:100970000193019B144B1B6803F4C053516A21F08F
:1009800080515162E7E7B0F5404F11D0002100E0FF
:10099000002179B90D4A136823F001030B4313605A
:1009A000136803F0010399420AD0012002B0704796
:1009B0000121EEE7054A136843F004031360E9E7F9
:1009C0000020F3E70038024000700040003C024085
:1009D000002800F06882F0B583B00446A34B9D6800
:1009E00005F00C059E6806F48036036813F0010FCD
:1009F0002ED0082D23D00C2D1FD06368012B46D09C
:100A0000002B4AD1994B1A6822F480321A601A6876
:100A100022F480221A606368002B54D0FFF786FF0F
:100A20000746924B1B6813F4003F11D1FFF77EFF7E
:100A3000C01B6428F5D903233FE2002EDDD08B4B89
:100A40001B6813F4003F03D06368002B00F02E8274
:100A5000236813F0020F59D0042D45D00C2D41D03E
:100A6000E368002B00F0B8800122814B1A60FFF789
:100A70005DFF06467D4B1B6813F0020F40F0A3801C
:100A8000FFF754FF801B0228F4D9032315E2774AAD
:100A9000136843F480331360BDE7052B09D0734B13
:100AA0001A6822F480321A601A6822F480221A60CE
:100AB000B1E76E4B1A6842F480221A601A6842F459
:100AC00080321A60A7E7FFF731FF0746674B1B68C4
:100AD00013F4003FBCD0FFF729FFC01B6428F5D9F1
:100AE0000323EAE1002EBBD1604B1B6813F0020F19
:100AF00004D0E368012B01D00123DEE15B4A536897
:100B000023F4F853216943EA01235360236813F067
:100B1000100F3CD0002D40F08580544B1B6813F41F
:100B2000007F03D0A369002B00F0C281206A4F4BE5
:100B30005B6803F46043984260D9FFF7FDFE00282C
:100B400040F0B881494A536823F46043216A0B435B
:100B50005360536823F07F43E16943EA01635360C4
:100B6000236A5B0B5A1C4FF4004393403F4A926840
:100B7000C2F303123F498A5CD3403F4A13603F4BA4
:100B80001868FFF769FE0346002840F09681236845
:100B900013F0080F00F09D806369002B00F0878040
:100BA0000122374B1A60FFF7C1FE06462F4B5B6BE5
:100BB00013F0020F40F08D80FFF7B8FE801B022873
:100BC000F4D9032379E1294A536823F4F8532169BE
:100BD00043EA0123536099E70022254B1A60FFF78F
:100BE000A5FE0646214B1B6813F0020F8ED0FFF7BF
:100BF0009DFE801B0228F5D903235EE11B4A536842
:100C000023F4604318435060536823F07F43E16945
:100C100043EA01635360206AFFF78EFE00289FD0ED
:100C200001234AE1A3697BB30122164B1A60FFF747
:100C30007DFE06460D4B1B6813F4007F06D1FFF7BF
:100C400075FE801B0228F5D9032336E1074A536855
:100C500023F46043216A0B435360536823F07F43BE
:100C6000E16943EA0163536091E700BF0038024045
:100C700000004742403E0008080000200400002019
:100C8000800647422000474200228F4B1A60FFF740
:100C90004DFE06468D4B1B6813F4007F3FF477AF83
:100CA000FFF744FE801B0228F4D9032305E100224C
:100CB000874B1A60FFF73AFE0646844B5B6B13F0D6
:100CC000020F06D0FFF732FE801B0228F5D903235E
:100CD000F3E0236813F0040F7AD07C4B5B6A13F0C7
:100CE000805F31D1794B5A6A42F080525A625B6A16
:100CF00003F080530193019B0126764B1B6813F48C
:100D0000807F23D0A368012B34D0002B38D16F4BC8
:100D10005A6B22F480725A635A6B22F480625A63CF
:100D2000A368002B42D0FFF701FE0746674B5B6BC1
:100D300013F4007F4BD1FFF7F9FDC01B41F288335C
:100D40009842F3D90323B8E00026D6E7614A136836
:100D500043F480731360FFF7E9FD07465D4B1B68A2
:100D600013F4807FCED1FFF7E1FDC01B6428F5D9D5
:100D70000323A2E0554A536B43F480735363CFE7D8
:100D8000052B09D0514B5A6B22F480725A635A6B6F
:100D900022F480625A63C3E74C4B5A6B42F4806280
:100DA0005A635A6B42F480725A63B9E7FFF7BEFD8B
:100DB0000746464B5B6B13F4007F08D0FFF7B6FD88
:100DC000C01B41F288339842F3D9032375E0C6B9BA
:100DD000636A002B70D00C2D4CD0022B17D0002250
:100DE0003D4B1A60FFF7A2FD0446384B1B6813F019
:100DF000007F3DD0FFF79AFD001B0228F5D90323A1
:100E00005BE0324A536A23F080535362E0E70022EA
:100E1000314B1A60FFF78AFD05462C4B1B6813F017
:100E2000007F06D0FFF782FD401B0228F5D903237F
:100E300043E026498B6823F47D03A26AE06A0243FB
:100E4000206B024313438B600122234B1A60FFF790
:100E50006DFD04461D4B1B6813F0007F06D1FFF7A4
:100E600065FD001B0228F5D9032326E0002324E0BA
:100E7000002322E0012B23D0144B9B6803F4803124
:100E8000A26A914201D0012317E003F47012E16AD3
:100E90008A4201D0012310E003F44003226B934205
:100EA00010D0012309E0012318467047012304E014
:100EB000012302E0012300E00023184603B0F0BD47
:100EC0000123FAE70023F8E72000474200380240F8
:100ED000800647420070004060004742F8B5244B4E
:100EE0009A6802F00C03082B40D00C2B0CD0042B7A
:100EF00008D01F4B5868C0F34230431C4FF40040E9
:100F00009840F8BD1B48F8BDC2F383431A49C85C3A
:100F1000C2F381520132164B9B6813F4803F06D016
:100F200000231649A0FB0101FFF740F9F8BDC6B246
:100F3000002774010025A41B65EB0705A90141EA00
:100F40009461A001001B61EB0501CB0043EA5073E3
:100F5000C400A01943EB07018B0243EA90538402BB
:100F6000204619460023FFF721F9F8BD0348F8BDD4
:100F7000003802400024F400583E000800366E019C
:100F8000002800F0DC8070B504466F4B1B6803F04E
:100F900001038B4214D201290CD06B4A136823F051
:100FA00001030B431360136803F00103994207D058
:100FB000012070BD644A136843F004031360ECE73A
:100FC000236813F0020F06D0604A936823F0F00301
:100FD000A068034393600E46236813F0010F6CD0A2
:100FE0006368022B27D0032B2CD0012B31D0574A1A
:100FF000126812F4007F00F0A48054498A6822F03D
:10100000030213438B60FFF791FC05466368022BD4
:1010100026D0032B33D0012B40D04C4B9B6813F0D0
:101020000C0F4AD0FFF782FC401B41F288339842F4
:10103000F3D9032070BD454A126812F4003FDCD199
:10104000012070BD414A126812F0007FD5D1012005
:1010500070BD3E4A126812F0020FCED1012070BD61
:101060003A4B9B6803F00C03082B26D0FFF75EFC7D
:10107000401B41F288339842F2D9032070BD334BB4
:101080009B6803F00C030C2B17D0FFF74FFC401BA1
:1010900041F288339842F2D9032070BD2B4B9B68F4
:1010A00003F00C03042B08D0FFF740FC401B41F277
:1010B00088339842F2D9032070BD234B1B6803F09C
:1010C00001039E4214D2012E0CD01F4A136823F054
:1010D000010333431360136803F001039E4207D0FA
:1010E000012070BD184A136843F004031360ECE755
:1010F000236813F0040F06D0144A936823F4E063C6
:10110000E1680B439360236813F0080F07D00F4A80
:10111000936823F46053216943EAC1039360FFF7A6
:10112000DDFE0A4B9B68C3F30313094AD35CD84026
:10113000084B1860084B1868FFF78EFB70BD012044
:101140007047012070BD00BF003C024000380240E3
:10115000403E00080800002004000020014B1868F1
:10116000704700BF0800002008B5FFF7F7FF044BE9
:101170009B68C3F30223034AD35CD84008BD00BF79
:1011800000380240503E00080F2303600B4B9A6862
:1011900002F0030242609A6802F0F00282609A68EC
:1011A00002F4E062C2609B68DB0803F4E063036161
:1011B000034B1B6803F001030B60704700380240CB
:1011C000003C0240F0B583B0002360E085684FEA40
:1011D000430E032707FA0EF725EA0705CE6806FA3D
:1011E0000EF635438560456825EA04044D68C5F36D
:1011F00000159D402C43446057E0DD08083550F849
:10120000254003F00706B6000F27B74024EA07047D
:101210000F6907FA06F6344340F8254059E00626E0
:1012200000E0002606FA0EF635430234524E46F828
:101230002450524C2568D44305EA04064F6817F43D
:10124000803F01D042EA05064C4D2E606D6804EAED
:1012500005064F6817F4003F01D042EA0506474DE6
:101260006E60AD6804EA05064F6817F4801F01D070
:1012700042EA0506414DAE60ED682C404E6816F41A
:10128000001F01D042EA05043C4AD46001330A68D9
:1012900032FA03F46DD001249C402240F6D04D6810
:1012A00005F00305013D012D90D94C6804F00304BD
:1012B000032C09D0C4685F000326BE4024EA06045C
:1012C0008D68BD402C43C4604C6804F00304022CBC
:1012D00093D004685F000326BE4024EA06044D68EC
:1012E00005F00305BD402C4304604C6814F4403FF6
:1012F000CCD0234C256A45F001052562246A04F010
:1013000001040194019C9C08A61C1B4D55F8265015
:1013100003F003064FEA860E0F2606FA0EF625EABC
:101320000605184FB8423FF47CAF174EB04216D0B6
:1013300006F58066B04214D006F58066B04212D041
:1013400006F58066B04210D006F58066B0420ED039
:1013500006F58066B0423FF462AF072662E70126D9
:1013600060E702265EE703265CE704265AE70526C7
:1013700058E703B0F0BD00BF000001400004014089
:1013800000380240000002400004024012B9090483
:101390008161704781617047436903EA010221EA74
:1013A000030141EA0241816170470000074AD368A6
:1013B00023F4E0631B041B0C000200F4E0601843FC
:1013C00040F0BF6040F40030D060704700ED00E0B6
:1013D00030B4164BDB68C3F30223C3F10704042CBB
:1013E00028BF04241D1D062D17D9033B012505FA2E
:1013F00004F4013C2140994005FA03F3013B1340FA
:10140000194300280BDB0901C9B200F1604000F567
:10141000614080F8001330BC70470023E6E700F01D
:101420000F000901C9B2024B1954F4E700ED00E0C6
:1014300014ED00E0002808DB420900F01F00012342
:1014400003FA00F0014B43F82200704700E100E08E
:101450002DE9F04383B004460F4616461D46FFF7BC
:1014600065FA0A9B181A00EB0508FFF75FFA814638
:101470002A4B1B68C3F3CB3303FB08F301932368A8
:101480009B6837EA03030CBF01230023B34240D01B
:10149000B5F1FF3FF3D0FFF749FAA0EB0900804513
:1014A0000AD9B8F1000F07D0019B0BB94FF0000823
:1014B000019B013B0193E2E72268536823F0E003BC
:1014C00053606368B3F5827F0BD0A36AB3F5005F06
:1014D00014D0012384F85130002384F850300320C5
:1014E00018E0A368B3F5004F02D0B3F5806FECD1DC
:1014F0002268136823F040031360E6E7226813684C
:1015000023F4005313602268136843F400531360FC
:10151000DFE7002003B0BDE8F08300BF0800002033
:1015200030B585B0164C2468164DA5FB0434640D07
:101530004FF47A7505FB04F403944468B4F5827F94
:101540000BD0039BC3B1039B013B039303689B68D0
:1015500013F0800FF5D100230FE00B4604460092F4
:1015600000228021FFF774FF034630B1636D43F022
:1015700020036365032300E00023184605B030BD57
:1015800008000020819F5E1610B582B004464068B6
:10159000B0F5827F14D06068B0F5827F1DD00092D4
:1015A0000B46002201212046FFF752FF034620B1DF
:1015B000636D43F0200363650323184602B010BD3A
:1015C000A368B3F5004F02D0B3F5806FE3D1206874
:1015D000036823F040030360DDE7A368B3F5806F81
:1015E0000FD000920B46002280212046FFF730FFEB
:1015F00003460028E1D0636D43F0200363650323B5
:10160000DBE700920B46002201212046FFF720FF76
:1016100003460028D1D0636D43F0200363650323A4
:10162000CBE700285AD010B50446436A33B9436863
:10163000B3F5827F05D00023C36102E0002303617C
:1016400043610023A36294F85130002B40D0022361
:1016500084F851302268136823F040031360226835
:10166000636803F48273A16801F404410B43E168E9
:1016700001F400610B43216901F002010B43616930
:1016800001F001010B43A16901F400710B43E16911
:1016900001F038010B43216A01F080010B43A16A7C
:1016A00001F400510B4313602168638B03F00403C2
:1016B000626A02F0100213434B602268D36923F47C
:1016C0000063D36100206065012384F8513010BDB0
:1016D00084F850302046FFF761F8B8E701207047E2
:1016E0002DE9F04182B090F85040012C03D1022046
:1016F00002B0BDE8F0811D46174688460446012326
:1017000080F85030FFF712F9064694F85130DBB2FA
:10171000012B07D00220012384F85130002384F8E4
:101720005030E5E7B8F1000F00F0A180002F00F085
:10173000A080032384F8513000236365C4F830800F
:10174000A786E786A363A387E38763642364A3680C
:10175000B3F5004F1DD023681A6812F0400F03D173
:101760001A6842F040021A60E368B3F5006F1BD0BC
:1017700063680BB1012F51D12368226B12781A7361
:10178000236B01332363E38E9BB2013B9BB2E38661
:1017900044E02268136823F0400313602268136852
:1017A00043F480431360D6E763680BB1012F16D171
:1017B0002368226B1288DA60236B02332363E38E83
:1017C0009BB2013B9BB2E38609E0FFF7AFF8801BB9
:1017D000A84202D3B5F1FF3F4DD1002D4DD0E38E8D
:1017E0009BB2002B2ED023689A6812F0020FECD027
:1017F000226B1288DA60236B02332363E38E9BB281
:10180000013B9BB2E386EAE7FFF790F8801B854235
:1018100002D8B5F1FF3F32D1002D32D0E28E92B224
:1018200082B123689A6812F0020FEDD0226B127811
:101830001A73236B01332363E28E92B2013A92B2A0
:10184000E286EBE7324629462046FFF769FE08B1FB
:1018500020236365A36833B901932368DA68019292
:101860009B680193019B636D6BB9002053E70120D6
:1018700051E701204FE703204DE703204BE703200A
:1018800049E7032047E7012045E72DE9F04383B00E
:101890000A9D90F85040012C04D10223184603B051
:1018A000BDE8F0831E4690460F460446012380F8AB
:1018B0005030FFF73BF8814694F85130DBB2626854
:1018C000012B12D0B2F5827F07D00223012284F8C7
:1018D0005120002284F85020E0E7A268002A40F05E
:1018E000E280042B01D00223F0E7002F00F0DD801E
:1018F000B8F1000F00F0DB80002E00F0DA8094F8E1
:101900005130DBB2042B02D0052384F85130002380
:101910006365C4F83880E687A6872763E686A686CF
:101920002364636423681A6812F0400F03D11A68B5
:1019300042F040021A60E368B3F5006F11D06368AB
:101940000BB1012E0BD12368226B12781A73236B13
:1019500001332363E38E9BB2013B9BB2E3860126F6
:101960006CE063680BB1012E0BD12368226B1288E7
:10197000DA60236B02332363E38E9BB2013B9BB29D
:10198000E38601261CE023689A6812F0010F0ED04E
:10199000E28F92B25AB1A26BDB681380A36B023361
:1019A000A363E38F9BB2013B9BB2E3870126FEF763
:1019B000BDFFA0EB0900A84202D3B5F1FF3F7AD1E9
:1019C000E38E9BB21BB9E38F9BB2002B54D02368EC
:1019D0009A6812F0020FD6D0E28E92B2002AD2D0CC
:1019E000002ED0D0226B1288DA60236B023323637F
:1019F000E38E9BB2013B9BB2E3860026C3E72368DC
:101A00009A6812F0010F0ED0E28F92B25AB1A26B17
:101A1000DB681370A36B0133A363E38F9BB2013BBD
:101A20009BB2E3870126FEF781FFA0EB0900854208
:101A300002D8B5F1FF3F40D1002D40D0E38E9BB2DC
:101A400013B9E38F9BB2BBB123689A6812F0020FFF
:101A5000D5D0E28E92B2002AD1D0002ECFD0226B08
:101A600012781A73236B01332363E38E9BB2013B1D
:101A70009BB2E3860026C2E74A4629462046FFF786
:101A80004FFD034618B12023636501231EE7A268BA
:101A9000002A7FF41BAF01922268D16801919268FD
:101AA0000192019A12E7022310E701230EE70123B6
:101AB0000CE701230AE7032308E7032306E70323D0
:101AC00004E72DE9F04182B004460F4690461D46DA
:101AD0004368B3F5827F07D094F85030012B0FD1C3
:101AE000022002B0BDE8F0818368002BF4D104230A
:101AF00080F85130009513460A46FFF7C6FEF0E71E
:101B0000012384F85030FEF711FF064694F8513057
:101B1000DBB2012B07D00220012384F851300023CF
:101B200084F85030DDE7002F74D0B8F1000F73D087
:101B3000042384F8513000236365A763A4F83C8034
:101B4000A4F83E802363A386E38623646364A368CA
:101B5000B3F5004F0BD023681A6812F0400F03D181
:101B60001A6842F040021A60E368ABB132E02268C2
:101B7000136823F0400313602268136823F4804342
:101B80001360E8E7FEF7D2FE801B854202D8B5F16C
:101B9000FF3F43D1002D43D0E38F9BB2002B2DD0CC
:101BA00023689A6812F0010FECD0A26B1B7B1370B4
:101BB000A36B0133A363E38F9BB2013B9BB2E3872B
:101BC000EAE7FEF7B3FE801B854202D8B5F1FF3F7E
:101BD00028D14DB3E38F9BB283B123689A6812F08A
:101BE000010FEED0A26BDB681380A36B0233A363FB
:101BF000E38F9BB2013B9BB2E387EBE7324629467A
:101C00002046FFF7C1FC08B120236365636D6BB903
:101C1000002081E701207FE701207DE703207BE7AB
:101C2000032079E7032077E7032075E7012073E7B6
:101C30000368B0F1804F0ED01E4A90420BD002F5DF
:101C40008062904207D002F58062904203D002F594
:101C50007C42904203D123F070034A681343B0F1F1
:101C6000804F16D0134A904213D002F58062904202
:101C70000FD002F5806290420BD002F57C42904278
:101C800007D002F58062904203D002F58062904254
:101C900003D123F44073CA68134323F080030A6915
:101CA000134303608B68C3620B6883620123436143
:101CB000704700BF000400407047F8B110B50446FB
:101CC00090F83930ABB1022384F83930211D2068F7
:101CD000FFF7AEFF012384F83E3084F83A3084F8F1
:101CE0003B3084F83C3084F83D3084F839300020B3
:101CF00010BD80F83830FFF7DFFFE4E701207047C0
:101D000090F83930DBB2012B01D00120704702235B
:101D100080F839300268D36843F00103D360036868
:101D2000B3F1804F10D00F4A93420DD002F580627C
:101D3000934209D002F58032934205D01A6842F0EE
:101D400001021A60002070479A6802F00702062A12
:101D500005D01A6842F001021A6000207047002086
:101D6000704700BF000400407047704770477047DD
:101D700010B5044603681A6912F0020F11D0DA6830
:101D800012F0020F0DD06FF002021A6101230376E8
:101D900003689B6913F0030F5ED0FFF7E6FF002393
:101DA000237623681A6912F0040F12D0DA6812F051
:101DB000040F0ED06FF004021A6102232376236809
:101DC0009B6913F4407F4DD02046FFF7CEFF0023E0
:101DD000237623681A6912F0080F12D0DA6812F01D
:101DE000080F0ED06FF008021A61042323762368CF
:101DF000DB6913F0030F3CD02046FFF7B6FF00234A
:101E0000237623681A6912F0100F12D0DA6812F0E4
:101E1000100F0ED06FF010021A610823237623688A
:101E2000DB6913F4407F2BD02046FFF79EFF002391
:101E3000237623681A6912F0010F03D0DA6812F0D2
:101E4000010F24D123681A6912F0400F03D0DA6819
:101E500012F0400F22D110BDFFF786FF2046FFF79A
:101E600085FF9CE72046FFF77FFF2046FFF77EFFB8
:101E7000ADE72046FFF778FF2046FFF777FFBEE784
:101E80002046FFF771FF2046FFF770FFCFE76FF0A6
:101E900001021A612046FEF79FFBD3E76FF0400274
:101EA0001A612046FFF763FFD5E7704700F108038A
:101EB00043604FF0FF328260C36003610023036020
:101EC000704700230361704743684B609A688A60DB
:101ED0009A68516099600861036801330360704734
:101EE00030B40D68B5F1FF3F02D000F1080202E006
:101EF000026904E01A4653681C68A542FAD2536886
:101F00004B6099608A605160086103680133036027
:101F100030BC70470369426881689160826841689B
:101F200051605A68904206D0002202611A68013A54
:101F30001A601868704782685A60F5E710B5044661
:101F400001F0D8FCA26BE36B9A4204D0002401F0AC
:101F5000F3FC204610BD0124F9E710B5044601F05A
:101F6000C9FCA36B23B1002401F0E6FC204610BDA0
:101F70000124F9E770B504461646856B026C4AB930
:101F8000036853BB406800F0E3FF00236360013542
:101F9000A56370BD6EB9806801F018FF226CA3685C
:101FA0001344A3606268934219D32368A36000209E
:101FB000EDE7C06801F00AFF236C5B42E2681A4457
:101FC000E26021688A4202D262681344E360022E12
:101FD00007D145B1013D0020D9E70020D7E7002017
:101FE000D5E70020D3E70020D1E7026C72B110B52D
:101FF0000346C4681444C4604068844201D318682E
:10200000D8600846D96801F0E1FE10BD704738B5C8
:10201000054601F06FFC95F8454064B201E0013CD3
:1020200064B2002C0ADD6B6A43B105F1240000F0B4
:10203000E7FE0028F3D000F075FFF0E7FF2385F8F6
:10204000453001F079FC01F055FC95F8444064B24C
:1020500001E0013C64B2002C0ADD2B6943B105F1BB
:10206000100000F0CDFE0028F3D000F05BFFF0E799
:10207000FF2385F8443001F05FFC38BD38B530B33C
:1020800004460D4601F036FC2168E26B236C03FB2D
:10209000021060600020A063A160013A02FB0313FC
:1020A000E360FF2384F8443084F84530C5B92369E0
:1020B000F3B104F1100000F0A3FEC8B14FF080525C
:1020C0000D4B1A60BFF34F8FBFF36F8F10E04FF0CF
:1020D000500383F31188BFF36F8FBFF34F8FFEE779
:1020E00004F11000FFF7E2FE04F12400FFF7DEFE2A
:1020F00001F022FC012038BD04ED00E038B51D469A
:10210000049C0B4649B12260E06323640121204610
:10211000FFF7B4FF84F84C5038BD2460F4E740B9B1
:102120004FF0500383F31188BFF36F8FBFF34F8FCE
:10213000FEE710B584B0044663B1A2B1A9B1012095
:10214000A8B94FF0500383F31188BFF36F8FBFF32B
:102150004F8FFEE74FF0500383F31188BFF36F8F6B
:10216000BFF34F8FFEE70120EAE70020E8E70AB956
:1021700001B1002040B94FF0500383F31188BFF341
:102180006F8FBFF34F8FFEE75020039003985028C6
:1021900008D04FF0500383F31188BFF36F8FBFF364
:1021A0004F8FFEE720461C46012384F846300094FA
:1021B0009DF81830FFF7A2FF204604B010BD0000C4
:1021C000F0B585B0019260B1044699B10125BDB961
:1021D0004FF0500383F31188BFF36F8FBFF34F8F1E
:1021E000FEE74FF0500383F31188BFF36F8FBFF307
:1021F0004F8FFEE7026C0AB90125E8E70025E6E704
:10220000022B09D06DB94FF0500383F31188BFF34F
:102210006F8FBFF34F8FFEE7E26B012AF2D00025EC
:10222000F0E71E460F4600F083FE10B9019B03B194
:10223000002545B94FF0500383F31188BFF36F8F2A
:10224000BFF34F8FFEE700252CE03246394620468B
:10225000FFF790FE636A8BB104F1240000F0D0FD1B
:1022600038B14FF08052374B1A60BFF34F8FBFF336
:102270006F8F01F061FB012005B0F0BD0028F8D0A0
:102280004FF080522F4B1A60BFF34F8FBFF36F8F09
:10229000EFE701F051FB0020EEE72046FFF7B7FE25
:1022A00000F088FC01F026FBA26BE36B9A42CCD3D2
:1022B000022ECAD0019B002BEBD01DB902A800F062
:1022C000E5FD012501F038FB00F0D6FB01F012FB23
:1022D00094F844305BB2B3F1FF3F02D1002384F89D
:1022E000443094F845305BB2B3F1FF3F02D1002394
:1022F00084F8453001F020FB01A902A800F0D2FDCE
:10230000C8B92046FFF71AFE0028C6D0019904F18B
:10231000100000F041FD2046FFF779FE00F04AFC76
:102320000028BFD14FF08052064B1A60BFF34F8F89
:10233000BFF36F8FB6E72046FFF769FE00F03AFC67
:10234000002099E704ED00E02DE9F84360B1044670
:1023500099B10120B8B94FF0500383F31188BFF34E
:102360006F8FBFF34F8FFEE74FF0500383F3118859
:10237000BFF36F8FBFF34F8FFEE7006C08B90120EA
:10238000E8E70020E6E7022B09D068B94FF05003D8
:1023900083F31188BFF36F8FBFF34F8FFEE7E56BB9
:1023A000012DF2D00020F0E71F469046894601F04B
:1023B0008FFBEFF311864FF0500383F31188BFF3C7
:1023C0006F8FBFF34F8FA26BE36B9A4201D3022F43
:1023D00021D194F845506DB23A4649462046FFF760
:1023E000C9FDB5F1FF3F10D1636AB3B104F1240018
:1023F00000F006FD98B1B8F1000F12D00120C8F826
:10240000000086F31188BDE8F8836B1C5BB284F88A
:1024100045300120F5E70020F3E70120F1E7012036
:10242000EFE70120EDE70000F0B585B0019260B163
:10243000044699B10125BDB94FF0500383F31188CB
:10244000BFF36F8FBFF34F8FFEE74FF0500383F35F
:102450001188BFF36F8FBFF34F8FFEE7036C0BB98B
:102460000125E8E70025E6E70E4600F061FD10B91A
:10247000019B03B1002545B94FF0500383F3118848
:10248000BFF36F8FBFF34F8FFEE700272FE031467A
:102490002046FFF7AAFD013DA563236963B104F15E
:1024A000100000F0ADFC38B14FF08052344B1A6090
:1024B000BFF34F8FBFF36F8F01F03EFA012005B0DD
:1024C000F0BD01F039FA0020F9E702A800F0DEFCC7
:1024D000012716E0002384F844301EE0002384F82E
:1024E000453020E02046FFF792FD00F063FB01F04D
:1024F00001FAA56B002DCAD1019B002BE1D0002F62
:10250000E3D001F019FA00F0B7FA01F0F3F994F80A
:1025100044305BB2B3F1FF3FDCD094F845305BB29E
:10252000B3F1FF3FDAD001F007FA01A902A800F0E9
:10253000B9FCC8B92046FFF710FD0028D2D0019998
:1025400004F1240000F028FC2046FFF760FD00F0B5
:1025500031FB0028CBD14FF08052094B1A60BFF3FA
:102560004F8FBFF36F8FC2E72046FFF750FD00F09B
:1025700021FB2046FFF7F1FC0028B8D000209EE7A1
:1025800004ED00E00023072B0CD8074A52F8332053
:102590000AB10133F7E7044A42F8331002EBC303F0
:1025A00058607047704700BF281A002070B5044675
:1025B0000D46164601F09EF994F844305BB2B3F133
:1025C000FF3F0DD094F845305BB2B3F1FF3F0BD025
:1025D00001F0B2F9A36B5BB12046FFF718FD70BDA7
:1025E000002384F84430EDE7002384F84530EFE71A
:1025F0003246294604F1240000F0E6FBECE7000037
:102600000A4B1B681B684BB901234BB9074B1B686E
:10261000DB68DB685A68064B1A6070470023F4E7F2
:102620004FF0FF32024B1A60704700BF30000020AD
:10263000D80400202DE9F04781460D4617469A46FA
:10264000089EDDF824800A9C9200A521206B01F0F1
:10265000C8FB236B07F18042013A03EB820727F0A6
:10266000070700230F2B07D8E95CE21882F8341023
:10267000EA5C0AB10133F5E7002384F84330372ED2
:1026800000D93726E662E66400252565201DFFF7A0
:1026900018FC04F11800FFF714FC2461C6F1380699
:1026A000A6616462656584F85850524649463846CA
:1026B00001F0F6F82060B8F1000F01D0C8F8004032
:1026C000BDE8F08738B5002407E004EB84029300EE
:1026D0000E481844FFF7EAFB0134372CF5D90C4DAE
:1026E0002846FFF7E3FB0B4C2046FFF7DFFB0A48C9
:1026F000FFF7DCFB0948FFF7D9FB0948FFF7D6FBDA
:10270000084B1D60084B1C6038BD00BF380000201E
:10271000B0040020C4040020E00400200C050020C8
:10272000F8040020300000203400002010B50446DA
:1027300001F0E0F8214A136801331360204B1B6855
:10274000002B32D01F4B1B683BB91D4B1B68DA6A4C
:10275000E36A9A4201D81A4B1C601B4A1368013382
:1027600013606364E36A194A1268934201D9174AF5
:10277000136003EB83039A00211D15481044FFF7F3
:10278000A3FB01F0D9F80F4B1B686BB10C4B1B6816
:10279000DA6AE36A9A4207D24FF080520D4B1A6010
:1027A000BFF34F8FBFF36F8F10BD054B1C601368D5
:1027B000012BD2D1FFF786FFCFE700BF980400209E
:1027C0002C000020F4040020A8040020AC04002009
:1027D0003800002004ED00E010B5044690F85930B0
:1027E00063B1012B11D0022B12D04FF0500383F3B1
:1027F0001188BFF36F8FBFF34F8FFEE7006B00F0C0
:10280000E7FF204600F0E4FF10BD00F0E1FF10BD3F
:1028100010BD00000F4B1B68D3B110B501F06AF872
:102820000D4BDB68DC68201DFFF774FB0B4A136857
:10283000013B1360074A1368013B136001F07CF809
:102840002046FFF7C9FF034B1B68002BE6D110BDE4
:10285000704700BF9C0400200C0500209804002055
:1028600008B5FFF7D7FF064B1B68012BF9D94FF0CE
:102870008052044B1A60BFF34F8FBFF36F8FF0E7A6
:102880003800002004ED00E070B504460E46174BFA
:102890001D68174B18680430FFF73CFBB4F1FF3F8D
:1028A00013D02C44124B1B685C60A54216D8114B08
:1028B00018680F4B19680431FFF712FB0E4B1B68A9
:1028C0009C4201D20C4B1C6070BD002EE9D0084B1D
:1028D000196804310948FFF7F7FA70BD084B18680A
:1028E000034B19680431FFF7FBFA70BD2005002087
:1028F0002C00002030000020D8040020F804002024
:102900003400002070B586B00B9D0C9C75B1B4B13D
:102910005C260496049E5C2E1AD04FF0500383F37D
:102920001188BFF36F8FBFF34F8FFEE74FF0500357
:1029300083F31188BFF36F8FBFF34F8FFEE74FF024
:10294000500383F31188BFF36F8FBFF34F8FFEE700
:102950002563022584F8595000250395029405AD9E
:1029600001950A9D0095FFF765FE2046FFF7DEFE04
:10297000059806B070BD2DE9F04385B006460F46B8
:1029800015469846900000F09FFE10B381465C20EB
:1029900000F09AFE0446C0B1C0F83090DCB10023CC
:1029A00084F85930039302940D9B01930C9B009380
:1029B00043462A4639463046FFF73CFE2046FFF79D
:1029C000B5FE012005B0BDE8F083484600F000FFE9
:1029D000E4E70024E2E74FF0FF30F3E710B588B0FA
:1029E00000240594069407AA06A905A800F0F8FD9E
:1029F000059B0293069B019300942346079A19496D
:102A00001948FFF77FFF48B10120012808D00128AD
:102A100009D0B0F1FF3F1BD008B010BD0020F4E793
:102A200000F04AFBF3E74FF0500383F31188BFF344
:102A30006F8FBFF34F8F4FF0FF320C4B1A600122A4
:102A40000B4B1A6000220B4B1A6000F0E5FFE3E726
:102A50004FF0500383F31188BFF36F8FBFF34F8F95
:102A6000FEE700BF643E000861280008D80400208B
:102A7000F404002020050020024A1368013313608B
:102A8000704700BFA4040020014B1868704700BFC6
:102A900020050020F8B53C4B1B68002B68D13B4B50
:102AA0001D6801351D60C5B9394B1B681B6843B1F2
:102AB0004FF0500383F31188BFF36F8FBFF34F8F35
:102AC000FEE7334A1168334B186810601960324AC8
:102AD000136801331360FFF793FD304B1B689D4271
:102AE0003AD200242E4B1B68DB6A03EB83039A0067
:102AF0002C4B9B58012B40D901243EE00124244B50
:102B00001B681B6853B3002353BB214B1B68DB6856
:102B1000DE6873689D4228D3371D3846FFF7FAF9FF
:102B2000B36A1BB106F11800FFF7F4F9F36A1E4A05
:102B30001268934201D91C4A136003EB83039A0085
:102B4000394618481044FFF7BFF9F26A144B1B6866
:102B5000DB6A9A42D2D2D2E70024D0E70123D3E73E
:102B60004FF0FF320D4B1A60BCE70C4A1360B9E717
:102B70000E4A13680133136000240D4B1B6803B128
:102B800001242046F8BD00BFA40400202005002039
:102B90003000002034000020DC040020D804002095
:102BA0002C00002038000020AC040020A0040020ED
:102BB0002405002038B5354B1B6843B94FF050034E
:102BC00083F31188BFF36F8FBFF34F8FFEE700F0E1
:102BD00091FE2E4B1A68013A1A601B68002B50D1E7
:102BE0002B4B1B6823B9002400F0A6FE204638BDFD
:102BF0000024284B1B681BB3264BDB68DC6804F100
:102C00001800FFF787F9251D2846FFF783F9E36AC7
:102C1000214A1268934201D91F4A136003EB8303D0
:102C20009A0029461D481044FFF74EF9E26A1C4BF2
:102C30001B68DB6A9A42DCD301221A4B1A60D8E780
:102C40000CB1FFF7DDFC184B1C6874B9154B1B6801
:102C5000CBB14FF08052154B1A60BFF34F8FBFF3CB
:102C60006F8F0124C0E7013C07D0FFF713FF002856
:102C7000F9D001220B4B1A60F5E700220A4B1A60CB
:102C8000E4E70024B0E70024AEE700BFA40400207E
:102C900098040020E0040020AC040020380000204C
:102CA0002C00002024050020A004002004ED00E0FA
:102CB00010B5A8B10446104B1B6843B14FF0500348
:102CC00083F31188BFF36F8FBFF34F8FFEE7FFF7DA
:102CD000D3FE00212046FFF7D7FDFFF76BFF00E092
:102CE000002038B94FF08052044B1A60BFF34F8F69
:102CF000BFF36F8F10BD00BFA404002004ED00E0FF
:102D0000204B1B686BB900221F4B1A601F4B1B68BE
:102D100003EB83018A001E498A587AB92BB1013B23
:102D2000F6E70122184B1A6070474FF0500383F307
:102D30001188BFF36F8FBFF34F8FFEE710B40846C3
:102D40009A00D418A10001444C6864684C601A448D
:102D500091000831084484420CD003EB83029100B7
:102D60000B4A0A445268D1680A4A1160074A136044
:102D700010BC7047606803EB83029100044A0A4468
:102D80005060EAE7A404002024050020AC040020E1
:102D9000380000202C00002040B94FF0500383F38E
:102DA0001188BFF36F8FBFF34F8FFEE710B50C464E
:102DB000044B19681831FFF793F801212046FFF7FB
:102DC00063FD10BD2C00002038B570B10C461546CF
:102DD0000A4A11681831FFF777F80DB14FF0FF3448
:102DE00029462046FFF750FD38BD4FF0500383F3CE
:102DF0001188BFF36F8FBFF34F8FFEE72C000020C9
:102E000038B5C368DC6824B304F118052846FFF719
:102E100081F8184B1B682BBB251D2846FFF77AF855
:102E2000E36A154A1268934201D9134A136003EB0F
:102E300083039A00294611481044FFF745F8E26AD7
:102E40000F4B1B68DB6A9A4211D901200D4B1860A9
:102E500038BD4FF0500383F31188BFF36F8FBFF37A
:102E60004F8FFEE729460848FFF72EF8E7E70020D6
:102E700038BD00BFA4040020AC04002038000020AE
:102E80002C00002024050020E0040020034B1B68D8
:102E90000360034B1B684360704700BFDC040020E5
:102EA00020050020F8B5E0B1054619B30C4600F046
:102EB00021FD1A4B18686968421A2368B3F1FF3F75
:102EC00028D02F68164E3668B74201D0884223D2E8
:102ED0009A4218D300232360012400F02DFD2046E0
:102EE000F8BD4FF0500383F31188BFF36F8FBFF32A
:102EF0004F8FFEE74FF0500383F31188BFF36F8FBE
:102F0000BFF34F8FFEE79B1A23602846FFF7BEFFF3
:102F10000024E2E70024E0E70124DEE720050020AA
:102F2000DC0400200122014B1A60704724050020B8
:102F3000054B1B6823B1054B1B681BB9022070476A
:102F40000120704700207047F4040020A4040020F2
:102F5000002839D038B504461E4A1268904208D07D
:102F60004FF0500383F31188BFF36F8FBFF34F8F80
:102F7000FEE7026D42B94FF0500383F31188BFF3AF
:102F80006F8FBFF34F8FFEE7013A0265C06AE16CB5
:102F900088421BD0E2B9251D2846FEF7BBFFE36C33
:102FA000E362C3F13802A2610B4A1268934201D96D
:102FB000094A136003EB83039A002946074810442B
:102FC000FEF782FF012038BD00207047002038BD89
:102FD000002038BD2C000020AC0400203800002068
:102FE000064B1A681368B3FA83F35B09036013B9DD
:102FF000D368186870470020704700BF280500207C
:1030000008B54160006191420CD8D21A83699A4296
:1030100001D3012008BD011D094B1868FEF760FFB0
:10302000002008BD9A4201D2994206D2011D054BEB
:103030001868FEF755FF002008BD012008BD00BF3D
:103040002C0500202805002030B583B000F052FC8C
:10305000114B1B681BB100F06FFC03B030BD0F4D6E
:103060002846FEF723FF0E4C2046FEF71FFF0D4BB0
:103070001D600D4B1C60002300930C4B0C4A10216B
:103080000A20FFF74CF8044B18600028E3D00949E8
:10309000FFF778FADFE700BF4C060020D0050020DC
:1030A000E4050020280500202C050020FC05002058
:1030B000300500206C3E000810B588B0FFF7C4FF53
:1030C000154B1B681BB300240594069407AA06A998
:1030D00005A800F091FA059B0293069B0193022339
:1030E00000932346079A0D490D48FFF70BFC0D4B43
:1030F000186050B1012060B94FF0500383F311887C
:10310000BFF36F8FBFF34F8FFEE72046F3E700203A
:10311000F1E708B010BD00BF4C060020743E000867
:103120000934000850060020C0B130B585B01546FE
:103130000446174A106840B31A460091019502945C
:1031400005291CDCFFF7F4FE022810D000231A46E4
:1031500069460F480068FFF733F814E04FF050035A
:1031600083F31188BFF36F8FBFF34F8FFEE7002308
:10317000089A694606480068FFF722F803E0002332
:103180006946FFF7E1F805B030BD0020FBE700BF5E
:103190004C06002070B582B01A4B1B681A6852B3F7
:1031A000DB681E68DC68251D2846FEF7B3FE636AEF
:1031B00020469847E369012BEED1A36933449E4230
:1031C00007D26360246129460E4B1868FEF788FE1B
:1031D000E2E7002100910B4632462046FFF7A4FFAC
:1031E0000028D9D14FF0500383F31188BFF36F8FBC
:1031F000BFF34F8FFEE7044A10680249086013606E
:1032000002B070BD280500202C05002038B5054609
:10321000FFF73AFC0446074B1B68984205D300238E
:103220002B60044B1C60204638BDFFF7B3FF012321
:103230002B60F6E7F805002070B582B005460E4613
:10324000144B1B68DB68DC68201DFEF763FEE36936
:10325000012B04D0636A2046984702B070BDA16973
:103260002B46324629442046FFF7CAFE0028F1D0FB
:10327000002100910B462A462046FFF755FF002803
:10328000E8D14FF0500383F31188BFF36F8FBFF382
:103290004F8FFEE72805002070B582B006460C4629
:1032A000FFF7EAFB01A8FFF7B1FF019B23BB05462F
:1032B0000CB9B04219D22CB1114B1B681C68B4FA7E
:1032C00084F464092246711B0E4B1868FFF76EF9EF
:1032D000FFF770FC38B94FF080520B4B1A60BFF308
:1032E0004F8FBFF36F8F02B070BDFFF763FC2946AD
:1032F0003046FFF7A1FFF6E7FFF75CFCF3E700BFFE
:103300002C0500204C06002004ED00E030B589B00B
:1033100002E0049B002B0FDA002204A9394B186845
:10332000FFF782F800286AD0049B002BF1DA079996
:103330000698059B9847ECE7069C636913B1201D2E
:10334000FEF7E8FD03A8FFF761FF049B092BE3D814
:1033500001A252F823F000BF813300088133000836
:103360008133000819330008C9330008EF3300081F
:10337000813300088133000819330008C93300087D
:103380000599A5690B46024629442046FFF738FEF9
:103390000028C1D0636A20469847E369012BBBD15E
:1033A000A269002100910B46059802442046FFF7D0
:1033B000BBFE0028B0D14FF0500383F31188BFF358
:1033C0006F8FBFF34F8FFEE70599A16131B10346BF
:1033D000024601442046FFF713FE9DE74FF05003DD
:1033E00083F31188BFF36F8FBFF34F8FFEE794F81D
:1033F0002C30002B90D1204600F0EAF98CE709B080
:1034000030BD00BF4C06002000B583B001A8FFF717
:10341000E7FD0199FFF740FFFFF778FFF6E70000AF
:10342000EFF305839BB9EFF310839BB90C4B1B683B
:10343000022B05D08BB90122094B1A60002070477E
:10344000EFF31182002AF5D06FF0050070476FF09E
:10345000050070476FF0050070474FF0FF30704770
:10346000B008002008B5EFF30583B3B9EFF310837C
:10347000B3B90E4B1B68022B08D0012B13D10222CB
:103480000A4B1A60FFF7AAFA002008BDEFF3118279
:10349000002AF2D06FF0050008BD6FF0050008BDEE
:1034A0006FF0050008BD4FF0FF3008BDB0080020E8
:1034B000F0B587B000240494EFF3058454BBEFF318
:1034C00010833BBB344B1B68022B26D010B3002368
:1034D0008DF81730002A32D016681EB3946904B9EB
:1034E0001824631E372B52D8536813F0010F50D1A4
:1034F0005369D3B14FEA930E95682DB1D7685B2F0E
:1035000002D9176907B10BBB95B14FF0FF35012DFB
:1035100023D075B3049807B0F0BDEFF31183002BEF
:10352000F8D1D3E70DF11706D8E74FF0800EE3E7A7
:10353000D3686BB9136973B14FF0FF35E7E7002526
:1035400018244FF0800E0DF11706E0E70125DEE7A5
:103550004FF0FF35DBE70025D9E713699268029247
:10356000019300940B4672463146FFF7CBF9049065
:10357000D0E704AA019200940B461FFA8EF231465E
:10358000FFF7F9F90128C5D000230493C2E7002012
:10359000C1E70020BFE700BFB008002008B5EFF387
:1035A0000583A3B9EFF31083A3B90C4B1B68022B5F
:1035B00002D040B9002008BDEFF31183002BF8D0F2
:1035C0006FF0050008BDFFF773FB002008BD6FF02A
:1035D000050008BD6FF0050008BD00BFB008002061
:1035E000034B0360034B0B6080231360704700BFE5
:1035F0005408002054060020034B0360034B0B606B
:103600004FF4807313607047B40C0020B40800209E
:10361000124A12F0070F1ED0D11D21F00701C1F58B
:10362000406313440A460E4802600021416013447F
:10363000083B23F007030B48036059601960991A8F
:1036400051601360084B1960084B19604FF000423D
:10365000074B1A6070474FF44063E4E7140D0020F5
:1036600020190020100D00201C190020181900201E
:103670001419002010B4124B1A6882421AD35968E8
:103680005C18A04203D14068014459601846416863
:103690004418A24212D10B4C2468A2420CD05268AA
:1036A000114441601A6812680260984200D01860A4
:1036B00010BC70471346DFE70460F6E70260F4E7EA
:1036C00020190020100D002070B50446FFF7D4F932
:1036D0003A4B1B68BBB13A4B1B681C4263D1ACB17F
:1036E000083414F0070F11D024F00704083404F054
:1036F00007035BB14FF0500383F31188BFF36F8F63
:10370000BFF34F8FFEE7FFF783FFE4E7002C4CD0B9
:103710002C4B1B689C424AD82B4B1D6801E02B4662
:1037200015466A68944202D92A68002AF7D1234ACA
:10373000126895423DD01E6808362A681A606B6888
:103740001B1B102B10D9281910F0070F08D04FF0B1
:10375000500383F31188BFF36F8FBFF34F8FFEE7E2
:1037600043606C60FFF786FF6A6816490B689B1A16
:103770000B60164909688B4201D214490B60104B4B
:103780001B6813436B6000232B60FFF713FA16F0DE
:10379000070F10D04FF0500383F31188BFF36F8FE2
:1037A000BFF34F8FFEE70026EFE70026EDE7002688
:1037B000EBE70026E9E7304670BD00BF100D0020A2
:1037C0001419002018190020201900201C190020AD
:1037D00080B338B50446A0F1080550F8042C16490A
:1037E00009680A4208D14FF0500383F31188BFF3F0
:1037F0006F8FBFF34F8FFEE750F8080C40B14FF0CA
:10380000500383F31188BFF36F8FBFF34F8FFEE731
:1038100022EA010244F8042CFFF72EF954F8041CA4
:10382000064A13680B4413602846FFF723FFFFF78F
:10383000C1F938BD704700BF1419002018190020C5
:1038400082B0002301930D4B1B68B3F1FF3F08D0FA
:103850004FF0500383F31188BFF36F8FBFF34F8F87
:10386000FEE74FF0500383F31188BFF36F8FBFF370
:103870004F8F019B002BFCD002B070470C00002042
:1038800006480068006880F3088862B661B6BFF336
:103890004F8FBFF36F8F00DF00BF000008ED00E027
:1038A0004FF0807340F8043C21F0010140F8081CFF
:1038B000034B40F80C3C40F8202C4038704700BFC8
:1038C0004138000800000000000000000000000077
:1038D000074B19680868B0E8F00F80F30988BFF358
:1038E0006F8F4FF0000080F311884EF00D0E70477F
:1038F0002C0000204FF0500383F31188BFF36F8F2B
:10390000BFF34F8F0A4A136801331360012B0DD1A7
:10391000084B1B6813F0FF0F08D04FF0500383F3E0
:103920001188BFF36F8FBFF34F8FFEE7704700BF63
:103930000C00002004ED00E0094B1B6843B94FF078
:10394000500383F31188BFF36F8FBFF34F8FFEE7F0
:10395000013B034A13600BB983F31188704700BF22
:103960000C0000200000000000000000000000002B
:10397000EFF30980BFF36F8F0D4B1A6820E9F00F4A
:1039800010602DE908404FF0500080F31188FFF7D8
:10399000B7F94FF0000080F31188BDE808401968BE
:1039A0000868B0E8F00F80F30988BFF36F8F7047A5
:1039B0002C00002008B54FF0500383F31188BFF3AB
:1039C0006F8FBFF34F8FFFF765F818B14FF080523C
:1039D000024B1A60002383F3118808BD04ED00E058
:1039E000084A0023136008490B60084B1B6808490C
:1039F000A1FB03139B09013B06490B6007231360DE
:103A0000704700BF10E000E018E000E00800002070
:103A1000D34D621014E000E010B582B0274B1A7845
:103A2000D2B20192FF221A701B78DBB28DF80330FC
:103A30009DF8033003F05003214A13700722214BF5
:103A40001A6009E01F4A1368013B13609DF80330B8
:103A50005B00DBB28DF803309DF8033013F0800F6C
:103A6000F0D1184B1B68032B08D04FF0500383F3A1
:103A70001188BFF36F8FBFF34F8FFEE71B0203F474
:103A8000E063104A1360019BDBB20C4A13700E4BCB
:103A90001A6842F470021A601A6842F070421A60A2
:103AA000FFF79EFF0024094B1C60FFF7E9FEFFF7BC
:103AB00027F9FFF7C5FE204602B010BD00E400E084
:103AC000281900202C19002020ED00E00C00002017
:103AD000EFF305830F2B0FD9104A9B5CDBB2104A22
:103AE0001278934208D24FF0500383F31188BFF34A
:103AF0006F8FBFF34F8FFEE70A4B1B6803F4E06341
:103B0000094A1268934208D94FF0500383F3118891
:103B1000BFF36F8FBFF34F8FFEE77047F0E300E016
:103B2000281900200CED00E02C19002070B582B09F
:103B30000E4600228DF8062003238DF804308DF800
:103B400005000C4C10212046FDF720FC0A4D642393
:103B5000022201A92846FDF7C3FD64230122314654
:103B60002846FDF7AEFF012210212046FDF70EFC8E
:103B700002B070BD000002408C19002010B582B068
:103B800005238DF804308DF805008DF806108DF8AA
:103B900007200A4C002210212046FDF7F7FB642382
:103BA00004220DEB02010648FDF79AFD01221021C7
:103BB0002046FDF7EBFB02B010BD00BF0000024045
:103BC0008C19002010B582B002238DF804308DF8D6
:103BD00005008DF80610094C002210212046FDF743
:103BE000D5FB6423032201A90548FDF779FD0122D5
:103BF00010212046FDF7CAFB02B010BD00000240B4
:103C00008C19002030B583B002ACA02304F8013D2C
:103C1000174D002210212846FDF7B8FB642301222E
:103C200021461448FDF75CFD012210212846FDF7CE
:103C3000ADFB80210F20FFF7C5FF00212A20FFF7F1
:103C4000C1FF98212920FFF7BDFF01212820FFF7A0
:103C5000B9FFFF212B20FFF7B5FF00212C20FFF734
:103C6000B1FF04210F20FFF7ADFF03B030BD00BF4F
:103C7000000002408C1900202DE9F04782B09DF829
:103C80002860DDF82C80871C3F01FFB281238DF86E
:103C90000730D5B2C2F30729C2F38244C2F301430D
:103CA0001C4344F0080406F00F0A781CC2F3475185
:103CB000C0B2FFF787FFB81C214600F0FE00FFF7F7
:103CC00081FFF81C4946C0B2FFF77CFF381D29462A
:103CD00000F0FC00FFF776FF781D5146C0B2FFF7F9
:103CE00071FFBD1DEDB2002406E0281918F804107C
:103CF000C0B2FFF767FF0134B442F6DB022211467F
:103D00003846FFF73BFF0A4C002210212046FDF702
:103D10003DFB642301220DF107010648FDF7E0FC9D
:103D2000012210212046FDF731FB02B0BDE8F087EB
:103D3000000002408C1900200C480D490D4A002358
:103D400002E0D458C4500433C4188C42F9D30A4A50
:103D50000A4C002301E013600432A242FBD3FEF7B9
:103D6000A4F800F00FF8FCF7C1FC70470000002039
:103D7000100000208C3E000810000020681A00206F
:103D8000FEE7000070B500250C4E0D4CA41BA410DE
:103D9000A54209D100F02EF800250A4E0A4CA41BBA
:103DA000A410A54205D170BD56F8253098470135BD
:103DB000EEE756F8253098470135F2E7843E0008D3
:103DC000843E0008843E0008883E000810B5431E6B
:103DD0000A44914200D110BD11F8014B03F8014F84
:103DE000F7E703460244934200D1704703F8011BF2
:103DF000F9E70000F8B500BFF8BC08BC9E46704764
:0C3E0000F8B500BFF8BC08BC9E46704737
:103E0C0089552200343E000800000000000000002C
:103E1C00000000000000000000020000180000007C
:103E2C00000000000000000064656661756C74544D
:103E3C0061736B000000000000000000010203042D
:103E4C000607080900000000010203040304060829
:103E5C000C1018203000000049444C4500000000B4
:103E6C00546D725100000000546D72205376630043
:083E7C0060C3FF7F010000009C
:043E840065010008CC
:043E880041010008EC
:103E8C00010000001000000068FF1F00AAAAAAAAE7
:0400000508003D3979
:00000001FF
