:020000040800F2
:100000000040012005440008850700088707000814
:10001000890700088B0700088D0700080000000012
:10002000000000000000000000000000013F000888
:100030008F07000800000000A13F0008E53F00080E
:100040004D4400084D4400084D4400084D4400084C
:100050004D4400084D4400084D4400084D4400083C
:100060004D4400084D4400084D4400084D4400082C
:100070004D4400084D4400084D4400084D4400081C
:100080004D4400084D4400084D4400084D4400080C
:100090004D4400084D4400084D44000891070008F5
:1000A0004D4400084D4400084D4400084D440008EC
:1000B0009D0700084D4400084D4400084D440008C9
:1000C0004D4400084D4400084D4400084D440008CC
:1000D0004D4400084D4400084D4400084D440008BC
:1000E0004D4400084D4400084D4400084D440008AC
:1000F0004D440008000000004D4400084D44000835
:100100004D4400084D4400084D4400084D4400088B
:100110004D4400084D4400084D4400080000000014
:100120004D44000800000000000000000000000036
:0C01300000000000000000005FF808F173
:1001400010B5054C237833B9044B13B10448AFF311
:1001500000800123237010BD10000020000000006B
:10016000C444000808B5034B1BB103490348AFF36F
:10017000008008BD0000000014000020C4440008F6
:1001800053B94AB9002908BF00281CBF4FF0FF31FE
:100190004FF0FF3000F076B9ADF1080C6DE904CEF8
:1001A00000F006F8DDF804E0DDE9022304B0704752
:1001B0002DE9F047089E0D4604468846002B4DD198
:1001C0008A42944668D9B2FA82F252B101FA02F335
:1001D000C2F1200120FA01F10CFA02FC41EA030805
:1001E00094404FEA1C41B8FBF1F71FFA8CFE01FB6B
:1001F000178807FB0EF0230C43EA084398420AD9FC
:100200001CEB030307F1FF3580F01E81984240F29A
:100210001B81023F63441B1AB3FBF1F001FB103357
:1002200000FB0EFEA4B244EA0344A6450AD91CEB27
:10023000040400F1FF3380F00981A64540F20681F5
:10024000644402380021A4EB0E0440EA07401EB1CA
:100250000023D440C6E90043BDE8F0878B4208D9AB
:10026000002E00F0EE800021C6E900050846BDE83A
:10027000F087B3FA83F100294AD1AB4202D382421C
:1002800000F2FC80841A65EB030301209846002EDF
:10029000E2D0C6E90048DFE702B9FFDEB2FA82F237
:1002A000002A40F09180A1EB0C0001214FEA1C478D
:1002B0001FFA8CFEB0FBF7F307FB1300250C45EA91
:1002C00000450EFB03F0A84208D91CEB050503F11D
:1002D000FF3802D2A84200F2CE8043462D1AB5FB69
:1002E000F7F007FB10550EFB00FEA4B244EA0544EC
:1002F000A64508D91CEB040400F1FF3502D2A6453F
:1003000000F2B6802846A4EB0E0440EA03409EE7C4
:10031000C1F120078B4022FA07FC4CEA030C25FAB6
:1003200007FA4FEA1C49BAFBF9F820FA07F309FB70
:1003300018AA8D401FFA8CFE1D4300FA01F308FB3A
:100340000EF02C0C44EA0A44A04202FA01F20BD946
:100350001CEB040408F1FF3A80F08880A04240F2D0
:100360008580A8F102086444241AB4FBF9F009FB63
:10037000104400FB0EFEADB245EA0444A64508D980
:100380001CEB040400F1FF356CD2A6456AD9023893
:10039000644440EA0840A0FB0295A4EB0E04AC4282
:1003A000C846AE4656D353D0002E69D0B3EB0802F0
:1003B00064EB0E0422FA01F304FA07F71F43CC4062
:1003C000C6E90074002147E70CFA02FCC2F12001E3
:1003D00025FA01F34FEA1C4720FA01F195400D433D
:1003E000B3FBF7F107FB11331FFA8CFE280C40EA30
:1003F000034001FB0EF3834204FA02F408D91CEB1C
:10040000000001F1FF382FD283422DD90239604418
:10041000C01AB0FBF7F307FB1300ADB245EA004585
:1004200003FB0EF0A84208D91CEB050503F1FF38C9
:1004300016D2A84214D9023B6544281A43EA014166
:1004400038E73146304607E72F46E4E61846F9E636
:100450004B45A9D2B9EB020865EB0C0E0138A3E7B6
:100460004346EAE7284694E74146D1E7D0467BE792
:100470006444023847E7023B65442FE7084606E735
:100480003146E9E6704700BF2DE9F04188B000240D
:10049000039404940594069407943E4BDA6942F061
:1004A0000102DA61DA6902F001020092009ADA6967
:1004B00042F00402DA61DA6902F004020192019A60
:1004C000DA6942F00202DA61DB6903F002030293A7
:1004D000029BDFF8C48001221021404600F069FF32
:1004E0002E4F22464FF48051384600F062FF012221
:1004F0004FF40051384600F05CFF294D22464FF47E
:10050000E051284600F055FF10230393012604967E
:100510000594069403A9404600F050FE302303934F
:100520004FF40418CDF81080059403A9284600F074
:1005300045FE0396CDF81080059403A9384600F0D7
:100540003DFE4FF44053039304960594069403A98B
:10055000384600F033FE4FF440730393049405943F
:1005600003A9284600F02AFE4FF4E05303930496B3
:100570000594069403A9284600F020FE2246052192
:10058000172000F045FF172000F07AFF08B0BDE803
:10059000F08100BF00380240000002400004024029
:1005A0000008024008B50A2003F040FA00212C2080
:1005B00003F01EFEF7E7000000B585B000230393AB
:1005C0008DF80B3000930193202816D06B460DF167
:1005D0000B0203A9012003F071FE039A104B9A420B
:1005E00013D09DF800200F4B1A704FF480510E4825
:1005F00000F0E5FE05B05DF804FB6B460DF10B0263
:1006000003A9002003F05AFEE7E79DF80020074BFE
:100610001A704FF48061044800F0D1FEEAE700BF91
:10062000CCCCCC0C3C000020000802403000002064
:1006300008B50368B3F1804F00D008BD00F072F92F
:10064000FBE772B6FEE7000008B50E480E4B0360EC
:100650004FF48273436000238360C360022202610F
:10066000012242614FF4007282611022C261036272
:10067000436283620A23C36200F0F4FF00B908BD3D
:10068000FFF7DFFF440000200030014000B593B0C9
:100690003422002105A803F00DFF002300930193ED
:1006A00002930393049316490A6822F4C05242F459
:1006B00000620A600222059201210891102109912D
:1006C0000E920F934FF4802310934FF480031193F5
:1006D00005A800F081F978B90F2300930323019353
:1006E00000230293039304930121684600F044FC25
:1006F00020B913B05DF804FBFFF7A3FFFFF7A1FFDC
:100700000070004008B500F0FDF8FFF7BFFFFFF7ED
:10071000BBFEFFF799FF03F08BFD03F0ADF80F4828
:1007200003F0A6F90E4B18600E4A00210E4803F0A4
:1007300007F90E4B18600E4C224600210D4803F0BD
:10074000FFF80D4B1860224600210C4803F0F8F822
:100750000B4B186003F0B2F8FEE700BF1445000829
:100760002C00002024450008A505000838000020C2
:1007700048450008D543000840000020A543000874
:1007800034000020FEE7FEE7FEE7FEE7FEE77047E5
:1007900008B5202000F01CFE08BD000008B5024886
:1007A00001F01AFB08BD00BF9C00002000B585B019
:1007B000124B5A6A42F000425A625A6A02F00042F0
:1007C0000192019A1A6A42F001021A621A6A02F050
:1007D00001020292029A5A6A42F080525A625B6A9D
:1007E00003F080530393039B00220F216FF001005D
:1007F00000F00EFE05B05DF804FB00BF00380240BB
:1008000000B589B0002303930493059306930793DF
:100810000268134B9A4202D009B05DF804FB03F55D
:1008200084331A6A42F480521A621A6A02F48052BD
:100830000192019ADA6942F00102DA61DB6903F0A0
:1008400001030293029BE0230393022304930323F7
:1008500006930523079303A9024800F0AFFCDBE7EA
:10086000003001400000024030B589B00446214B01
:100870005A6A42F001025A625B6A03F00103019373
:10088000019B02A903A800F07BFC069BCBB900F0FA
:1008900067FC03461848A0FB03239B0C013B174849
:1008A0004FF08042026040F2E732C26043600023B2
:1008B0000361836001F033FA054630B1284609B080
:1008C00030BD00F04DFC4300E4E70C4801F04CFA69
:1008D00005460028F2D11C2000F0D2FD0F2C01D9D2
:1008E0000125EBE7002221461C2000F091FD044B7E
:1008F0001C60E3E70038024083DE1B439C000020BD
:100900000400002010B5032000F070FD0F20FFF759
:10091000ABFF10B10124204610BD0446FFF746FF8F
:10092000F9E70000034A1368034909680B441360A0
:10093000704700BFDC00002000000020014B186859
:10094000704700BFDC00002010B483B01F4B9B68D1
:1009500013F0F00328D11D4A526A12F0805F10D0C4
:100960001B4A126802F4C052B2F5C05F1DD1B0F547
:10097000404F1AD1174A136843F004031360012350
:1009800013E012494A6A42F080524A624A6A02F00F
:1009900080520192019A0E4A126802F4C0524C6AC7
:1009A00024F080544C62DFE700230A490A6822F0F1
:1009B00001021A430A600A6802F001029A4203D156
:1009C000002003B010BC70470120FAE70038024055
:1009D00000700040003C0240002800F05E82F0B54C
:1009E00083B00446A24B9D6805F00C059E6806F492
:1009F0008036036813F0010F1DD0082D12D00C2D86
:100A00000ED06368012B35D0002B49D1984B1A6862
:100A100022F480321A601A6822F480221A602EE0D2
:100A2000002EEED0924B1B6813F4003F03D0636896
:100A3000002B00F03482236813F0020F68D0042DDD
:100A400055D00C2D51D0E368002B00F0C780894BA6
:100A500001221A60FFF772FF0646854B1B6813F0F0
:100A6000020F40F0B280FFF769FF801B0228F4D923
:100A700003201DE27E4A136843F4803313606368E9
:100A800023B3FFF75BFF0746794B1B6813F4003F66
:100A9000D1D1FFF753FFC01B6428F5D9032007E22B
:100AA000052B09D0724B1A6822F480321A601A683A
:100AB00022F480221A60E2E76D4B1A6842F4802229
:100AC0001A601A6842F480321A60D8E7FFF736FFDE
:100AD0000746674B1B6813F4003FACD0FFF72EFFAF
:100AE000C01B6428F5D90320E2E1002EABD1604B96
:100AF0001B6813F0020F03D0E368012B40F0D18193
:100B00005B4A536823F4F853216943EA0123536095
:100B1000236813F0100F3BD0002D40F08580544B1C
:100B20001B6813F4007F03D0A369002B00F0BB8186
:100B3000206A4F4B5B6803F46043984260D9FFF72B
:100B400003FF002840F0B181494A536823F4604311
:100B5000216A0B435360536823F07F43E16943EA02
:100B600001635360236A5B0B5A1C4FF400439340AC
:100B70003F4A9268C2F303123F498A5CD3403F4A1E
:100B800013603F4B1868FFF76FFE002840F090811C
:100B9000236813F0080F00F09B806369002B00F0BE
:100BA0008480344B0122C3F88026FFF7C7FE064637
:100BB0002F4B5B6B13F0020F40F08A80FFF7BEFEF5
:100BC000801B0228F4D9032072E1294A536823F4D8
:100BD000F853216943EA0123536099E7254B00222A
:100BE0001A60FFF7ABFE0646214B1B6813F0020F9D
:100BF0008ED0FFF7A3FE801B0228F5D9032057E112
:100C00001B4A536823F4604318435060536823F031
:100C10007F43E16943EA01635360206AFFF794FE72
:100C200000289FD0012043E1A3695BB3114B01224F
:100C30001A62FFF783FE06460D4B1B6813F4007F14
:100C400006D1FFF77BFE801B0228F5D903202FE198
:100C5000074A536823F46043216A0B435360536887
:100C600023F07F43E16943EA0163536090E700BFEB
:100C700000380240000047426C4500080800002090
:100C8000040000208F4B00221A62FFF757FE064631
:100C90008D4B1B6813F4007F3FF47AAFFFF74EFED5
:100CA000801B0228F4D9032002E1864B0022C3F8FE
:100CB0008026FFF743FE0646834B5B6B13F0020F63
:100CC00006D0FFF73BFE801B0228F5D90320EFE09A
:100CD000236813F0040F79D07B4B5B6A13F0805FBD
:100CE0000BD1794B5A6A42F080525A625B6A03F028
:100CF00080530193019B012600E00026734B1B6883
:100D000013F4807F0ED0A368012B1FD0002B35D1A8
:100D10006D4B5A6B22F480725A635A6B22F48062D4
:100D20005A6318E0694A136843F480731360FFF74D
:100D300005FE0746654B1B6813F4807FE3D1FFF780
:100D4000FDFDC01B6428F5D90320B1E05E4A536B5A
:100D500043F480735363A36833B3FFF7EFFD074693
:100D6000594B5B6B13F4007F2FD1FFF7E7FDC01BDE
:100D700041F288339842F3D9032099E0052B09D03A
:100D8000514B5A6B22F480725A635A6B22F4806280
:100D90005A63E0E74C4B5A6B42F480625A635A6BD9
:100DA00042F480725A63D6E7FFF7C8FD0746464B08
:100DB0005B6B13F4007F08D0FFF7C0FDC01B41F24E
:100DC00088339842F3D9032072E0C6B9636A002BD6
:100DD0006DD00C2D4CD0022B17D03A4B00221A6646
:100DE000FFF7ACFD0446384B1B6813F0007F3DD085
:100DF000FFF7A4FD001B0228F5D9032058E0324A72
:100E0000536A23F080535362E0E72E4B00221A66A8
:100E1000FFF794FD05462C4B1B6813F0007F06D0AE
:100E2000FFF78CFD401B0228F5D9032040E026493E
:100E30008B6823F47D03A26AE06A0243206B0243BD
:100E400013438B601F4B01221A66FFF777FD0446A0
:100E50001D4B1B6813F0007F06D1FFF76FFD001BD1
:100E60000228F5D9032023E0002021E000201FE024
:100E7000012B1FD0144B9B6803F48031A26A91426E
:100E80001AD103F47012E16A8A4217D103F44003C5
:100E9000226B934214D100200AE001207047012008
:100EA00006E0012004E0012002E0012000E0002033
:100EB00003B0F0BD0120FBE70120F9E70120F7E7CF
:100EC0000120F5E700004742003802400070004072
:100ED00008B5254B9A6802F00C03082B3FD00C2B69
:100EE0000AD0042B3DD0204B5868C0F34230431C3D
:100EF0004FF40040984035E0C2F383431B4911F89A
:100F000003C0C2F381520132174B9B6813F4803F38
:100F100006D017480023ACFB0001FFF731F921E0B0
:100F20004FEA4C11B1EB0C006EEB0E0E4FEA8E1334
:100F300043EA90638101091A63EB0E03DB0043EA85
:100F40005173C90011EB0C0C43F10003990200230B
:100F50004FEA8C2041EA9C51FFF712F902E0044865
:100F600000E0044808BD00BF003802408445000886
:100F700000366E010024F400002800F0D98070B51E
:100F80000C4605466E4B1B6803F001038B420DD2E5
:100F9000012928D06A4A136823F001032343136010
:100FA000136803F00103A34240F0C4802B6813F0E0
:100FB000020F06D0634A936823F0F003A9680B433D
:100FC00093602B6813F0010F72D06B68022B10D066
:100FD000032B32D0012B37D05A4A126812F4007F0B
:100FE0000DD101209DE0564A136843F004031360BD
:100FF000D0E7544A126812F4003F00F09D80514936
:101000008A6822F0030213438B60FFF797FC0646C1
:101010006B68022B1FD0032B2CD0012B39D0494BEE
:101020009B6813F00C0F43D0FFF788FC801B41F244
:1010300088339842F3D9032073E0424A126812F0D1
:10104000007FDCD101206CE03E4A126812F0020FF2
:10105000D5D1012065E03B4B9B6803F00C03082BC6
:1010600026D0FFF76BFC831B41F288329342F2D902
:10107000032056E0334B9B6803F00C030C2B17D076
:10108000FFF75CFC801B41F288339842F2D90320C1
:1010900047E02C4B9B6803F00C03042B08D0FFF7B0
:1010A0004DFC801B41F288339842F2D9032038E08E
:1010B000234B1B6803F00103A3420CD9012C31D050
:1010C0001F4A136823F0010323431360136803F0DE
:1010D0000103A34232D12B6813F0040F06D0194A42
:1010E000936823F4E063E9680B4393602B6813F083
:1010F000080F07D0134A936823F46053296943EA21
:10110000C1039360FFF7E4FE0E4B9B68C3F3031328
:101110000D4AD35CD8400D4B18600D4B1868FFF793
:10112000A3FB70BD064A136843F004031360C7E7CE
:10113000012070470120F4E70120F2E70120F0E7E9
:10114000003C0240003802406C45000808000020C6
:1011500004000020014B1868704700BF0800002001
:1011600008B5FFF7F7FF044B9B68C3F30223034A5C
:10117000D35CD84008BD00BF003802407C45000861
:101180000F2303600B4B9A6802F0030242609A68D7
:1011900002F0F00282609A6802F4E062C2609B682A
:1011A000DB0803F4E0630361034B1B6803F00103F6
:1011B0000B60704700380240003C024070B582B0BE
:1011C000002365E085685E000324B44025EA040539
:1011D000CC68B4402C438460446824EA0C0C4C680E
:1011E000C4F300149C4044EA0C04446061E0DD0850
:1011F000083550F8256003F007044FEA840C0F24EB
:1012000004FA0CF426EA040E0C6904FA0CF444EA1D
:101210000E0440F8254063E0062400E0002404FAB0
:101220000EF42C430CF1020C5A4D45F82C405A4C4C
:101230002568D44325EA0206D1F804C01CF4803F97
:1012400001D042EA0506544D2E606D6804EA050699
:10125000D1F804C01CF4003F01D042EA05064E4D0F
:101260006E60AD6804EA0506D1F804C01CF4801F66
:1012700001D042EA0506484DAE60ED682C404E684C
:1012800016F4001F01D042EA0504434AD46001333A
:101290000A6832FA03F47BD04FF0010C0CFA03FC1D
:1012A0001CEA0202F3D04C6804F00304013C012C58
:1012B00088D94C6804F00304032C0CD0C4685D008A
:1012C0004FF0030C0CFA05FC24EA0C0C8C68AC40C3
:1012D00044EA0C04C4604C6804F00304022C86D079
:1012E00004684FEA430E4FF0030C0CFA0EFC24EA9C
:1012F0000C0C4C6804F0030404FA0EF444EA0C04E9
:1013000004604C6814F4403FC1D0244C256A45F079
:1013100001052562246A04F001040194019C4FEA4E
:10132000930C0CF102051B4C54F8255003F00304F8
:101330004FEA840E0F2404FA0EF425EA0405184C33
:10134000A0423FF46BAF04F58064A04216D004F5D0
:101350008064A04214D004F58064A04212D004F549
:101360008064A04210D004F58064A0420ED004F541
:101370008064A0423FF450AF072450E701244EE7B9
:1013800002244CE703244AE7042448E7052446E7FF
:1013900002B070BD0000014000040140003802406E
:1013A000000002400369194201D00120704700206B
:1013B00070470AB1816170470904816170474369D0
:1013C00001EA030221EA030141EA02418161704717
:1013D00008B5054B5B69034200D108BD024B58615B
:1013E000FFF7EAF8F9E700BF00040140074AD368B5
:1013F00023F4E0631B041B0C000200F4E0600343D1
:1014000043F0BF6343F40033D360704700ED00E066
:1014100000B5194BDB68C3F30223C3F1070CBCF121
:10142000040F28BF4FF0040C03F1040EBEF1060FA9
:1014300018D9033B4FF0FF3E0EFA0CFC21EA0C01D9
:1014400099400EFA03F322EA0303194300280BDB49
:101450000901C9B200F1604000F5614080F8001355
:101460005DF804FB0023E5E700F00F000901C9B2B5
:10147000024B1954F4E700BF00ED00E014ED00E06A
:10148000002807DB00F01F02400901239340024AB5
:1014900042F82030704700BF00E100E02DE9F0473E
:1014A00082B00546884617461E46FFF747FA0A9B54
:1014B0001B1A03EB0609FFF741FA82462B4B1B6808
:1014C000C3F3CB3309FB03F301932B689C6838EA21
:1014D00004030CBF4FF0010C4FF0000CBC4540D092
:1014E000B6F1FF3FF1D0FFF729FAA0EB0A0048451B
:1014F0000AD2B9F1000F07D0019A02B14A46019B06
:10150000013B01939146E0E72A68536823F0E0032A
:1015100053606B68B3F5827F0BD0AB6AB3F5005FA5
:1015200014D0012385F85130002385F85030032072
:1015300018E0AB68B3F5004F02D0B3F5806FECD183
:101540002A68136823F040031360E6E72A681368EB
:1015500023F4005313602A68136843F400531360A4
:10156000DFE7002002B0BDE8F08700BF08000020E0
:1015700010B584B00446164B1868164BA3FB003018
:10158000400D4FF47A7303FB00F003906368B3F5EA
:10159000827F0BD0039BBBB1039B013B039323686A
:1015A0009B6813F0800FF5D100200EE000920B46EF
:1015B000002280212046FFF771FF30B1636D43F0B8
:1015C00020036365032000E0002004B010BD00BFCD
:1015D00008000020819F5E1610B582B004460B46BD
:1015E0004168B1F5827F14D06168B1F5827F2AD15C
:1015F000A168B1F5806F19D00092002280212046A9
:10160000FFF74CFF30B3636D43F0200363650320A5
:1016100020E08168B1F5004F02D0B1F5806FE3D1D1
:101620002068016821F040010160DDE7009200229E
:1016300001212046FFF732FF60B1636D43F02003C4
:101640006365032006E00092002201212046FFF797
:1016500025FF08B902B010BD636D43F02003636538
:101660000320F7E700285AD010B50446436A33B97F
:101670004368B3F5827F05D00023C36102E00023F5
:10168000036143610023A36294F85130002B40D0E2
:10169000022384F851302268136823F0400313605A
:1016A000636803F48273A26802F404421343E2689D
:1016B00002F400621343226902F0020213436269DA
:1016C00002F001021343A26902F400721343E269BB
:1016D00002F038021343226A02F080021343A26A26
:1016E00002F40052216813430B60638B03F0040380
:1016F000626A02F01002216813434B602268D369CA
:1017000023F40063D36100206065012384F8513025
:1017100010BD84F850302046FFF772F8B8E701207A
:1017200070472DE9F04383B01D4690F85030012BEF
:1017300000F0D180044688469146012380F850305D
:10174000FFF7FCF8074694F85160F6B2012E40F01E
:10175000AF80B8F1000F00F0AC80B9F1000F00F0DD
:10176000A880032384F8513000236365C4F83080D7
:10177000A4F83490A4F83690A363A387E387636446
:101780002364A368B3F5004F1ED023681A6812F0D3
:10179000400F03D11A6842F040021A60E368B3F5C3
:1017A000006F1CD0636813B1B9F1010F52D1226BE5
:1017B000236812781A73236B01332363E38E9BB281
:1017C000013B9BB2E38645E02268136823F04003A7
:1017D00013602268136843F480431360D5E763689D
:1017E00013B1B9F1010F16D1226B23681288DA60A8
:1017F000236B02332363E38E9BB2013B9BB2E386F0
:1018000009E0FFF79BF8C01BA84202D3B5F1FF3FE8
:1018100059D1002D59D0E38E9BB2002B33D02368D1
:101820009A6812F0020FECD0226B1288DA60236BF8
:1018300002332363E38E9BB2013B9BB2E386EAE76C
:10184000FFF77CF8C01BA84202D3B5F1FF3F3ED1A1
:10185000002D3ED0E38E9BB2ABB123689A6812F0A4
:10186000020FEDD0226B12781A73236B01332363BE
:10187000B4F836C01FFA8CFC0CF1FF3C1FFA8CFC4C
:10188000A4F836C0E6E73A4629462046FFF770FE40
:1018900008B120236365A36833B901932368DA682C
:1018A00001929B680193019B636D13B9002600E0D0
:1018B0000226012384F85130002384F8503030464A
:1018C00003B0BDE8F0830326F3E70326F1E7032620
:1018D000EFE70326EDE70226F1E72DE9F04383B0B9
:1018E0001F460A9D90F85030012B00F010810446ED
:1018F00088469146012380F85030FFF71FF80646CE
:1019000094F85130DBB26268012B0AD0B2F5827FC5
:1019100040F0E380A268002A40F0E980042B40F008
:10192000E880B8F1000F00F0E680B9F1000F00F098
:10193000E480002F00F0E38094F85130DBB2042BF8
:1019400002D0052384F8513000236365C4F8389031
:10195000E787A787C4F83080E786A7862364636497
:1019600023681A6812F0400F03D11A6842F040024F
:101970001A60E368B3F5006F11D063680BB1012FF3
:101980000BD1226B236812781A73236B0133236304
:10199000E38E9BB2013B9BB2E38601276BE0636859
:1019A0000BB1012F0BD1226B23681288DA60236BF5
:1019B00002332363E38E9BB2013B9BB2E386012794
:1019C0001CE023689A6812F0010F0ED0E28F92B2E9
:1019D0005AB1DA68A36B1A80A36B0233A363E38F57
:1019E0009BB2013B9BB2E3870127FEF7A7FF801B59
:1019F000A84203D3B5F1FF3F40F08380E38E9BB252
:101A00001BB9E38F9BB2002B53D023689A6812F066
:101A1000020FD6D0E28E92B2002AD2D0002FD0D0C0
:101A2000226B1288DA60236B02332363E38E9BB24E
:101A3000013B9BB2E3860027C3E723689A6812F054
:101A4000010F0ED0E28F92B25AB1DA68A36B1A700E
:101A5000A36B0133A363E38F9BB2013B9BB2E3878C
:101A60000127FEF76BFF831BAB4202D3B5F1FF3FAB
:101A700049D1002D49D0E38E9BB213B9E38F9BB2BD
:101A8000BBB123689A6812F0020FD6D0E28E92B2F0
:101A9000002AD2D0002FD0D0226B12781A73236B79
:101AA00001332363E38E9BB2013B9BB2E3860027A5
:101AB000C3E7324629462046FFF75AFD48B9A368D6
:101AC00063B901932368DA6801929B680193019BD3
:101AD00004E020236365012000E00220012384F854
:101AE0005130002384F8503003B0BDE8F083022069
:101AF000F4E70220F2E70120F0E70120EEE7012001
:101B0000ECE70320EAE70320E8E70320E6E702200A
:101B1000EAE72DE9F04383B00446884691461D4626
:101B20004068B0F5827F38D094F85030012B00F037
:101B3000AE80012384F85030FEF700FF074694F88A
:101B40005160F6B2012E40F08F80B8F1000F00F026
:101B50008C80B9F1000F00F08880042384F85130A4
:101B600000236365C4F83880A4F83C90A4F83E9044
:101B70002363A386E38623646364A368B3F5004FFD
:101B800019D023681A6812F0400F03D11A6842F086
:101B900040021A60E3681BB341E0A368002BC3D185
:101BA000042384F85130009513460A462046FFF777
:101BB00094FE06465FE02268136823F0400313603A
:101BC0002268136823F480431360DAE7FEF7B6FE59
:101BD000C01BA84202D3B5F1FF3F50D1002D50D019
:101BE000E38F9BB2002B33D023689A6812F0010F69
:101BF000ECD0A26B1B7B1370A36B0133A363E38F49
:101C00009BB2013B9BB2E387EAE7FEF797FEC01B5E
:101C1000A84202D3B5F1FF3F35D1002D35D0E38F77
:101C20009BB2ABB123689A6812F0010FEDD0DA686D
:101C3000A36B1A80A36B0233A363B4F83EC01FFAF0
:101C40008CFC0CF1FF3C1FFA8CFCA4F83EC0E6E7CC
:101C50003A4629462046FFF7BFFC08B120236365BA
:101C6000636D13B9002600E00226012384F8513089
:101C7000002384F85030304603B0BDE8F0830326DB
:101C8000F3E70326F1E70326EFE70326EDE7022655
:101C9000F1E700000368B0F1804F0ED01E4A904279
:101CA0000BD002F58062904207D002F5806290422C
:101CB00003D002F57C42904203D123F070034A68BE
:101CC0001343B0F1804F16D0134A904213D002F55F
:101CD000806290420FD002F5806290420BD002F5F4
:101CE0007C42904207D002F58062904203D002F518
:101CF0008062904203D123F44073CA68134323F0F7
:101D000080030A69134303608B68C3620B688362B4
:101D100001234361704700BF00040040704700B3D7
:101D200010B5044690F83930B3B1022384F8393045
:101D3000214651F8040BFFF7ADFF012384F83E3034
:101D400084F83A3084F83B3084F83C3084F83D30F5
:101D500084F83930002010BD80F83830FFF7DEFFFE
:101D6000E3E701207047000090F83930DBB2012B27
:101D700027D1022380F839300268D36843F0010389
:101D8000D3600368B3F1804F10D0104A93420DD056
:101D900002F58062934209D002F58032934205D069
:101DA0001A6842F001021A60002070479A6802F037
:101DB0000702062A07D01A6842F001021A600020C2
:101DC0007047012070470020704700BF00040040AA
:101DD000704770477047704710B5044603681A692A
:101DE00012F0020F11D0DA6812F0020F0DD06FF06E
:101DF00002021A610123037603689B6913F0030F43
:101E00005ED0FFF7E6FF0023237623681A6912F0FD
:101E1000040F12D0DA6812F0040F0ED06FF0040233
:101E20001A610223237623689B6913F4407F4DD007
:101E30002046FFF7CEFF0023237623681A6912F0AD
:101E4000080F12D0DA6812F0080F0ED06FF00802F7
:101E50001A61042323762368DB6913F0030F3CD057
:101E60002046FFF7B6FF0023237623681A6912F095
:101E7000100F12D0DA6812F0100F0ED06FF01002AF
:101E80001A61082323762368DB6913F4407F2BD083
:101E90002046FFF79EFF0023237623681A6912F07D
:101EA000010F03D0DA6812F0010F24D123681A69F8
:101EB00012F0400F03D0DA6812F0400F22D110BDAB
:101EC000FFF786FF2046FFF785FF9CE72046FFF7D8
:101ED0007FFF2046FFF77EFFADE72046FFF778FF44
:101EE0002046FFF777FFBEE72046FFF771FF204649
:101EF000FFF770FFCFE76FF001021A612046FEF78F
:101F000097FBD3E76FF040021A612046FFF763FFAB
:101F1000D5E7704700F1080343604FF0FF3282605D
:101F2000C3600361002303607047002303617047AF
:101F300043684B609A688A605160996008610368E1
:101F400001330360704730B40D68B5F1FF3F11D025
:101F500000F108031C465B681A68AA42FAD9636854
:101F60004B6099608C6061600861036801330360B5
:101F700030BC70470469F2E70369416882688A608F
:101F8000416851605A68824206D0002202611A6894
:101F9000013A1A601868704782685A60F5E703468C
:101FA000406A18B11B6B1868C0F13800704710B553
:101FB000044601F0B7FFA26BE36B9A4204D0002401
:101FC00001F0D2FF204610BD0124F9E710B5044608
:101FD00001F0A8FFA36B23B9012401F0C5FF20463F
:101FE00010BD0024F9E770B504461546866B026CF7
:101FF0005AB903681BB100200136A66370BD406862
:1020000001F07CF900236360F6E76DB9806802F0A7
:1020100043FA226CA3681344A3606268934219D305
:102020002368A3602846E7E7C06802F035FA226C0F
:102030005142E3689B1AE3602268934202D26368CC
:102040000B44E360022D01D00020D5E726B1013E0C
:102050000020D1E72846CFE70020CDE708B50346AA
:10206000026C62B10846D9681144D960D3F804C043
:10207000614501D31968D960D96802F00DFA08BD2D
:1020800038B5054601F04EFF95F8454064B201E0D1
:10209000013C64B2002C0ADD6B6A43B105F12400F7
:1020A00001F030F80028F3D001F0C0F8F0E7FF238A
:1020B00085F8453001F058FF01F034FF95F84440B1
:1020C00064B201E0013C64B2002C0ADD2B6943B12B
:1020D00005F1100001F016F80028F3D001F0A6F881
:1020E000F0E7FF2385F8443001F03EFF38BD38B5F6
:1020F000E0B10D46044601F015FF2368E26B216C48
:1021000001FB023060600020A063A360013A02FB83
:102110000133E360FF2384F8443084F84530FDB98F
:10212000236963B901F020FF012038BD4FF050034F
:1021300083F31188BFF36F8FBFF34F8FFEE704F176
:10214000100000F0DFFF0028ECD04FF0E0234FF04C
:102150008052C3F8042DBFF34F8FBFF36F8FE1E7B9
:1021600004F11000FFF7D6FE04F12400FFF7D2FEC1
:10217000D8E738B51D46049C0B4649B92460E06396
:10218000236401212046FFF7B2FF84F84C5038BD8C
:102190002260F4E740B94FF0500383F31188BFF396
:1021A0006F8FBFF34F8FFEE710B584B01C46844697
:1021B00053B192B189B94FF0500383F31188BFF343
:1021C0006F8FBFF34F8FFEE74FF0500383F31188FB
:1021D000BFF36F8FBFF34F8FFEE76AB150230393B6
:1021E000039B502B13D04FF0500383F31188BFF3A0
:1021F0006F8FBFF34F8FFEE70029EFD04FF05003F2
:1022000083F31188BFF36F8FBFF34F8FFEE7012376
:1022100084F8463000949DF818306046FFF7A9FF17
:10222000204604B010BD40B94FF0500383F311882D
:10223000BFF36F8FBFF34F8FFEE7F0B583B00C464F
:1022400015460746A1B101FB00F0503001F064FDD6
:10225000064650B1002380F8463000902B4600F12E
:10226000500221463846FFF784FF304603B0F0BDE8
:102270000846EAE7F0B585B0019288B10F461D46E1
:102280000446B1B1022D20D1E36B012B1DD04FF0DC
:10229000500383F31188BFF36F8FBFF34F8FFEE7B7
:1022A0004FF0500383F31188BFF36F8FBFF34F8F4D
:1022B000FEE7036C002BE5D04FF0500383F3118849
:1022C000BFF36F8FBFF34F8FFEE700F0BBFF0646F3
:1022D00058B9019B002B48D04FF0500383F311886D
:1022E000BFF36F8FBFF34F8FFEE700263DE02A4616
:1022F00039462046FFF777FE636A7BB948B14FF055
:10230000E0234FF08052C3F8042DBFF34F8FBFF38B
:102310006F8F01F029FE012005B0F0BD04F124000B
:1023200000F0F0FE0028F4D04FF0E0234FF0805290
:10233000C3F8042DBFF34F8FBFF36F8FE9E701F0B0
:1023400013FE0020E8E702A800F022FF012619E0B2
:10235000002384F8443021E0002384F8453023E052
:102360002046FFF78DFE00F0ADFD01F0DBFDA26B16
:10237000E36B9A42BBD3022DB9D0019B002BDED078
:10238000002EE0D001F0F0FD00F002FD01F0CAFDEA
:1023900094F8442052B2B2F1FF3FD9D094F84520CE
:1023A00052B2B2F1FF3FD7D001F0DEFD01A902A881
:1023B00000F0FAFED8B92046FFF7F9FD0028CFD08B
:1023C000019904F1100000F069FE2046FFF758FE65
:1023D00000F078FD0028C8D14FF0E0234FF0805284
:1023E000C3F8042DBFF34F8FBFF36F8FBDE72046B7
:1023F000FFF746FE00F066FD00208DE748B108B506
:10240000002141600160C1600B460A46FFF732FFC0
:1024100008BD704710B5024600210120FFF703FFF9
:102420000446FFF7EBFF204610BD10B582B00B4607
:102430000090002211460120FFF7ACFE0446FFF792
:10244000DDFF204602B010BD38B538B104464568FE
:1024500000F0F2FE85420AD0002038BD4FF0500354
:1024600083F31188BFF36F8FBFF34F8FFEE7E368ED
:10247000013BE3600BB10120EFE71A461946204605
:10248000FFF7F8FE0120E8E72DE9F84390B10F4689
:1024900016461C460546B1B1022C20D1EB6B012B30
:1024A0001DD04FF0500383F31188BFF36F8FBFF33C
:1024B0004F8FFEE74FF0500383F31188BFF36F8F08
:1024C000BFF34F8FFEE7036C002BE5D04FF05003B6
:1024D00083F31188BFF36F8FBFF34F8FFEE701F0D7
:1024E0000BFEEFF311894FF0500383F31188BFF314
:1024F0006F8FBFF34F8FAA6BEB6B9A4206D3022C00
:1025000004D0002089F31188BDE8F88395F8458050
:102510004FFA88F8224639462846FFF764FDB8F19D
:10252000FF3F06D008F101035BB285F8453001207A
:10253000E8E76B6A0BB90120E4E705F1240000F03D
:10254000E1FD18B126B101203060DBE70120D9E7B9
:102550000120D7E7F0B585B0019290B10F4604464F
:10256000C1B100F06FFE064600BB019B002B5ED0A0
:102570004FF0500383F31188BFF36F8FBFF34F8F7A
:10258000FEE74FF0500383F31188BFF36F8FBFF363
:102590004F8FFEE7036C002BE3D04FF0500383F323
:1025A0001188BFF36F8FBFF34F8FFEE700263EE029
:1025B00039462046FFF752FD013DA563236923B943
:1025C00001F0D2FC012005B0F0BD04F1100000F0D4
:1025D00099FD0028F4D04FF0E0234FF08052C3F86B
:1025E000042DBFF34F8FBFF36F8FE9E701F0BCFC01
:1025F0000020E8E702A800F0CBFD012621E000233F
:1026000084F8443029E0002384F845302BE020464C
:10261000FFF736FD00F056FC09E02046FFF730FDDD
:1026200000F050FC2046FFF7D1FC00283FD101F01C
:1026300079FCA56B002DBBD1019B002BD6D0002EC1
:10264000D8D001F091FC00F0A3FB01F06BFC94F8F2
:1026500044305BB2B3F1FF3FD1D094F845305BB268
:10266000B3F1FF3FCFD001F07FFC01A902A800F039
:102670009BFD0028D1D12046FFF7A8FC0028C6D03A
:10268000019904F1240000F009FD2046FFF7F8FC51
:1026900000F018FC0028CAD14FF0E0234FF0805220
:1026A000C3F8042DBFF34F8FBFF36F8FBFE7002038
:1026B00089E770B584B0019158B10446036C8BB1C1
:1026C0004FF0500383F31188BFF36F8FBFF34F8F29
:1026D000FEE74FF0500383F31188BFF36F8FBFF312
:1026E0004F8FFEE700F0AEFD054650B9019B5BB190
:1026F0004FF0500383F31188BFF36F8FBFF34F8FF9
:10270000FEE70026354655E0064653E0013BA3634D
:1027100023683BB123694BB901F026FC0126304602
:1027200004B070BD00F082FE6060F3E704F11000B9
:1027300000F0E8FC0028EFD04FF0E0234FF080528B
:10274000C3F8042DBFF34F8FBFF36F8FE4E746B19B
:102750004FF0500383F31188BFF36F8FBFF34F8F98
:10276000FEE701F001FCDAE702A800F011FD012507
:102770002AE0002384F8443032E0002384F8453016
:1027800034E001F0CFFB606800F06CFD064601F01C
:10279000EBFB3BE02046FFF773FC00F093FB09E006
:1027A0002046FFF76DFC00F08DFB2046FFF70EFC86
:1027B000002842D101F0B6FBA36B002BA6D1019BF0
:1027C000002BC4D0002DCFD001F0CEFB00F0E0FAFA
:1027D00001F0A8FB94F844305BB2B3F1FF3FC8D0DE
:1027E00094F845305BB2B3F1FF3FC6D001F0BCFBBB
:1027F00001A902A800F0D8FC0028D1D12046FFF79B
:10280000E5FB0028C6D02368002BBAD0019904F15B
:10281000240000F043FC2046FFF732FC00F052FB9E
:102820000028C7D14FF0E0234FF08052C3F8042DA9
:10283000BFF34F8FBFF36F8FBCE70EB900266EE773
:1028400001F070FB2046FFF7AAFB0146606800F02C
:102850009DFD01F089FBF1E780B170B50C4605469E
:10286000466800F0E9FC864211D021462846FFF771
:1028700020FF80B1EB680133EB600CE04FF05003B8
:1028800083F31188BFF36F8FBFF34F8FFEE7EB68C1
:102890000133EB60012070BD0023072B0CD8074AE1
:1028A00052F833200AB10133F7E7044A42F83310F3
:1028B00002EBC30358607047704700BFE000002080
:1028C00070B504460D46164601F02CFB94F84430D2
:1028D0005BB2B3F1FF3F0DD094F845305BB2B3F17A
:1028E000FF3F0BD001F040FBA36B5BB12046FFF72D
:1028F000C7FB70BD002384F84430EDE7002384F863
:102900004530EFE73246294604F1240000F0DEFBB3
:10291000ECE70000084B1B681B6823B9074B4FF01E
:10292000FF321A607047044B1B68DB68DB685A682B
:10293000024B1A60704700BF24010020D005002020
:102940002DE9F04780460D4617469946089EDDF86A
:1029500024A00A9C9200A521206B01F0ABFD236B03
:1029600007F18042013A03EB820727F007074FF097
:10297000000CBCF10F0F0BD815F80C2004EB0C0366
:1029800083F8342015F80C3013B10CF1010CF0E78A
:10299000002384F84330372E00D93726E662E664F8
:1029A00000252565201DFFF7C0FA04F11800FFF788
:1029B000BCFA2461C6F13806A6616462656584F8D4
:1029C00058504A464146384601F086FA2060BAF12E
:1029D000000F01D0CAF80040BDE8F08738B50024E8
:1029E00007E004EB840293000E481844FFF792FAC4
:1029F0000134372CF5D90C4D2846FFF78BFA0B4CD8
:102A00002046FFF787FA0A48FFF784FA0948FFF7DC
:102A100081FA0948FFF77EFA084B1D60084B1C60DD
:102A200038BD00BF2C010020A4050020B8050020FF
:102A3000D805002004060020F00500202401002015
:102A40002801002010B5044601F06CFA224A1368F0
:102A500001331360214B1B685BB1214B1B686BB9C1
:102A60001E4B1B68DA6AE36A9A4207D81B4B1C604C
:102A700004E01A4B1C601368012B29D0194A136813
:102A8000013313606364E06A174B1B68984201D9F5
:102A9000154B186000EB8000211D144B03EB8000E8
:102AA000FFF746FA01F060FA0D4B1B687BB10B4B48
:102AB0001B68DA6AE36A9A4209D24FF0E0234FF0CA
:102AC0008052C3F8042DBFF34F8FBFF36F8F10BD3B
:102AD000FFF784FFD2E700BF8C0500202001002013
:102AE000EC0500209C050020A00500202C01002002
:102AF00010B5044690F8593063B1012B11D0022B68
:102B00000ED04FF0500383F31188BFF36F8FBFF3E4
:102B10004F8FFEE7006B01F077F9204601F074F962
:102B200010BD01F071F9FBE70F4B1B68D3B110B575
:102B300001F0F8F90D4BDB68DC68201DFFF71CFA8B
:102B40000B4A1368013B1360074A1368013B13608B
:102B500001F00AFA2046FFF7CBFF034B1B68002B5E
:102B6000E6D110BD704700BF90050020040600208C
:102B70008C05002008B5FFF7D7FF074B1B68012B1A
:102B8000F9D94FF0E0234FF08052C3F8042DBFF382
:102B90004F8FBFF36F8FEEE72C01002070B5044616
:102BA0000D46174B1E68174B18680430FFF7E4F901
:102BB000B4F1FF3F0DD03444124B1B685C60A64259
:102BC00010D9114B18680F4B19680431FFF7BBF986
:102BD00070BD002DEFD00B4B196804310B48FFF787
:102BE000A7F9F5E70A4B1868064B19680431FFF797
:102BF000AAF9084B1B68A342EAD9064B1C60E7E719
:102C0000180600202001002028010020F0050020E7
:102C100024010020D005002030B587B00B9C7CB18A
:102C20000C9DB5B15C250495049D5C2D1AD04FF028
:102C3000500383F31188BFF36F8FBFF34F8FFEE70D
:102C40004FF0500383F31188BFF36F8FBFF34F8FA3
:102C5000FEE74FF0500383F31188BFF36F8FBFF38C
:102C60004F8FFEE70C9D2C63022485F85940002409
:102C70000394029505AC01940A9C0094FFF760FE52
:102C80000C98FFF7DFFE059807B030BD2DE9F04343
:102C900085B00746884614461E46900001F03CF871
:102CA00000B381465C2001F037F80546B0B1C0F8AA
:102CB0003090E5B1002385F85930039302950D9BC0
:102CC00001930C9B00933346224641463846FFF75A
:102CD00037FE2846FFF7B6FE012005E0484601F022
:102CE00093F8E6E74FF0FF3005B0BDE8F0834FF012
:102CF000FF30F9E710B588B000240594069407AAC0
:102D000006A905A800F08EFF059B0293069B019380
:102D100000942346079A18491848FFF77DFF184B7F
:102D2000186040B100F0FCFB012806D0B0F1FF3F75
:102D300018D008B010BD0020F6E74FF0500383F321
:102D40001188BFF36F8FBFF34F8F0E4B4FF0FF32E1
:102D50001A600D4B01221A600C4B00221A6001F020
:102D60006BF9E6E74FF0500383F31188BFF36F8FE1
:102D7000BFF34F8FFEE700BF90450008752B00089A
:102D8000CC050020D0050020EC050020180600200E
:102D9000024A136801331360704700BF9805002092
:102DA000014B1868704700BF18060020F8B53A4B71
:102DB0001B68002B64D1394B1D6801351D60C5B9F6
:102DC000374B1B681B6843B14FF0500383F31188E6
:102DD000BFF36F8FBFF34F8FFEE7314A1168314B5E
:102DE000186810601960304A136801331360FFF7E8
:102DF00091FD2E4B1B68AB4238D900272C4B1B682A
:102E0000DB6A03EB83039A002A4B9B58012B3CD9C6
:102E100001273AE00127224B1B681B6843B3204B74
:102E20001B68DB68DC6863689D4226D3261D30463C
:102E3000FFF7A2F8A36A1BB104F11800FFF79CF892
:102E4000E36A1D4A1268934201D91B4A136003EBDF
:102E500083039A00314617481044FFF769F8E26A85
:102E6000134B1B68DB6A9A42D4D2D4E70027D2E71F
:102E70000E4B4FF0FF321A60C0E70C4A1360BDE7FB
:102E80000E4A13680133136000270D4B1B6803B112
:102E900001273846F8BD00BF98050020180600201D
:102EA0002401002028010020D4050020D0050020A6
:102EB000200100202C010020A00500209405002006
:102EC0001C06002038B5354B1B6843B94FF0500342
:102ED00083F31188BFF36F8FBFF34F8FFEE701F0CD
:102EE00021F82E4B1A68013A1A601B68002B4FD14B
:102EF0002B4B1B680BB900244BE00024294B1B68AB
:102F00001BB3284BDB68DC6804F11800FFF734F8CA
:102F1000251D2846FFF730F8E06A234B1B689842CE
:102F200001D9214B186000EB800029461F4B03EBB1
:102F30008000FEF7FDFFE26A1D4B1B68DB6A9A42C8
:102F4000DCD31C4B01221A60D8E70CB1FFF7E2FC7E
:102F5000194B1C6884B9174B1C68D4B14FF0E0239F
:102F60004FF08052C3F8042DBFF34F8FBFF36F8F24
:102F700001240EE0013C07D0FFF718FF0028F9D02C
:102F80000C4B01221A60F5E70B4B00221A60E2E7B6
:102F9000002400F0E9FF204638BD00BF980500205E
:102FA0008C050020D8050020A00500202C01002061
:102FB000200100201C0600209405002010B5A8B1B7
:102FC0000446104B1B6843B14FF0500383F3118844
:102FD000BFF36F8FBFF34F8FFEE7FFF7D9FE0021DE
:102FE0002046FFF7DBFDFFF76DFF48B94FF0E02308
:102FF0004FF08052C3F8042DBFF34F8FBFF36F8F94
:1030000010BD00BF980500201F4B1B681BB11F4B54
:1030100001221A6070471D4B00221A601C4B1B686E
:1030200003EB83018A001B498A585AB90BB1013B53
:10303000F6E74FF0500383F31188BFF36F8FBFF3B0
:103040004F8FFEE703EB830082000A44506840681C
:10305000506003EB830C4FEA8C0208321144884223
:103060000BD003EB830291000A4A0A445268D168EC
:10307000094A1160064A1360704740686246910031
:10308000044A0A445060ECE7980500201C06002022
:10309000A00500202C0100202001002058B110B50F
:1030A0000C46094A11681831FEF74DFF01212046F0
:1030B000FFF774FD10BD4FF0500383F31188BFF389
:1030C0006F8FBFF34F8FFEE72001002038B570B13E
:1030D0000D4614460A4A11681831FEF729FF0CB153
:1030E0004FF0FF3521462846FFF758FD38BD4FF019
:1030F000500383F31188BFF36F8FBFF34F8FFEE749
:103100002001002038B5C368DC6824B304F1180539
:103110002846FEF731FF184B1B682BBB251D2846A0
:10312000FEF72AFFE06A154B1B68984201D9134B42
:10313000186000EB80002946114B03EB8000FEF77E
:10314000F7FEE26A0F4B1B68DB6A9A4211D9012035
:103150000D4B186038BD4FF0500383F31188BFF357
:103160006F8FBFF34F8FFEE729460848FEF7E0FE5A
:10317000E7E70020EEE700BF98050020A00500204B
:103180002C010020200100201C060020D805002072
:10319000034B1B680360034B1B684360704700BF11
:1031A000D405002018060020D8B170B50C4605469D
:1031B00001B300F0B7FE1B4B19686B68C81A226890
:1031C000B2F1FF3F27D0184E3668D5F800C0B4459D
:1031D00001D08B4224D9824215D8002323600124D8
:1031E0001AE04FF0500383F31188BFF36F8FBFF3E2
:1031F0004F8FFEE74FF0500383F31188BFF36F8FBB
:10320000BFF34F8FFEE75B1A134423602846FFF796
:10321000BFFF002400E0002400F0A6FE204670BDA1
:103220000124F9E718060020D4050020014B0122F3
:103230001A6070471C060020014B1868704700BFD9
:1032400020010020054B1B6833B1054B1B680BB1F7
:10325000002070470220704701207047EC050020D5
:103260009805002000283FD038B50446C36A204A9C
:103270001268D26A93422FD28269002A05DB1C4A67
:103280001268D26AC2F138028261616903EB83037A
:10329000184A02EB8303994205D0154B1B68DB6A81
:1032A000E362012038BD251D2846FEF765FE104B60
:1032B0001B68D86AE062104B1B68984209D800EB83
:1032C000800029460B4B03EB8000FEF731FE012006
:1032D000E8E7094B1860F2E7C26C054B1B68DB6A34
:1032E0009A4203D30020DDE7002070470120D9E790
:1032F000200100202C010020A005002000283BD048
:1033000038B504461E4B1B68834208D04FF050036B
:1033100083F31188BFF36F8FBFF34F8FFEE7036D09
:1033200043B94FF0500383F31188BFF36F8FBFF39E
:103330004F8FFEE7013B0365C16AC26C91421DD00D
:103340000BB1002038BD051D2846FEF715FEE06CC8
:10335000E062C0F13803A3610A4B1B68984201D9AF
:10336000084B186000EB80002946074B03EB8000F8
:10337000FEF7DEFD0120E5E7002070470020E1E7D1
:1033800020010020A00500202C010020002846D0AC
:1033900038B50446036D43B94FF0500383F31188E9
:1033A000BFF36F8FBFF34F8FFEE7C26C8A4200D22C
:1033B0000A46E16A914201D0012B00D038BD184B7A
:1033C0001B68A34222D0E262A369002B02DBC2F198
:1033D0003802A261626901EB8101124B03EB8101AA
:1033E0008A42EBD1251D2846FEF7C6FDE06A0E4B4A
:1033F0001B68984201D90C4B186000EB80002946ED
:10340000084B03EB8000FEF793FDD7E74FF0500326
:1034100083F31188BFF36F8FBFF34F8FFEE77047C1
:10342000200100202C010020A0050020054B1B6876
:1034300023B1044B1A68136D01331365014B1868EF
:10344000704700BF20010020064B1A681368B3FACA
:1034500083F35B09036013B9D368186870470020D1
:10346000704700BF2006002008B54160006191420E
:103470000CD8D21A83699A4201D3012008BD011DDC
:10348000094B1868FEF75FFD0020F7E79A4201D26A
:10349000994206D2011D054B1868FEF754FD002025
:1034A000ECE70120EAE700BF240600202006002008
:1034B00030B583B000F036FD114B1B681BB100F036
:1034C00053FD03B030BD0F4D2846FEF723FD0E4CD3
:1034D0002046FEF71FFD0D4B1D600D4B1C600023A9
:1034E00000930C4B0C4A10210A20FEF753FE044BAC
:1034F00018600028E3D00949FFF7CEF9DFE700BFE5
:1035000044070020C8060020DC060020200600201A
:1035100024060020F4060020280600209845000814
:1035200010B588B0FFF7C4FF124B1B68CBB1002465
:103530000594069407AA06A905A800F07FFB059B41
:103540000293069B0193022300932346079A0A499C
:103550000A48FFF761FB0A4B186010B1012008B060
:1035600010BD4FF0500383F31188BFF36F8FBFF38B
:103570004F8FFEE744070020A0450008613800088F
:1035800048070020B8B19C4603461848006858B365
:1035900000B585B000910192029305291CDCFFF76C
:1035A00051FE022810D000231A4669460F480068D1
:1035B000FEF760FE15E04FF0500383F31188BFF370
:1035C0006F8FBFF34F8FFEE70023069A69460748C7
:1035D0000068FEF74FFE04E0002362466946FEF7EE
:1035E00053FF05B05DF804FB00207047440700203E
:1035F00070B582B01A4B1B681A6852B3DB681E683C
:10360000DC68251D2846FEF7B7FC636A204698470C
:10361000E369012BEED1A36933449E4207D2636074
:10362000246129460E4B1868FEF78DFCE2E7002165
:1036300000910B4632462046FFF7A4FF0028D9D15F
:103640004FF0500383F31188BFF36F8FBFF34F8F99
:10365000FEE7044A106802490860136002B070BDBA
:10366000200600202406002038B50546FFF798FB09
:103670000446074B1B68834205D800232B60044B8C
:103680001C60204638BDFFF7B3FF01232B60F6E72F
:10369000F006002070B582B006460D461449096850
:1036A000C968CC68201DFEF767FCE169012904D0D8
:1036B000636A2046984702B070BDA16933462A4626
:1036C00031442046FFF7D0FE0028F1D000210091C0
:1036D0000B4632462046FFF755FF0028E8D14FF051
:1036E000500383F31188BFF36F8FBFF34F8FFEE753
:1036F0002006002070B582B006460C46FFF748FB56
:1037000001A8FFF7B1FF019B2BBB05460CB9B042E6
:103710001AD22CB1124B1B681C68B4FA84F46409E9
:103720002246711B0F4B1868FFF7CAF8FFF7CAFB58
:1037300098B94FF0E0234FF08052C3F8042DBFF347
:103740004F8FBFF36F8F08E0FFF7BCFB2946304671
:10375000FFF7A0FF01E0FFF7B5FB02B070BD00BFAF
:10376000240600204407002010B588B002E0049B26
:10377000002B0FDA002204A9384B1868FEF7EAFE86
:10378000002869D0049B002BF1DA07990698059B65
:103790009847ECE7069C636913B1201DFEF7ECFB2C
:1037A00003A8FFF761FF049B092BE3D801A252F89D
:1037B00023F000BFDD370008DD370008DD370008E3
:1037C000753700082338000849380008DD3700083D
:1037D000DD3700087537000823380008059BA1690C
:1037E000024619442046FFF73FFE0028C2D0636A14
:1037F00020469847E369012BBCD1A26900210091C2
:103800000B46059802442046FFF7BCFE0028B1D1C4
:103810004FF0500383F31188BFF36F8FBFF34F8FC7
:10382000FEE70599A16131B10346024601442046F5
:10383000FFF71AFE9EE74FF0500383F31188BFF3A2
:103840006F8FBFF34F8FFEE794F82C30002B91D190
:10385000204600F0D9FA8DE708B010BD44070020DB
:1038600000B583B001A8FFF7EFFD0199FFF742FF14
:10387000FFF77AFFF6E70000EFF3058393B9EFF364
:10388000108393B90C4B1868022804D080B90A4BF6
:1038900001221A607047EFF31183002BF6D06FF00E
:1038A000050070476FF0050070476FF00500704726
:1038B0004FF0FF30704700BFA809002008B5EFF3B4
:1038C0000583B3B9EFF31083B3B90E4B1B68022B1A
:1038D00008D0012B13D10B4B02221A60FFF70AFA12
:1038E000002008BDEFF31182002AF2D06FF005002E
:1038F000F7E76FF00500F4E76FF00500F1E74FF030
:10390000FF30EEE7A809002008B54FF0500383F31D
:103910001188BFF36F8FBFF34F8FFFF741FA064B4C
:103920001B68064AA2FB03239B0903FB00F000234C
:1039300083F3118808BD00BF08000020D34D62103A
:10394000F0B587B000240494EFF30584002C43D134
:10395000EFF31083002B3FD1334B1B68022B16D0A3
:10396000002839D000238DF8173062B3156895B15F
:10397000936903B918235C1E372C51D8546814F08E
:10398000010F4FD156694EB14FEA960C08E0EFF3A4
:1039900011830BBBE4E70DF11705E9E74FF0800C4D
:1039A00094682CB1D7685B2F02D9176907B1B6B9F3
:1039B00014B14FF0FF340CE0D46894B914699CB191
:1039C0004FF0FF3405E0002418234FF0800C0DF178
:1039D0001705012C0AD0ACB1049807B0F0BD012442
:1039E000F7E74FF0FF34F4E70024F2E71469926838
:1039F0000292019400930B4662462946FFF70CF9A8
:103A00000490E9E704AA019200930B461FFA8CF296
:103A10002946FFF73BF90128DED000230493DBE7BA
:103A20000020DAE70020D8E7A809002008B5EFF366
:103A30000583A3B9EFF31083A3B90C4B1B68022BCA
:103A400002D040B9002008BDEFF31183002BF8D05D
:103A50006FF00500F7E7FFF7B1FA0020F3E76FF02A
:103A60000500F0E76FF00500EDE700BFA8090020B2
:103A700070B5EFF30583002B4ED10446EFF31082AF
:103A80001346002A4BD1284A1268022A23D004B1D7
:103A9000636813F0010600D0012613F0080F40D12F
:103AA0007CB3A16811B1E3684F2B1FD8C9B14FF0A7
:103AB000FF337BBB4EB30420FEF7ACFC05462DB1B3
:103AC00004B1246821462846FEF7E6FE2DB326B34E
:103AD00045F0010521E0EFF31182002AD7D000253F
:103AE0001BE0E3687BB14FF0FF33E2E726B104202F
:103AF000FEF79BFC0546E2E70120FEF796FC054633
:103B0000DDE70023D5E70023D3E70120FEF782FCA1
:103B10000546D4E70025D9E70025284670BD0025D5
:103B2000FBE70025F9E700BFA8090020EFF30582B5
:103B300042BB10B503460C4620F0010003F0010320
:103B4000EFF310820ABB194A1268022A0AD0F8B1B0
:103B50007BB12146FEF780FE01281CD0ECB16FF04E
:103B6000010019E0EFF31182002AF0D06FF0050098
:103B700012E02146FEF79DFD012811D094B16FF0AF
:103B8000010009E06FF0050070476FF0050003E0E9
:103B90006FF0030000E0002010BD6FF00200FBE7B3
:103BA0000020F9E76FF00200F6E700BFA809002047
:103BB000EFF3058222BB08B5034620F0010003F0B5
:103BC0000103EFF31082F2B9154A1268022A07D0F6
:103BD000E0B163B1FEF738FC01281AD1002008BD1E
:103BE000EFF31182002AF3D06FF00500F7E700230E
:103BF0001A461946FEF73EFB01280DD10020EEE7DC
:103C00006FF0050070476FF00500E8E76FF0030004
:103C1000E5E76FF00200E2E76FF00200DFE700BFC8
:103C2000A8090020034B0360034B0B608023136043
:103C3000704700BF4C0900204C070020034B036075
:103C4000034B0B604FF4807313607047AC0D002082
:103C5000AC090020124A12F0070F1ED0D11D21F02E
:103C60000701C1F5406313440A460E480260002173
:103C700041601344083B23F007030B48036059607D
:103C80001960991A51601360084B1960084B19604C
:103C9000084B4FF000421A6070474FF44063E4E76E
:103CA0000C0E0020181A0020080E0020141A002004
:103CB000101A00200C1A0020154B1A461B6883426C
:103CC000FBD3516802EB010C844509D0416800EB3D
:103CD000010C634509D00360904218D01060704712
:103CE0004068014451601046F0E710B4094C246864
:103CF000A3420AD05B681944416013681B680360E3
:103D0000904200D0106010BC70470460F8E7704724
:103D1000181A0020080E002070B50546FFF738F885
:103D2000344B1B68A3B1344B1B681D424AD135B1DB
:103D3000083515F0070F02D025F007050835002DCE
:103D400042D02E4B1B68AB424DD32D4A146804E081
:103D5000FFF780FFE7E722461C466368AB4202D2CA
:103D60002368002BF7D1234B1B68A3423DD0166874
:103D700008362368136063685B1B102B10D9601929
:103D800010F0070F08D04FF0500383F31188BFF3F2
:103D90006F8FBFF34F8FFEE743606560FFF78CFFC7
:103DA000626816490B689B1A0B60164909688B42BA
:103DB00001D214490B60104B1B681343636000234E
:103DC000236002E0002600E00026FFF77BF816F0F3
:103DD000070F0CD04FF0500383F31188BFF36F8FA0
:103DE000BFF34F8FFEE70026EFE70026EDE73046F2
:103DF00070BD00BF080E00200C1A0020101A002011
:103E0000181A0020141A002080B338B50446A0F117
:103E1000080550F8043C164A1268134208D14FF0C6
:103E2000500383F31188BFF36F8FBFF34F8FFEE70B
:103E300050F8081C41B14FF0500383F31188BFF3D1
:103E40006F8FBFF34F8FFEE723EA020340F8043C75
:103E5000FEF79EFF54F8041C064A13680B441360D7
:103E60002846FFF729FFFFF72DF838BD704700BF40
:103E70000C1A0020101A002082B0002301930D4B71
:103E80001B68B3F1FF3F08D04FF0500383F3118854
:103E9000BFF36F8FBFF34F8FFEE74FF0500383F3F5
:103EA0001188BFF36F8FBFF34F8F019B002BFCD0A6
:103EB00002B070470C00002006480068006880F3DC
:103EC000088862B661B6BFF34F8FBFF36F8F00DF14
:103ED00000BF000008ED00E04FF0807340F8043CA4
:103EE00021F0010140F8081C034B40F80C3C40F85D
:103EF000202C4038704700BF793E000800000000C9
:103F0000074B19680868B0E8F00F80F30988BFF321
:103F10006F8F4FF0000080F311884EF00D0E704748
:103F2000200100204FF0500383F31188BFF36F8FFF
:103F3000BFF34F8F0B4A136801331360012B00D07E
:103F400070474FF0E023D3F8043D13F0FF0FF7D094
:103F50004FF0500383F31188BFF36F8FBFF34F8F80
:103F6000FEE700BF0C000020094B1B6843B94FF06F
:103F7000500383F31188BFF36F8FBFF34F8FFEE7BA
:103F8000013B034A13600BB983F31188704700BFEC
:103F90000C000020000000000000000000000000F5
:103FA000EFF30980BFF36F8F0D4B1A6820E9F00F14
:103FB00010602DE908404FF0500080F31188FFF7A2
:103FC00023F84FF0000080F31188BDE8084019681D
:103FD0000868B0E8F00F80F30988BFF36F8F70476F
:103FE0002001002008B54FF0500383F31188BFF380
:103FF0006F8FBFF34F8FFEF7D9FE28B14FF0E0234C
:104000004FF08052C3F8042D002383F3118808BDBC
:104010004FF0E022002313619361054B1B680549B3
:10402000A1FB03139B09013B5361072313617047F5
:1040300008000020D34D621010B582B02A4B1A78C8
:10404000D2B20192FF221A701B78DBB28DF80330D6
:104050009DF8033003F05003244A1370244B0722C9
:104060001A6009E0224A1368013B13609DF803308F
:104070005B00DBB28DF803309DF8033013F0800F46
:10408000F0D11B4B1B68032B08D04FF0500383F378
:104090001188BFF36F8FBFF34F8FFEE71B02144AE7
:1040A000136003F4E0631360019BDBB20E4A1370EC
:1040B0004FF0E023D3F8202D42F47002C3F8202DF6
:1040C000D3F8202D42F07042C3F8202DFFF7A0FF57
:1040D0000024084B1C60FFF7EFFEFEF795FFFFF78B
:1040E000CBFE204602B010BD00E400E0201A002004
:1040F000241A00200C000020EFF305830F2B0FD9AA
:10410000114A9B5CDBB2114A12789A4208D94FF0EF
:10411000500383F31188BFF36F8FBFF34F8FFEE718
:104120004FF0E023D3F80C3D03F4E063084A126833
:10413000934208D94FF0500383F31188BFF36F8F78
:10414000BFF34F8FFEE77047F0E300E0201A002036
:10415000241A002070B582B00C460022ADF804206D
:104160008DF8062003238DF804308DF805000C4DE2
:1041700010212846FDF71DF90A4E6423022201A9E9
:104180003046FDF7CEFA6423012221463046FDF782
:10419000C0FC012210212846FDF70BF902B070BDCA
:1041A000000002404400002010B582B005238DF8C5
:1041B00004308DF805008DF806108DF807200A4CA4
:1041C000002210212046FDF7F4F8642304220DEBB1
:1041D00002010648FDF7A5FA012210212046FDF74D
:1041E000E8F802B010BD00BF00000240440000200B
:1041F00010B582B002238DF804308DF805008DF8DB
:104200000610094C002210212046FDF7D2F8642345
:10421000032201A90548FDF784FA01221021204656
:10422000FDF7C7F802B010BD0000024044000020B6
:1042300010B582B0A0238DF807301E4C002210214B
:104240002046FDF7B6F8642301220DF107011A4854
:10425000FDF767FA012210212046FDF7AAF8802118
:104260000F20FFF7C5FF00212A20FFF7C1FFD8214B
:104270002920FFF7BDFF01212820FFF7B9FFFF210B
:104280002B20FFF7B5FF00212C20FFF7B1FF0F21F6
:104290000C20FFF7ADFF60210846FFF7A9FF602162
:1042A0007020FFF7A5FF04210F20FFF7A1FF02B048
:1042B00010BD00BF00000240440000202DE9F04383
:1042C00083B080460C4617461D46861D3601F6B261
:1042D00000238DF807308DF806308DF80530701CFE
:1042E0000DF10701C0B2FFF735FFB01C0DF106015B
:1042F00000F0FE00FFF72EFF701D0DF10501C0B2AA
:10430000FFF728FF9DF8063013F0080F0ED19DF837
:1043100007205B0943EAC20323609DF8053003F0E0
:104320000F033B700636F6B200242EE000238DF812
:1043300003308DF80430F01C0DF10301C0B2FFF71B
:1043400009FF301D01A900F0FC00FFF703FF9DF8F5
:1043500007109DF8062053099B0443EA41531204B9
:1043600002F4403213439DF8032043EA02239DF8F0
:10437000042013432360D0E705F1010930192946D1
:10438000C0B2FFF7E7FE01344D463B78A342F3DCB1
:1043900008F10101C9B20A462C20FFF705FF03B05E
:1043A000BDE8F08310B5FFF7AFFA0A20FFF73EFB38
:1043B0004FF480710548FCF7F5FF054C002120689B
:1043C000FFF7B4FB2068FFF7F3FBEEE700080240BD
:1043D0002C00002010B5FFF797FA0A20FFF726FB04
:1043E0004FF400710548FCF7DDFF054C0021206803
:1043F000FFF79CFB2068FFF7DBFBEEE700080240BD
:104400002C0000200C480D490D4A002302E0D4582E
:10441000C4500433C4188C42F9D30A4A0A4C00230E
:1044200001E013600432A242FBD3FDF772FD00F0FD
:104430000FF8FCF767F9704700000020100000201B
:10444000B845000810000020281A0020FEE70000F0
:1044500070B500260C4D0D4C641BA410A64209D16A
:1044600000F030F800260A4D0A4C641BA410A64246
:1044700005D170BD55F8043B98470136EEE755F875
:10448000043B98470136F2E7B0450008B045000804
:10449000B0450008B44500080A44914200F1FF33DA
:1044A00000D1704710B511F8014B914203F8014F4C
:1044B000F9D110BD03460244934200D1704703F87E
:1044C000011BF9E7F8B500BFF8BC08BC9E46704771
:0C44D000F8B500BFF8BC08BC9E46704761
:1044DC00626C75655377697463685461736B000023
:1044EC00677265656E5377697463685461736B00AA
:1044FC005350494D75746578000000006465666121
:10450C00756C745461736B00FC440008000000006F
:10451C00000000000000000008450008000000003A
:10452C00000000000000000000000000000200007D
:10453C00180000000000000000000000EC4400081F
:10454C00000000000000000000000000000000005F
:10455C000002000018000000000000000000000035
:10456C000000000000000000010203040607080917
:10457C000000000001020304030406080C101820BC
:10458C003000000049444C4500000000546D72514D
:0C459C0000000000546D72205376630094
:0845A80008BCFF7F01000000C8
:0445B0006501000899
:0445B40041010008B9
:1045B800010000001000000068FF1F00AAAAAAAAB4
:0400000508004405A6
:00000001FF
