:020000040800F2
:100000000040012021630008B5060008B70600087B
:10001000B9060008BB060008BD0600080000000085
:100020000000000000000000000000004150000837
:10003000BF06000800000000E1500008255100083C
:100040006963000869630008696300086963000860
:100050006963000869630008696300086963000850
:100060006963000869630008696300086963000840
:100070006963000869630008696300086963000830
:100080006963000869630008696300086963000820
:10009000C106000869630008696300086963000815
:1000A0006963000869630008696300086963000800
:1000B000D1060008696300086963000869630008E5
:1000C00069630008696300086963000869630008E0
:1000D00069630008696300086963000869630008D0
:1000E00069630008696300086963000869630008C0
:1000F0006963000800000000696300086963000884
:10010000696300086963000869630008696300089F
:100110006963000869630008696300080000000063
:1001200069630008000000000000000000000000FB
:0C01300000000000000000005FF808F173
:1001400010B5054C237833B9044B13B10448AFF311
:1001500000800123237010BDE0000020000000009B
:10016000DC6300080C4B43B10C4810B50C49AFF3ED
:1001700000800C48036823B910BD0A48036833B9EE
:100180007047094B002BF7D0BDE810401847064BCD
:10019000002BF5D0184700BF00000000DC6300080A
:1001A000E4000020E00000200000000053B94AB93C
:1001B000002908BF00281CBF4FF0FF314FF0FF306F
:1001C00000F07AB9ADF1080C6DE904CE00F006F844
:1001D000DDF804E0DDE9022304B070472DE9F047C3
:1001E0008C460E460446089D002B50D18A42174685
:1001F0006CD9B2FA82FEBEF1000F0BD0CEF1200C0A
:1002000001FA0EF620FA0CFC02FA0EF74CEA060C84
:1002100000FA0EF43A0CBCFBF2F9BBB202FB19CCAB
:1002200009FB03FA4FEA144848EA0C46B2450AD9DA
:10023000F61909F1FF3180F02581B24540F22281A3
:10024000A9F102093E44A6EB0A06B6FBF2F002FB56
:10025000106600FB03F3A4B244EA0644A34209D9A2
:10026000E41900F1FF3280F00B81A34240F20881D3
:1002700002383C440021E41A40EA0940002D62D0D3
:10028000002324FA0EF42C606B60BDE8F0878B42EB
:1002900007D9002D55D0002185E841000846BDE86A
:1002A000F087B3FA83F1002940F08F80B34202D384
:1002B000824200F2FC80841A66EB03060120B446F9
:1002C000002D40D085E81010BDE8F08712B9012755
:1002D000B7FBF2F7B7FA87FEBEF1000F35D1012167
:1002E000F61B4FEA174C1FFA87F8B6FBFCF20CFB23
:1002F000126608FB02F0230C43EA0646B04207D917
:10030000F61902F1FF3302D2B04200F2D2801A464F
:10031000361AB6FBFCF00CFB106608FB00F8A3B223
:1003200043EA0644A04507D9E41900F1FF3302D29D
:10033000A04500F2B9801846A4EB080440EA024048
:100340009CE729462846BDE8F08707FA0EF7CEF16C
:10035000200326FA03F24FEA174CB2FBFCF11FFA16
:1003600087F80CFB112206FA0EF620FA03F301FBC4
:1003700008F933431E0C46EA0246B14500FA0EF472
:1003800009D9F61901F1FF3280F08C80B14540F2B5
:10039000898002393E44A6EB0906B6FBFCF00CFB53
:1003A000106200FB08F99EB246EA0246B14507D941
:1003B000F61900F1FF3371D2B1456FD902383E44CE
:1003C000A6EB090640EA01418FE7C1F1200722FAB6
:1003D00007F88B4048EA030326FA07F44FEA134E66
:1003E000B4FBFEF91FFA83FC0EFB19448E4020FA81
:1003F00007F809FB0CFA48EA06084FEA184646EAED
:100400000444A24502FA01F200FA01F608D9E41800
:1004100009F1FF3044D2A24542D9A9F102091C4496
:10042000A4EB0A04B4FBFEF00EFB104400FB0CFC32
:100430001FFA88F848EA0444A44507D9E41800F1F3
:10044000FF3E29D2A44527D902381C4440EA09407E
:10045000A0FB0289A4EB0C0CCC45C246CE4615D3BA
:1004600012D055B1B6EB0A036CEB0E0606FA07F78D
:10047000CB401F43CE402F606E600021BDE8F08767
:100480001046F7E68946DEE64645EAD2B8EB020AB0
:1004900069EB030E0138E4E77046D7E718468FE7AB
:1004A0008146BDE7114676E702383C4444E70846FA
:1004B00006E7023A3E442BE7704700BF2DE9F041C2
:1004C0008AB00024059406940794089409942E4B4E
:1004D000DA6942F02002DA61DA6902F02002019260
:1004E000019ADA6942F00102DA61DA6902F0010286
:1004F0000292029ADA6942F00402DA61DA6902F0E1
:1005000004020392039ADA6942F00202DA61DB69BB
:1005100003F002030493049BDFF8788022464FF433
:100520000471404602F086FE184F224641F6F071F3
:10053000384602F07FFE164E22464FF20741304603
:1005400002F078FE4FF40473059301250695079495
:10055000089405A9404602F089FD41F6F073059321
:1005600006950794089405A9384602F07FFD4FF2DE
:100570000743059306950794089405A9304602F0B1
:1005800075FD0AB0BDE8F081003802400008024065
:10059000000402400000024008B500F03BF90120D1
:1005A00004F0B6FBFBE708B50368B3F1804F00D059
:1005B00008BD02F0EFF8FBE772B6FEE708B50D489C
:1005C0000D4B03604FF48273436000238360C3606C
:1005D000036143614FF400728261C361036243624D
:1005E00083620A23C36202F07DFE00B908BDFFF7F3
:1005F000E3FF00BF281F00200030014000B593B08A
:100600003422002105A805F0E0FE002300930193A9
:10061000029303930493184A136823F4C05343F4DA
:1006200000631360032305930123069308931023AB
:10063000099302230E934FF480330F934FF48023DA
:1006400010934FF48003119305A802F015F970B9C7
:100650000F23009301230193002102910391049140
:10066000684602F0E1FB20B913B05DF804FBFFF728
:10067000A3FFFFF7A1FF00BF0070004008B502F024
:1006800079F8FFF7BBFFFFF719FFFFF797FF04F0BB
:1006900081FA054A0021054804F0C4FA044B1860A9
:1006A00004F09AFAFEE700BFF46300089905000819
:1006B000241F0020FEE7FEE7FEE7FEE7FEE77047A7
:1006C00008B5024800F0D4FF08BD00BF5C2400203C
:1006D00008B5024802F006FF08BD00BF801F0020D9
:1006E00000B585B0124B5A6A42F000425A625A6A0B
:1006F00002F000420192019A1A6A42F001021A6263
:100700001A6A02F001020292029A5A6A42F0805278
:100710005A625B6A03F080530393039B00220F210C
:100720006FF0010002F09EFD05B05DF804FB00BF14
:100730000038024000B589B0002303930493059369
:10074000069307930268134B9A4202D009B05DF8F2
:1007500004FB03F584331A6A42F480521A621A6A5F
:1007600002F480520192019ADA6942F00102DA61E0
:10077000DB6903F001030293029BE023039302234E
:100780000493032306930523079303A9024802F069
:100790006DFCDBE7003001400000024000B589B08D
:1007A000002201461C2002F05DFD1C2002F08CFDA1
:1007B000154B5A6A42F001025A625B6A03F0010368
:1007C0000193019B02A903A802F032FC02F020FC75
:1007D0000E4BA3FB00239B0C013B0D484FF08042C6
:1007E000026040F2E732C26043600023036183602D
:1007F00002F01DFE18B1012009B05DF804FB0448A9
:1008000002F038FEF8E700BF0038024083DE1B43E9
:10081000801F002008B500220F49104804F03EFD5B
:1008200070B90F490D4804F050FD60B90D490B48EF
:1008300005F070FD50B9094804F04EFD48B908BDF7
:10084000FFF7BAFEEDE7FFF7B7FEEFE7FFF7B4FEFD
:10085000F1E7FFF7B1FEF2E700000020C01F002023
:100860007C0000205000002012230B8000487047BD
:100870001C00002004230B8000487047300000203B
:100880000023934216D230B40BE0373401F8134002
:1008900000015C00013400250D550133DBB29342A9
:1008A00006D2040F092CF0D8303401F81340EFE7DA
:1008B00030BC70477047000038B50A4B18680433E5
:1008C0001C6804331B68C01800D138BD064D0822CF
:1008D000A91CFFF7D5FF042205F112012046FFF7FE
:1008E000CFFFF2E7D000F81F3400002008B51A232C
:1008F0000B80FFF7E1FF014808BD00BF3400002076
:1009000008B50A4628B10549054805F03DF90348F0
:1009100008BD0249024805F037F9F8E75C220020DB
:100920005464000810B5044C0A462146034805F0FB
:100930002BF9204610BD00BF5C2200204064000857
:1009400008B50A4628B10549054805F01DF90348D0
:1009500008BD0249024805F017F9F8E75C220020BB
:100960002464000808B50A4628B10549054805F081
:100970000BF9034808BD0249024805F005F9F8E7FC
:100980005C2200203064000800207047002070477F
:1009900000207047002070470020704700207047FB
:1009A00018B1022803D002207047002070470120B0
:1009B00070470000012905D0054A536823F0010360
:1009C00053607047024A536843F001035360704715
:1009D0000000014002680E4B9A4200D0704700B5FB
:1009E00083B003F5EE335A6A42F400025A625B6A3E
:1009F00003F400030193019B00220521142002F05F
:100A000031FC142002F060FC03B05DF804FB00BF71
:100A1000005C004008B500F52C71D0F8E80204F045
:100A200080FC08BD08B501EB8102D3000344D3F874
:100A30007C21D0F8E80204F0A1FC08BD08B501EB68
:100A40008102D3000344DA6BD0F8E80204F0E0FC42
:100A500008BD08B5D0F8E80204F07EFD08BD10B569
:100A600004468368022B01D0FFF7A6FD0121D4F8CC
:100A7000E80204F05FFDD4F8E80204F033FD10BD95
:100A800010B50446D0F8E80204F057FDA36923B17D
:100A9000024A136943F00603136110BD00ED00E044
:100AA00008B5D0F8E80204F051FD08BD10B50446C1
:100AB0001248C0F8E842C4F89802114B03600823BA
:100AC000436002238360036100238361036200F0BB
:100AD00003F978B9182300221146D4F8980200F0DF
:100AE00061FF582300228021D4F8980200F05AFFB9
:100AF000002010BDFFF760FDECE700BF5C24002084
:100B0000005C004008B5D0F8980200F049F9FFF702
:100B100047FF08BD08B5D0F8980200F05AF9FFF772
:100B20003FFF08BD10B51C4613462246D0F8980278
:100B300000F04AFEFFF734FF10BD08B5D0F8980268
:100B400000F0C2FEFFF72CFF08BD08B5D0F89802F0
:100B500000F0EEFEFFF724FF08BDD0F8983211F048
:100B6000800F08D101F07F0101EB8101CA0013441D
:100B700093F86A01704701F07F01013101EB8101B7
:100B8000CA0013449878704708B5D0F8980200F06E
:100B90005BFDFFF705FF08BD08B5D0F8980200F02F
:100BA0006EFEFFF7FDFE08BD08B5D0F8980200F014
:100BB00045FEFFF7F5FE08BD00487047FC00002029
:100BC000704770B512F4804F43D00468B4F85030C9
:100BD0009BB20D7803EBC503023304EB4303B3F878
:100BE0000044C4F309048B69A34228D31B1B8B6107
:100BF0008B697BB9066836F825309BB223F48043B5
:100C000023F0700383F4005343F4004343F0800364
:100C100026F8253012F0400F0ED002680D7832F819
:100C200025309BB223F4E04323F0700343F40043E8
:100C300043F0C00322F8253024B9204670BD0023BC
:100C40008B61D5E723460A894969006801F07AFD7E
:100C5000F3E70468B4F850309BB20D7803EBC5039A
:100C6000063304EB4303B3F80044C4F309048B696F
:100C7000A3422ED31B1B8B618B697BB9066836F8A8
:100C800025309BB223F4804323F0700383F4005398
:100C900043F4004343F0800326F8253012F0400F60
:100CA0000ED102680D7832F825309BB223F4E04370
:100CB00023F0700343F4004343F0C00322F82530CF
:100CC000002CBAD023464A894969006801F03AFDF0
:100CD000B3E700238B61CFE700285FD0F0B587B082
:100CE000044690F8A9323BB1032384F8A932206866
:100CF00000F07FFE00231FE080F8A832FFF76AFEB5
:100D0000F2E7581C81000D18EA00224401255570B5
:100D10000D18EA00A3549D00EE18F2002244D38679
:100D20000144CE0026440021F1709163D1632B442D
:100D3000DA0022441164C3B26568AB42E1D30023F8
:100D400015E09800C118CA002244002182F86911F8
:100D500082F8683182F86B11C2F87811C2F87C1100
:100D6000C218D0002044C0F880110133DBB29D428C
:100D7000E7D8254655F8107B6E460FCD0FC62B6879
:100D80003360231D0ECB384600F03DFE002084F872
:100D90002400012384F8A93207B0F0BD0120704778
:100DA00038B590F8A832012B01D1022038BD044695
:100DB000012580F8A852006800F012FE294620465E
:100DC000FFF7F8FD206801F051F8002084F8A80230
:100DD00038BD90F8A832012B01D10220704710B520
:100DE0000446012380F8A832006800F002FE0021CA
:100DF0002046FFF7DFFD206801F03AF8002084F874
:100E0000A80210BD70B505460C46164612F0400FFC
:100E100000F00D810268B2F850309BB2097803EB04
:100E2000C103023302EB4303B3F80024C2F3090207
:100E3000A369934252D99B1AA361A369002B6AD17B
:100E40006378002B4DD12B68B3F8502092B2134435
:100E500003EB0111B1F804349BB223F4F8439BB2C5
:100E6000A1F80434B1F804346FEA43436FEA534302
:100E70009BB2A1F804342B686278002A3ED1B3F803
:100E8000502092B21344227803EB0213B3F80C24DF
:100E900092B222F4F84292B2A3F80C24B3F80C24D4
:100EA0006FEA42426FEA524292B2A3F80C242178D0
:100EB0002846FFF7C3FD16F4804F41D02A682178F9
:100EC00032F821309BB223F4E04323F0700343F463
:100ED000404343F0800322F8213031E00023A36136
:100EE000ABE7012BC7D12B68B3F8502092B2134463
:100EF00003EB01110023A1F80434BCE7012AD6D189
:100F0000B3F8502092B21344227803EB021300226C
:100F1000A3F80C24CBE716F4804F0DD0286830F8E6
:100F200021309BB223F4E04323F0700343F44043A9
:100F300043F0800320F8213094F82430012B12D0A4
:100F40002A68217832F821309BB223F4E04323F061
:100F5000400383F0300343F4004343F0800322F85E
:100F60002130002070BD636913446361E369134459
:100F7000E361216A236999421FD3C91A2162627809
:100F8000002A3FD12A68B2F8501089B20A44217869
:100F900002EB0112EBB9B2F8041489B221F4F84162
:100FA00089B2A2F80414B2F804146FEA41416FEA5E
:100FB000514189B2A2F8041426E021B9002384F833
:100FC00024301346DBE7002384F8243023620B46E9
:100FD000D5E73E2B09D8590813F0010F00D0013195
:100FE000890289B2A2F804140EE0590913F01F0F08
:100FF00000D101396FEAC1616FEA514189B2A2F8AB
:10100000041401E0012A06D09BB222896169286894
:1010100000F034FF94E72A68B2F8501089B20A440D
:10102000217802EB011299B2A2F80414ECE70268ED
:10103000B2F850309BB2097803EBC103063302EBE0
:101040004303B3F80024C2F30902A369934253D3C4
:101050009B1AA361A369002B6BD16378002B4ED13F
:101060002B68B3F8502092B2134403EB0111B1F88E
:1010700004349BB223F4F8439BB2A1F80434B1F8D2
:1010800004346FEA43436FEA53439BB2A1F804343C
:101090002B686278002A3FD1B3F8502092B21344F3
:1010A000227803EB0213B3F80C2492B222F4F84234
:1010B00092B2A3F80C24B3F80C246FEA42426FEA10
:1010C000524292B2A3F80C2421782846FFF7B6FCCE
:1010D00016F4804F7FF434AF2A68217832F821303B
:1010E0009BB223F4E04323F0700343F4404343F006
:1010F000800322F8213023E70023A361AAE7012B14
:10110000C6D12B68B3F8502092B2134403EB0111FF
:101110000023A1F80434BBE7012AD5D1B3F850204D
:1011200092B21344227803EB02130022A3F80C249A
:10113000CAE716F4804F0DD1286830F821309BB2F1
:1011400023F4E04323F0700343F4404343F080036F
:1011500020F8213094F82430012B7FF4F1AE63693C
:1011600013446361E3691344E361216A236999428B
:101170001FD3C91A21622A68617800293ED1B2F8CA
:10118000501089B20A44217802EB0112EBB9B2F88F
:101190000C1489B221F4F84189B2A2F80C14B2F807
:1011A0000C146FEA41416FEA514189B2A2F80C1464
:1011B00026E021B9002384F824301346DBE700231E
:1011C000236284F824300B46D5E73E2B09D8590812
:1011D00013F0010F00D00131890289B2A2F80C147A
:1011E0000EE0590913F01F0F00D101396FEAC161F8
:1011F0006FEA514189B2A2F80C1401E0012906D02E
:101200009BB262896169286800F038FE98E6B2F8FE
:10121000501089B20A44217802EB011299B2A2F867
:101220000C14EDE72DE9F041044654E003889BB22D
:1012300023F4E14323F070036FEA43436FEA53431F
:101240009BB203802268B2F850309BB294F8281009
:1012500003EBC103023302EB4303B3F80034C3F3DF
:1012600009036364E26B1344E36300212046FFF744
:10127000E5FB94F8243073B3236C63BB226894F8C5
:10128000243043F08003A2F84C30002384F824304B
:1012900021E0B0F850309BB294F8682103EBC20310
:1012A000063300EB4303B3F80034C3F30903C4F877
:1012B0008431B4F86E2104F52C7101F043FA2268F0
:1012C000138823F070031B051B0D43F0800313806C
:1012D0002046FFF79FFB2068B0F8443013F4004F1E
:1012E00000F0AF81B0F844309BB213F00F057BD112
:1012F00013F0100F9AD003889BB213F4006FC8D17B
:1013000013F4004FE7D0038823F070031B051B0D77
:1013100043F0800303802068B0F850309BB294F80B
:10132000682103EBC203063300EB4303B3F8003438
:10133000C3F30903C4F884318BB1D4F87C1171B1C3
:10134000B4F86E2101F0FEF9D4F88421D4F87C3190
:101350001344C4F87C3100212046FFF763FB236867
:101360001A8812F4006FB6D1B3F8502092B2134429
:10137000D4F87821FAB9B3F80C2492B222F4F842E6
:1013800092B2A3F80C24B3F80C246FEA42426FEA3D
:10139000524292B2A3F80C24226813889BB223F421
:1013A000804323F0700383F4405343F4004343F03D
:1013B000800313808FE73E2A09D8510812F0010FED
:1013C00000D001318A0292B2A3F80C24E4E751095B
:1013D00012F01F0F00D101396FEAC1626FEA524269
:1013E00092B2A3F80C24D7E730F82560B6B216F411
:1013F000004F26D116F0800F3FF46DAF681C8200BD
:101400001318D9002144276837F825309BB223F4FC
:10141000E14323F070036FEA43436FEA53439BB207
:1014200027F82530CB78032B00F0CB80002B00F081
:10143000C880022B00F0C18032462046FFF7E2FC54
:1014400049E730F8253023F070031B051B0D43F0EE
:10145000800320F82530AB005A194FEAC2084246F3
:1014600008F5B478A044224492F87431002B40D19E
:101470002068B0F850309BB205EB8501CA001146D8
:10148000224492F8682103EBC203063300EB4303C6
:10149000B3F80074C7F3090717BBAA002A44D300A6
:1014A0002344D3F884213A44C3F88421D3F87C211F
:1014B0003A44C3F87C21D3F880313BB105EB850277
:1014C000D3002344D3F878319F4271D205EB8502D3
:1014D000D300234493F868112046FFF7A3FA89E765
:1014E00021443B46B1F86E21D1F87C1101F02AF974
:1014F000D3E705EB8502D300234493F86B31022B2D
:1015000035D02168AB002B44DA00224492F8680100
:1015100031F820309BB223F4E04323F0700343F40E
:10152000004343F0C00321F82030206892F868217E
:1015300030F8223013F4804F20D0B0F850309BB2F6
:1015400003EBC203023300EB4303B3F80074C7F3A9
:101550000907002FA1D0AB002B44D90021443B4602
:10156000B1F87021D1F87C1101F0ECF895E7324622
:1015700041462046FFF725FB07468EE7B0F850307E
:101580009BB203EBC203063300EB4303B3F80074D2
:10159000C7F30907002F80D0AB002B44D9002144AA
:1015A0003B46B1F87221D1F87C1101F0CBF874E719
:1015B0004146206800F077FC1CE716F4807F7FF43A
:1015C0003BAF2068B0F850309BB26A1C02EB82023D
:1015D000D600A25D03EBC203023300EB4303B3F872
:1015E0000034C3F3090305EB8506F20016462244D6
:1015F000126C9A4211D92644D21A326405EB850640
:10160000F2002244126C7AB9013505EB8505EB0036
:10161000E15C2046FFF712FA5DE605EB8506F20075
:10162000224400261664E9E7AE007719FA00224446
:10163000D76B1F44D763556C2B44536400F033FCC5
:1016400049E60020BDE8F08190F8A832012B01D1D5
:101650000220704710B50446012380F8A83280F8B4
:101660002410006800F0FCFB002084F8A80210BDE4
:1016700010B50446006800F0FDFB10F4004F45D1A2
:10168000206800F0F7FB10F4806F43D1206800F071
:10169000F1FB10F4804F08D02268B2F844309BB2BE
:1016A00023F480439BB2A2F84430206800F0E2FBB0
:1016B00010F4005F08D02268B2F844309BB223F4E3
:1016C00000539BB2A2F84430206800F0D3FB10F422
:1016D000805F30D1206800F0CDFB10F4006F49D15D
:1016E000206800F0C7FB10F4007F60D1206800F094
:1016F000C1FB10F4807F08D02268B2F844309BB25E
:1017000023F480739BB2A2F8443010BD2046FFF74B
:1017100089FDB5E72268B2F844309BB223F48063B8
:101720009BB2A2F844302046FFF799F900212046E9
:10173000FFF78AFFAAE72268B2F840309BB223F095
:1017400004039BB2A2F840302268B2F840309BB24A
:1017500023F008039BB2A2F840302046FFF7A0F91F
:101760002268B2F844309BB223F480539BB2A2F8B3
:101770004430AFE72268B2F840309BB243F0080330
:10178000A2F840302268B2F844309BB223F40063E0
:101790009BB2A2F844302268B2F840309BB243F0CA
:1017A0000403A2F840302046FFF76AF998E7226860
:1017B000B2F844309BB223F400739BB2A2F84430D9
:1017C0002046FFF746F991E7F8B511F0800F1CD1DC
:1017D00001F00705AE007719FC00274604F5B47444
:1017E00004440744002587F8695101F0070121707E
:1017F0002261E370627802B1E181022B0FD090F890
:10180000A832012B0ED10220F8BD01F007056E1C95
:10181000B500AF19FC00044401256570E5E700231D
:101820002371ECE70546012380F8A83221460068C1
:1018300000F0FCF8002085F8A802F8BDF8B501F02A
:101840000705AE007119CC0004F5B47401197719BD
:10185000FC000444C4F87C21C4F880310023C4F89F
:10186000843184F8693184F8685125B1006800F04A
:101870001AFB0020F8BD006800F015FBF9E7F8B589
:1018800001F00706771CBD00EC19E10001444FEAA6
:10189000860EB6444FEACE040444E2632364012278
:1018A00084F84C20A36400236364EC19E3001C4615
:1018B0004A70065526B1006800F0F5FA0020F8BD20
:1018C000006800F0F0FAF9E738B501F00704436862
:1018D0009C422BD811F0800F14D18A005518EB00D0
:1018E0001D4603F5B47303442A460244002182F8DE
:1018F000691101229A701C7090F8A822012A09D15E
:10190000022038BD651CAA005119CB0003440122F6
:101910005A70EEE70446012280F8A82219460068B2
:1019200000F028FA002084F8A80238BD012038BD54
:1019300038B501F00F0243689A4231D811F0800F98
:1019400018D101F00704A3001D19EA00154602F59D
:10195000B47202442C460444002384F86931002305
:10196000937001F00703137090F8A832012B0BD18C
:10197000022038BD01F007035C1CA3001D19EA001A
:10198000024401235370EAE70446012380F8A83299
:101990001146006800F013FA002084F8A80238BD50
:1019A000012038BD10B411F0800F0FD001F00701F5
:1019B000013101EB8101CC00204472B1012202739C
:1019C00003811B0C4381002010BC704701EB810197
:1019D000CC0004F5B4742044EFE70273C380F2E74F
:1019E0000023A0F844304FF43F42A0F840201846AE
:1019F0007047B0F8403023F47C535B045B0CA0F8D4
:101A000040300020704784B010B402AC84E80E006F
:101A10000123A0F840300023A0F84030A0F8443063
:101A2000A0F85030184610BC04B0704730B40346DC
:101A30000C7830F8242092B222F4EC4222F07002AA
:101A400092B2C87803285CD8DFE800F04F57025301
:101A5000002048F280052A4323F824200C7833F82C
:101A6000242092B222F4E04222F0700222432A4360
:101A700023F824200A7B002A40F0B9804A78002A03
:101A800050D0B3F8502092B21A440C7802EB0412F2
:101A9000CC8824F00104A4B2A2F800440C7833F8F6
:101AA000242012F0400F0CD033F8242092B222F4FC
:101AB000E04222F0700242F4004242F0C00223F8F9
:101AC0002420CA78012A1ED0097833F8212092B246
:101AD00022F4E04222F0400282F0200242F400426E
:101AE00042F0800223F8212066E042F400720020D8
:101AF000AFE742F4C0620020ABE742F4806200200E
:101B0000A7E70120A5E7097833F8212092B222F453
:101B1000E04222F0400242F4004242F0800223F808
:101B2000212049E0B3F8502092B21A440C7802EB1D
:101B30000412CC8824F00104A4B2A2F80844B3F83B
:101B4000502092B21A440C7802EB04120C69ACBB20
:101B5000B2F80C44A4B224F4F844A4B2A2F80C44A1
:101B6000B2F80C446FEA44446FEA5444A4B2A2F8B9
:101B70000C440C7833F8242012F4804F0CD033F846
:101B8000242092B222F4E04222F0700242F4404259
:101B900042F0800223F82420097833F8212092B201
:101BA00022F4804222F0700282F4405242F4004259
:101BB00042F0800223F8212030BC70473E2C09D827
:101BC000650814F0010F00D00135AD02ADB2A2F8E6
:101BD0000C54CEE7650914F01F0F00D1013D6FEAE8
:101BE000C5646FEA5444A4B2A2F80C44C1E70C786F
:101BF00033F8242092B222F4E04222F0700242F440
:101C0000014242F0800223F82420B3F8502092B21F
:101C10001A440C7802EB04120C8924F00104A4B2DB
:101C2000A2F80044B3F8502092B21A440C7802EBA8
:101C300004124C8924F00104A4B2A2F808444A78A2
:101C4000002A40D10C7833F8242012F4804F0CD0B5
:101C500033F8242092B222F4E04222F0700242F4DF
:101C6000404242F0800223F824200C7833F82420EC
:101C700012F0400F0CD033F8242092B222F4E0424C
:101C800022F0700242F4004242F0C00223F8242005
:101C90000D7833F8252092B222F4804222F07002AF
:101CA00082F4405248F28004224323F82520097828
:101CB00033F8212092B222F4E04222F04002224383
:101CC00023F8212078E70C7833F8242012F4804F91
:101CD0000CD033F8242092B222F4E04222F07002B9
:101CE00042F4404242F0800223F824200C7833F87A
:101CF000242012F0400F0CD033F8242092B222F4AA
:101D0000E04222F0700242F4004242F0C00223F8A6
:101D10002420CA78012A1ED00C7833F8242092B2ED
:101D200022F4E04222F0400282F0200242F400421B
:101D300042F0800223F82420097833F8212092B25F
:101D400022F4804222F0700242F4004242F080020B
:101D500023F8212030E70C7833F8242092B222F4C3
:101D6000E04222F0400242F4004242F0800223F8B6
:101D70002420E1E74B788BB90A7830F822309BB207
:101D800023F4804323F0700383F4805343F400432F
:101D900043F0800320F82230002070470A7830F8A2
:101DA00022309BB223F4E04323F0400383F010037E
:101DB00043F4004343F0800320F82230ECE70B7B30
:101DC000002B4BD14B7833B30A7830F8223013F024
:101DD000400F0CD030F822309BB223F4E04323F0C4
:101DE000700343F4004343F0C00320F82230CB7863
:101DF000012B33D00A7830F822309BB223F4E04331
:101E000023F0400383F0200343F4004343F08003B6
:101E100020F8223022E00A7830F8223013F4804F84
:101E20000CD030F822309BB223F4E04323F070034F
:101E300043F4404343F0800320F822300A7830F81E
:101E400022309BB223F4804323F0700383F4405389
:101E500043F4004343F0800320F822300020704711
:101E600011B98023A0F84C30002070470020704743
:101E700000207047B0F8440080B2704701335B081F
:101E800000EB420202F5806263B110B40C7848782E
:101E900044EA002422F8044B0231013B002BF5D127
:101EA00010BC7047704770B54B78012B37D00A7B58
:101EB000002A40F026838B690A69934240F204832A
:101EC0009B1A8B61B0F850309BB203440C7803EB43
:101ED0000413002A40F0FC82B3F80C2492B222F4DE
:101EE000F84292B2A3F80C24B3F80C246FEA4242F1
:101EF0006FEA524292B2A3F80C240A7830F82230EA
:101F00009BB223F4804323F0700383F4405343F4E3
:101F1000004343F0800320F82230002070BD8E691A
:101F20000B699E4200D91E460C4605460A7B002AD4
:101F300039D0CA78022A57D00A7830F822309BB2BA
:101F400023F4E04323F0700343F4014343F08003A0
:101F500020F822300B6A9B1B0B620B7830F8232091
:101F600012F0400F00F024824A78002A40F0C88125
:101F7000B0F8502092B2024402EB0313002E40F05E
:101F8000A681B3F80C2492B222F4F84292B2A3F8DC
:101F90000C24B3F80C246FEA42426FEA524292B228
:101FA000A3F80C24AEE1B6B23346CA884969FFF7FC
:101FB00065FFB5F850309BB22B44227803EB021337
:101FC000A3F80464227835F822309BB223F4E0436E
:101FD00023F0400383F0300343F4004343F08003D5
:101FE00025F82230002070BD0A6A934280F05281A9
:101FF0000A7830F822309BB223F4E04323F07003D8
:1020000043F4014343F0800320F822300B6A9B1B0A
:102010000B620B7830F8232012F0400F00F09D8007
:102020004A788ABBB0F8502092B2024402EB031304
:102030008EB9B3F80C2492B222F4F84292B2A3F80B
:102040000C24B3F80C246FEA42426FEA524292B277
:10205000A3F80C241AE03E2E09D8720816F0010FDE
:1020600000D00132920292B2A3F80C240EE0720961
:1020700016F01F0F00D1013A6FEAC2626FEA5242B6
:1020800092B2A3F80C2401E0012A2BD0B3B26289EA
:1020900061692846FFF7F2FE636933446361236A8E
:1020A0002269934228D99B1B23626378002B40D17D
:1020B000B5F850309BB22B44227803EB0213FEB9E3
:1020C000B3F8042492B222F4F84292B2A3F80424A2
:1020D000B3F804246FEA42426FEA524292B2A3F884
:1020E000042428E0B0F8502092B2024402EB03131B
:1020F000B2B2A3F80C24C9E7002222621E46D4E73C
:102100003E2E09D8720816F0010F00D0013292025B
:1021100092B2A3F804240EE0720916F01F0F00D14A
:10212000013A6FEAC2626FEA524292B2A3F8042403
:1021300001E0012B06D0B3B2228961692846FFF77E
:102140009DFE3FE7B5F850309BB22B44227803EB5D
:102150000213B2B2A3F80424EDE74A788ABBB0F8C0
:10216000502092B2024402EB03138EB9B3F8042458
:1021700092B222F4F84292B2A3F80424B3F80424F1
:102180006FEA42426FEA524292B2A3F804241AE084
:102190003E2E09D8720816F0010F00D001329202CB
:1021A00092B2A3F804240EE0720916F01F0F00D1BA
:1021B000013A6FEAC2626FEA524292B2A3F8042473
:1021C00001E0012A2BD0B3B2228961692846FFF7CA
:1021D00055FE636933446361236A2269934228D9B7
:1021E0009B1B23626378002B40D1B5F850309BB223
:1021F0002B44227803EB0213FEB9B3F80C2492B2FD
:1022000022F4F84292B2A3F80C24B3F80C246FEA3B
:1022100042426FEA524292B2A3F80C2428E0B0F88E
:10222000502092B2024402EB0313B2B2A3F804248A
:10223000C9E7002222621E46D4E73E2E09D8720862
:1022400016F0010F00D00132920292B2A3F80C24D2
:102250000EE0720916F01F0F00D1013A6FEAC26258
:102260006FEA524292B2A3F80C2401E0012B06D08F
:10227000B3B2628961692846FFF700FEA2E6B5F8AD
:1022800050309BB22B44227803EB0213B2B2A3F876
:102290000C24EDE7097830F821309BB223F4E243B7
:1022A00023F0700343F4004343F0800320F821300F
:1022B000B0F8501089B20144237801EB031193B2B6
:1022C000A1F8043422896169FFF7D8FD7AE63E2E31
:1022D00009D8720816F0010F00D00132920292B2B2
:1022E000A3F80C240EE0720916F01F0F00D1013A7A
:1022F0006FEAC2626FEA524292B2A3F80C2401E084
:10230000012A26D0B3B2628961692846FFF7B6FD7B
:10231000636933446361236A2269934223D99B1B17
:102320002362002E3FF44EAE63786BBBB5F850309D
:102330009BB22B44227803EB02133E2E17D872086F
:1023400016F0010F00D00132920292B2A3F80424D9
:102350001CE0B0F8502092B2024402EB0313B2B278
:10236000A3F80C24CEE7002222621E46D9E77209A8
:1023700016F01F0F00D1013A6FEAC2626FEA5242B3
:1023800092B2A3F8042401E0012B06D0B3B2228953
:1023900061692846FFF772FD14E6B5F850309BB22C
:1023A0002B44227803EB0213B2B2A3F80424EDE726
:1023B0004A788ABBB0F8502092B2024402EB031371
:1023C0008EB9B3F8042492B222F4F84292B2A3F880
:1023D0000424B3F804246FEA42426FEA524292B2F4
:1023E000A3F804241AE03E2E09D8720816F0010F53
:1023F00000D00132920292B2A3F804240EE07209D6
:1024000016F01F0F00D1013A6FEAC2626FEA524222
:1024100092B2A3F8042401E0012A26D0B3B22289A3
:1024200061692846FFF72AFD636933446361236AC3
:102430002269934223D99B1B2362002E3FF4C2AD35
:1024400063786BBBB5F850309BB22B44227803EB1A
:1024500002133E2E17D8720816F0010F00D0013279
:10246000920292B2A3F80C241CE0B0F8502092B271
:10247000024402EB0313B2B2A3F80424CEE7002215
:1024800022621E46D9E7720916F01F0F00D1013AE9
:102490006FEAC2626FEA524292B2A3F80C2401E0E2
:1024A000012B06D0B3B2628961692846FFF7E6FCCA
:1024B00088E5B5F850309BB22B44227803EB021329
:1024C000B2B2A3F80C24EDE700228A611A46F9E4BF
:1024D0003E2A09D8540812F0010F00D00134A4029A
:1024E000A4B2A3F80C4408E5540912F01F0F00D160
:1024F000013C6FEAC4646FEA5444A4B2A3F80C44EC
:10250000FBE4CA78022A04D0012A00F09780012057
:1025100070BDCBB9B0F850309BB203440A7803EBDE
:1025200002130A6972BBB3F8042492B222F4F8428F
:1025300092B2A3F80424B3F804246FEA42426FEA8B
:10254000524292B2A3F804244B78002B4CD1B0F83D
:1025500050309BB203440A7803EB02130A6952BB62
:10256000B3F80C2492B222F4F84292B2A3F80C24ED
:10257000B3F80C246FEA42426FEA524292B2A3F8D7
:102580000C2433E03E2A09D8540812F0010F00D081
:102590000134A20292B2A3F80424D5E7540912F040
:1025A0001F0F00D1013C6FEAC4626FEA524292B23F
:1025B000A3F80424C8E73E2A09D8540812F0010FF2
:1025C00000D00134A20292B2A3F80C240EE0540908
:1025D00012F01F0F00D1013C6FEAC4626FEA524251
:1025E00092B2A3F80C2401E0012B1CD0CB69002B84
:1025F0003FF483AC0A7830F8223044F240042340A0
:10260000A34202D0002B7FF478AC30F822309BB28A
:1026100023F4E04323F0700343F4004343F0C0038A
:1026200020F8223069E4B0F850309BB203440A78B5
:1026300003EB02130A8AA3F80C24D7E78C690A6912
:10264000944238D9A41A8C61C3B9B0F850309BB207
:1026500003440C7803EB04138ABBB3F80444A4B21C
:1026600024F4F844A4B2A3F80444B3F804446FEA91
:1026700044446FEA5444A4B2A3F804444B78002BBA
:1026800051D1B0F850309BB203440C7803EB0413E3
:1026900072BBB3F80C2492B222F4F84292B2A3F8BF
:1026A0000C24B3F80C246FEA42426FEA524292B211
:1026B000A3F80C2421E400228A612246C4E73E2AC2
:1026C00009D8540812F0010F00D00134A402A4B2BA
:1026D000A3F80444D2E7540912F01F0F00D1013CC3
:1026E0006FEAC4646FEA5444A4B2A3F80444C5E793
:1026F0003E2A0AD8540812F0010F00D00134A20279
:1027000092B2A3F80C24FFF7F8BB540912F01F0F84
:1027100000D1013C6FEAC4626FEA524292B2A3F860
:102720000C24FFF7EABB012B7FF4E7ABB0F8503085
:102730009BB203440C7803EB041392B2A3F80C246D
:10274000FFF7DBBB30B45D0800EB420202F58062AC
:1027500007E032F8044BA4B20C70240A4C7002312A
:10276000013D002DF5D113F0010F01D013880B703E
:1027700030BC704710B5032000F062FD0F20FEF75B
:102780000DF810B10124204610BD0446FDF7A8FF46
:10279000F9E70000034A1368034909680B44136012
:1027A000704700BF482700206C000020014B1868CC
:1027B000704700BF4827002038B50446FFF7F6FFF2
:1027C0000546B4F1FF3F02D0044B1B681C44FFF7E1
:1027D000EDFF401B8442FAD838BD00BF6C000020DA
:1027E00082B0224B9B6813F0F00F25D11F4B5B6A20
:1027F00013F0805F08D01E4B1B6803F4C053B3F581
:10280000C05F14D0002118E0184A536A43F0805387
:102810005362536A03F080530193019B144B1B686E
:1028200003F4C053516A21F080515162E7E7B0F5DB
:10283000404F11D0002100E0002179B90D4A136802
:1028400023F001030B431360136803F00103994263
:102850000AD0012002B070470121EEE7054A136853
:1028600043F004031360E9E70020F3E70038024077
:1028700000700040003C0240002800F06882F0B583
:1028800083B00446A34B9D6805F00C059E6806F4D2
:102890008036036813F0010F2ED0082D23D00C2DA5
:1028A0001FD06368012B46D0002B4AD1994B1A6880
:1028B00022F480321A601A6822F480221A60636857
:1028C000002B54D0FFF772FF0746924B1B6813F49E
:1028D000003F11D1FFF76AFFC01B6428F5D903231D
:1028E0003FE2002EDDD08B4B1B6813F4003F03D07A
:1028F0006368002B00F02E82236813F0020F59D07A
:10290000042D45D00C2D41D0E368002B00F0B88099
:102910000122814B1A60FFF749FF06467D4B1B6879
:1029200013F0020F40F0A380FFF740FF801B022846
:10293000F4D9032315E2774A136843F48033136014
:10294000BDE7052B09D0734B1A6822F480321A6058
:102950001A6822F480221A60B1E76E4B1A6842F4BA
:1029600080221A601A6842F480321A60A7E7FFF7E3
:102970001DFF0746674B1B6813F4003FBCD0FFF7F1
:1029800015FFC01B6428F5D90323EAE1002EBBD153
:10299000604B1B6813F0020F04D0E368012B01D0D9
:1029A0000123DEE15B4A536823F4F853216943EACB
:1029B00001235360236813F0100F3CD0002D40F02A
:1029C0008580544B1B6813F4007F03D0A369002B50
:1029D00000F0C281206A4F4B5B6803F46043984269
:1029E00060D9FFF7FDFE002840F0B881494A5368DE
:1029F00023F46043216A0B435360536823F07F4301
:102A0000E16943EA01635360236A5B0B5A1C4FF48C
:102A1000004393403F4A9268C2F303123F498A5CE5
:102A2000D3403F4A13603F4B1868FDF7B7FE03469B
:102A3000002840F09681236813F0080F00F09D8075
:102A40006369002B00F087800122374B1A60FFF783
:102A5000ADFE06462F4B5B6B13F0020F40F08D80EE
:102A6000FFF7A4FE801B0228F4D9032379E1294A49
:102A7000536823F4F853216943EA0123536099E72B
:102A80000022254B1A60FFF791FE0646214B1B687A
:102A900013F0020F8ED0FFF789FE801B0228F5D9B4
:102AA00003235EE11B4A536823F4604318435060DC
:102AB000536823F07F43E16943EA01635360206A6E
:102AC000FFF78EFE00289FD001234AE1A3697BB364
:102AD0000122164B1A60FFF769FE06460D4B1B6874
:102AE00013F4007F06D1FFF761FE801B0228F5D9A1
:102AF000032336E1074A536823F46043216A0B43FA
:102B00005360536823F07F43E16943EA01635360F4
:102B100091E700BF0038024000004742D46400083B
:102B200074000020700000208006474220004742C9
:102B300000228F4B1A60FFF739FE06468D4B1B684B
:102B400013F4007F3FF477AFFFF730FE801B0228BD
:102B5000F4D9032305E10022874B1A60FFF726FE14
:102B60000646844B5B6B13F0020F06D0FFF71EFE88
:102B7000801B0228F5D90323F3E0236813F0040F28
:102B80007AD07C4B5B6A13F0805F31D1794B5A6A03
:102B900042F080525A625B6A03F080530193019BBA
:102BA0000126764B1B6813F4807F23D0A368012B8A
:102BB00034D0002B38D16F4B5A6B22F480725A6399
:102BC0005A6B22F480625A63A368002B42D0FFF74D
:102BD000EDFD0746674B5B6B13F4007F4BD1FFF7AE
:102BE000E5FDC01B41F288339842F3D90323B8E0D6
:102BF0000026D6E7614A136843F480731360FFF739
:102C0000D5FD07465D4B1B6813F4807FCED1FFF7DF
:102C1000CDFDC01B6428F5D90323A2E0554A536BB0
:102C200043F480735363CFE7052B09D0514B5A6BA4
:102C300022F480725A635A6B22F480625A63C3E7AB
:102C40004C4B5A6B42F480625A635A6B42F4807266
:102C50005A63B9E7FFF7AAFD0746464B5B6B13F4CF
:102C6000007F08D0FFF7A2FDC01B41F288339842D5
:102C7000F3D9032375E0C6B9636A002B70D00C2D1D
:102C80004CD0022B17D000223D4B1A60FFF78EFD6F
:102C90000446384B1B6813F0007F3DD0FFF786FDDC
:102CA000001B0228F5D903235BE0324A536A23F064
:102CB00080535362E0E70022314B1A60FFF776FD44
:102CC00005462C4B1B6813F0007F06D0FFF76EFD06
:102CD000401B0228F5D9032343E026498B6823F4DF
:102CE0007D03A26AE06A0243206B024313438B60B8
:102CF0000122234B1A60FFF759FD04461D4B1B6848
:102D000013F0007F06D1FFF751FD001B0228F5D913
:102D1000032326E0002324E0002322E0012B23D01C
:102D2000144B9B6803F48031A26A914201D00123C5
:102D300017E003F47012E16A8A4201D0012310E027
:102D400003F44003226B934210D0012309E00123D6
:102D500018467047012304E0012302E0012300E04C
:102D60000023184603B0F0BD0123FAE70023F8E77B
:102D70002000474200380240800647420070004071
:102D800060004742F8B5244B9A6802F00C03082B08
:102D900040D00C2B0CD0042B08D01F4B5868C0F32C
:102DA0004230431C4FF400409840F8BD1B48F8BD2A
:102DB000C2F383431A49C85CC2F381520132164BF5
:102DC0009B6813F4803F06D000231649A0FB010145
:102DD000FDF7ECF9F8BDC6B2002774010025A41B6D
:102DE00065EB0705A90141EA9461A001001B61EBB5
:102DF0000501CB0043EA5073C400A01943EB07015F
:102E00008B0243EA90538402204619460023FDF7C3
:102E1000CDF9F8BD0348F8BD003802400024F400A5
:102E2000EC64000800366E01002800F0DC8070B50C
:102E300004466F4B1B6803F001038B4214D2012937
:102E40000CD06B4A136823F001030B431360136823
:102E500003F00103994207D0012070BD644A136852
:102E600043F004031360ECE7236813F0020F06D06D
:102E7000604A936823F0F003A068034393600E4612
:102E8000236813F0010F6CD06368022B27D0032B4B
:102E90002CD0012B31D0574A126812F4007F00F079
:102EA000A48054498A6822F0030213438B60FFF721
:102EB0007DFC05466368022B26D0032B33D0012B03
:102EC00040D04C4B9B6813F00C0F4AD0FFF76EFCC0
:102ED000401B41F288339842F3D9032070BD454A24
:102EE000126812F4003FDCD1012070BD414A126823
:102EF00012F0007FD5D1012070BD3E4A126812F059
:102F0000020FCED1012070BD3A4B9B6803F00C0339
:102F1000082B26D0FFF74AFC401B41F28833984229
:102F2000F2D9032070BD334B9B6803F00C030C2BCC
:102F300017D0FFF73BFC401B41F288339842F2D98F
:102F4000032070BD2B4B9B6803F00C03042B08D0AF
:102F5000FFF72CFC401B41F288339842F2D9032042
:102F600070BD234B1B6803F001039E4214D2012E57
:102F70000CD01F4A136823F0010333431360136816
:102F800003F001039E4207D0012070BD184A136868
:102F900043F004031360ECE7236813F0040F06D03A
:102FA000144A936823F4E063E1680B439360236859
:102FB00013F0080F07D00F4A936823F46053216978
:102FC00043EAC1039360FFF7DDFE0A4B9B68C3F33E
:102FD0000313094AD35CD840084B1860084B1868A3
:102FE000FDF7DCFB70BD01207047012070BD00BF04
:102FF000003C024000380240D46400087400002005
:1030000070000020014B1868704700BF740000205A
:1030100008B5FFF7F7FF044B9B68C3F30223034A8D
:10302000D35CD84008BD00BF00380240E46400080B
:103030000F2303600B4B9A6802F0030242609A6808
:1030400002F0F00282609A6802F4E062C2609B685B
:10305000DB0803F4E0630361034B1B6803F0010327
:103060000B60704700380240003C0240F0B583B06E
:10307000002360E085684FEA430E032707FA0EF746
:1030800025EA0705CE6806FA0EF6354385604568E1
:1030900025EA04044D68C5F300159D402C434460A7
:1030A00057E0DD08083550F8254003F00706B60064
:1030B0000F27B74024EA07040F6907FA06F63443DE
:1030C00040F8254059E0062600E0002606FA0EF6F4
:1030D00035430234524E46F82450524C2568D443AE
:1030E00005EA04064F6817F4803F01D042EA05065E
:1030F0004C4D2E606D6804EA05064F6817F4003FDA
:1031000001D042EA0506474D6E60AD6804EA050647
:103110004F6817F4801F01D042EA0506414DAE60AA
:10312000ED682C404E6816F4001F01D042EA0504F9
:103130003C4AD46001330A6832FA03F46DD00124AA
:103140009C402240F6D04D6805F00305013D012D5D
:1031500090D94C6804F00304032C09D0C4685F00C4
:103160000326BE4024EA06048D68BD402C43C4609B
:103170004C6804F00304022C93D004685F0003261B
:10318000BE4024EA06044D6805F00305BD402C430B
:1031900004604C6814F4403FCCD0234C256A45F0C1
:1031A00001052562246A04F001040194019C9C0835
:1031B000A61C1B4D55F8265003F003064FEA860E59
:1031C0000F2606FA0EF625EA0605184FB8423FF418
:1031D0007CAF174EB04216D006F58066B04214D0D0
:1031E00006F58066B04212D006F58066B04210D077
:1031F00006F58066B0420ED006F58066B0423FF418
:1032000062AF072662E7012660E702265EE7032633
:103210005CE704265AE7052658E703B0F0BD00BF77
:10322000000001400004014000380240000002405C
:103230000004024012B9090481617047816170473E
:10324000074AD36823F4E0631B041B0C000200F45C
:10325000E060184340F0BF6040F40030D060704739
:1032600000ED00E030B4164BDB68C3F30223C3F17A
:103270000704042C28BF04241D1D062D17D9033B69
:10328000012505FA04F4013C2140994005FA03F3B5
:10329000013B1340194300280BDB0901C9B200F1BF
:1032A000604000F5614080F8001330BC7047002397
:1032B000E6E700F00F000901C9B2024B1954F4E728
:1032C00000ED00E014ED00E0002808DB420900F00A
:1032D0001F00012303FA00F0014B43F8220070475E
:1032E00000E100E000285AD010B50446436A33B923
:1032F0004368B3F5827F05D00023C36102E0002359
:10330000036143610023A36294F85130002B40D045
:10331000022384F851302268136823F040031360BD
:103320002268636803F48273A16801F404410B43CB
:10333000E16801F400610B43216901F002010B43D4
:10334000616901F001010B43A16901F400710B43B4
:10335000E16901F038010B43216A01F080010B4360
:10336000A16A01F400510B4313602168638B03F0E1
:103370000403626A02F0100213434B602268D369AF
:1033800023F40063D36100206065012384F8513089
:1033900010BD84F850302046FDF7CCF9B8E7012085
:1033A000704700000368B0F1804F0ED01E4A904273
:1033B0000BD002F58062904207D002F58062904205
:1033C00003D002F57C42904203D123F070034A6897
:1033D0001343B0F1804F16D0134A904213D002F538
:1033E000806290420FD002F5806290420BD002F5CD
:1033F0007C42904207D002F58062904203D002F5F1
:103400008062904203D123F44073CA68134323F0CF
:1034100080030A69134303608B68C3620B6883628D
:1034200001234361704700BF000400407047F8B1BA
:1034300010B5044690F83930ABB1022384F8393026
:10344000211D2068FFF7AEFF012384F83E3084F889
:103450003A3084F83B3084F83C3084F83D3084F8CE
:103460003930002010BD80F83830FFF7DFFFE4E787
:103470000120704790F83930DBB2012B01D00120D8
:103480007047022380F839300268D36843F00103A3
:10349000D3600368B3F1804F10D00F4A93420DD030
:1034A00002F58062934209D002F58032934205D042
:1034B0001A6842F001021A60002070479A6802F010
:1034C0000702062A05D01A6842F001021A6000209D
:1034D00070470020704700BF0004004070477047ED
:1034E0007047704710B5044603681A6912F0020F5E
:1034F00011D0DA6812F0020F0DD06FF002021A61DB
:103500000123037603689B6913F0030F5ED0FFF776
:10351000E6FF0023237623681A6912F0040F12D005
:10352000DA6812F0040F0ED06FF004021A61022361
:10353000237623689B6913F4407F4DD02046FFF724
:10354000CEFF0023237623681A6912F0080F12D0E9
:10355000DA6812F0080F0ED06FF008021A61042327
:1035600023762368DB6913F0030F3CD02046FFF776
:10357000B6FF0023237623681A6912F0100F12D0C9
:10358000DA6812F0100F0ED06FF010021A610823E3
:1035900023762368DB6913F4407F2BD02046FFF7A6
:1035A0009EFF0023237623681A6912F0010F03D0CF
:1035B000DA6812F0010F24D123681A6912F0400F63
:1035C00003D0DA6812F0400F22D110BDFFF786FF5A
:1035D0002046FFF785FF9CE72046FFF77FFF204648
:1035E000FFF77EFFADE72046FFF778FF2046FFF7A5
:1035F00077FFBEE72046FFF771FF2046FFF770FF19
:10360000CFE76FF001021A612046FCF7CCFFD3E749
:103610006FF040021A612046FFF763FFD5E770475D
:1036200000F1080343604FF0FF328260C360036122
:1036300000230360704700230361704743684B60B9
:103640009A688A609A6851609960086103680133DA
:103650000360704730B40D68B5F1FF3F02D000F150
:10366000080202E0026904E01A4653681C68A54299
:10367000FAD253684B6099608A60516008610368B0
:103680000133036030BC7047036942688168916010
:103690008268416851605A68904206D000220261F7
:1036A0001A68013A1A601868704782685A60F5E72C
:1036B00010B5044601F0D6FCA26BE36B9A4204D02D
:1036C000002401F0F1FC204610BD0124F9E710B5FB
:1036D000044601F0C7FCA36B23B1002401F0E4FC15
:1036E000204610BD0124F9E770B504461646856BE7
:1036F000026C4AB9036853BB406800F0E3FF002343
:1037000063600135A56370BD6EB9806802F052FE3A
:10371000226CA3681344A3606268934219D32368A0
:10372000A3600020EDE7C06802F044FE236C5B421A
:10373000E2681A44E26021688A4202D26268134455
:10374000E360022E07D145B1013D0020D9E70020FA
:10375000D7E70020D5E70020D3E70020D1E7026CAF
:1037600072B110B50346C4681444C4604068844212
:1037700001D31868D8600846D96802F01BFE10BD56
:10378000704738B5054601F06DFC95F8454064B2C8
:1037900001E0013C64B2002C0ADD6B6A43B105F123
:1037A000240000F0E7FE0028F3D000F075FFF0E7FA
:1037B000FF2385F8453001F077FC01F053FC95F8C4
:1037C000444064B201E0013C64B2002C0ADD2B6984
:1037D00043B105F1100000F0CDFE0028F3D000F059
:1037E0005BFFF0E7FF2385F8443001F05DFC38BD56
:1037F00038B530B304460D4601F034FC2168E26B65
:10380000236C03FB021060600020A063A160013AFA
:1038100002FB0313E360FF2384F8443084F845304F
:10382000C5B92369F3B104F1100000F0A3FEC8B1DB
:103830004FF080520D4B1A60BFF34F8FBFF36F8F65
:1038400010E04FF0500383F31188BFF36F8FBFF385
:103850004F8FFEE704F11000FFF7E2FE04F12400B1
:10386000FFF7DEFE01F020FC012038BD04ED00E092
:1038700038B51D46049C0B4649B12260E0632364C1
:1038800001212046FFF7B4FF84F84C5038BD246076
:10389000F4E740B94FF0500383F31188BFF36F8F03
:1038A000BFF34F8FFEE710B584B0044663B1A2B1F9
:1038B000A9B10120A8B94FF0500383F31188BFF3D9
:1038C0006F8FBFF34F8FFEE74FF0500383F31188E4
:1038D000BFF36F8FBFF34F8FFEE70120EAE70020B1
:1038E000E8E70AB901B1002040B94FF0500383F373
:1038F0001188BFF36F8FBFF34F8FFEE75020039007
:103900000398502808D04FF0500383F31188BFF379
:103910006F8FBFF34F8FFEE720461C46012384F8CC
:10392000463000949DF81830FFF7A2FF204604B0FF
:1039300010BD0000F0B585B0019260B1044699B1A8
:103940000125BDB94FF0500383F31188BFF36F8F8A
:10395000BFF34F8FFEE74FF0500383F31188BFF39F
:103960006F8FBFF34F8FFEE7026C0AB90125E8E7BE
:103970000025E6E7022B09D06DB94FF0500383F321
:103980001188BFF36F8FBFF34F8FFEE7E26B012A01
:10399000F2D00025F0E71E460F4600F083FE10B976
:1039A000019B03B1002545B94FF0500383F3118803
:1039B000BFF36F8FBFF34F8FFEE700252CE0324639
:1039C00039462046FFF790FE636A8BB104F124006C
:1039D00000F0D0FD38B14FF08052374B1A60BFF382
:1039E0004F8FBFF36F8F01F05FFB012005B0F0BD7B
:1039F0000028F8D04FF080522F4B1A60BFF34F8F42
:103A0000BFF36F8FEFE701F04FFB0020EEE720469A
:103A1000FFF7B7FE00F088FC01F024FBA26BE36B1C
:103A20009A42CCD3022ECAD0019B002BEBD01DB9F9
:103A300002A800F0E5FD012501F036FB00F0D6FB01
:103A400001F010FB94F844305BB2B3F1FF3F02D1B8
:103A5000002384F8443094F845305BB2B3F1FF3F63
:103A600002D1002384F8453001F01EFB01A902A811
:103A700000F0D2FDC8B92046FFF71AFE0028C6D0D4
:103A8000019904F1100000F041FD2046FFF779FE96
:103A900000F04AFC0028BFD14FF08052064B1A605C
:103AA000BFF34F8FBFF36F8FB6E72046FFF769FE76
:103AB00000F03AFC002099E704ED00E02DE9F8431E
:103AC00060B1044699B10120B8B94FF0500383F3B7
:103AD0001188BFF36F8FBFF34F8FFEE74FF0500396
:103AE00083F31188BFF36F8FBFF34F8FFEE7006C36
:103AF00008B90120E8E70020E6E7022B09D068B901
:103B00004FF0500383F31188BFF36F8FBFF34F8FD4
:103B1000FEE7E56B012DF2D00020F0E71F4690464E
:103B2000894601F08DFBEFF311864FF0500383F3CC
:103B30001188BFF36F8FBFF34F8FA26BE36B9A4275
:103B400001D3022F21D194F845506DB23A4649462F
:103B50002046FFF7C9FDB5F1FF3F10D1636AB3B14D
:103B600004F1240000F006FD98B1B8F1000F12D066
:103B70000120C8F8000086F31188BDE8F8836B1CAB
:103B80005BB284F845300120F5E70020F3E701201F
:103B9000F1E70120EFE70120EDE70000F0B585B087
:103BA000019260B1044699B10125BDB94FF05003AF
:103BB00083F31188BFF36F8FBFF34F8FFEE74FF092
:103BC000500383F31188BFF36F8FBFF34F8FFEE76E
:103BD000036C0BB90125E8E70025E6E70E4600F087
:103BE00061FD10B9019B03B1002545B94FF05003A9
:103BF00083F31188BFF36F8FBFF34F8FFEE700276A
:103C00002FE031462046FFF7AAFD013DA563236959
:103C100063B104F1100000F0ADFC38B14FF08052F8
:103C2000344B1A60BFF34F8FBFF36F8F01F03CFA34
:103C3000012005B0F0BD01F037FA0020F9E702A835
:103C400000F0DEFC012716E0002384F844301EE07B
:103C5000002384F8453020E02046FFF792FD00F075
:103C600063FB01F0FFF9A56B002DCAD1019B002B6E
:103C7000E1D0002FE3D001F017FA00F0B7FA01F01D
:103C8000F1F994F844305BB2B3F1FF3FDCD094F823
:103C900045305BB2B3F1FF3FDAD001F005FA01A97C
:103CA00002A800F0B9FCC8B92046FFF710FD0028B3
:103CB000D2D0019904F1240000F028FC2046FFF73F
:103CC00060FD00F031FB0028CBD14FF08052094B52
:103CD0001A60BFF34F8FBFF36F8FC2E72046FFF725
:103CE00050FD00F021FB2046FFF7F1FC0028B8D082
:103CF00000209EE704ED00E00023072B0CD8074AC4
:103D000052F833200AB10133F7E7044A42F833107E
:103D100002EBC30358607047704700BF4C27002078
:103D200070B504460D46164601F09CF994F84430EF
:103D30005BB2B3F1FF3F0DD094F845305BB2B3F105
:103D4000FF3F0BD001F0B0F9A36B5BB12046FFF74A
:103D500018FD70BD002384F84430EDE7002384F89B
:103D60004530EFE73246294604F1240000F0E6FB37
:103D7000ECE700000A4B1B681B684BB901234BB9E9
:103D8000074B1B68DB68DB685A68064B1A60704794
:103D90000023F4E74FF0FF32024B1A60704700BF78
:103DA00020050020C80900202DE9F04781460D4676
:103DB00017469A46089EDDF824800A9C9200A521A9
:103DC000206B02F002FB236B07F18042013A03EB08
:103DD000820727F0070700230F2B07D8E95CE218BA
:103DE00082F83410EA5C0AB10133F5E7002384F865
:103DF0004330372E00D93726E662E6640025256574
:103E0000201DFFF718FC04F11800FFF714FC2461D3
:103E1000C6F13806A6616462656584F8585052465A
:103E20004946384601F0F6F82060B8F1000F01D09D
:103E3000C8F80040BDE8F08738B5002407E004EB7F
:103E4000840293000E481844FFF7EAFB0134372C34
:103E5000F5D90C4D2846FFF7E3FB0B4C2046FFF746
:103E6000DFFB0A48FFF7DCFB0948FFF7D9FB0948ED
:103E7000FFF7D6FB084B1D60084B1C6038BD00BF28
:103E800028050020A0090020B4090020D009002046
:103E9000FC090020E809002020050020240500205E
:103EA00010B5044601F0DEF8214A136801331360AF
:103EB000204B1B68002B32D01F4B1B683BB91D4B9E
:103EC0001B68DA6AE36A9A4201D81A4B1C601B4AE3
:103ED0001368013313606364E36A194A12689342FA
:103EE00001D9174A136003EB83039A00211D15487B
:103EF0001044FFF7A3FB01F0D7F80F4B1B686BB121
:103F00000C4B1B68DA6AE36A9A4207D24FF0805280
:103F10000D4B1A60BFF34F8FBFF36F8F10BD054B72
:103F20001C601368012BD2D1FFF786FFCFE700BFDB
:103F3000880900201C050020E409002098090020C1
:103F40009C0900202805002004ED00E010B504467F
:103F500090F8593063B1012B11D0022B12D04FF0E1
:103F6000500383F31188BFF36F8FBFF34F8FFEE7CA
:103F7000006B00F0E7FF204600F0E4FF10BD00F00A
:103F8000E1FF10BD10BD00000F4B1B68D3B110B591
:103F900001F068F80D4BDB68DC68201DFFF774FB4F
:103FA0000B4A1368013B1360074A1368013B136017
:103FB00001F07AF82046FFF7C9FF034B1B68002B7E
:103FC000E6D110BD704700BF8C090020FC0900201D
:103FD0008809002008B5FFF7D7FF064B1B68012BA7
:103FE000F9D94FF08052044B1A60BFF34F8FBFF3E3
:103FF0006F8FF0E72805002004ED00E070B504465F
:104000000E46174B1D68174B18680430FFF73CFB32
:10401000B4F1FF3F13D02C44124B1B685C60A542E7
:1040200016D8114B18680F4B19680431FFF712FBB3
:104030000E4B1B689C4201D20C4B1C6070BD002EC5
:10404000E9D0084B196804310948FFF7F7FA70BD49
:10405000084B1868034B19680431FFF7FBFA70BD71
:10406000100A00201C05002020050020C80900209F
:10407000E80900202405002070B586B00B9D0C9C3B
:1040800075B1B4B15C260496049E5C2E1AD04FF034
:10409000500383F31188BFF36F8FBFF34F8FFEE799
:1040A0004FF0500383F31188BFF36F8FBFF34F8F2F
:1040B000FEE74FF0500383F31188BFF36F8FBFF318
:1040C0004F8FFEE72563022584F85950002503959C
:1040D000029405AD01950A9D0095FFF765FE204607
:1040E000FFF7DEFE059806B070BD2DE9F04385B000
:1040F00006460F4615469846900000F09FFE10B306
:1041000081465C2000F09AFE0446C0B1C0F83090B1
:10411000DCB1002384F85930039302940D9B019382
:104120000C9B009343462A4639463046FFF73CFE37
:104130002046FFF7B5FE012005B0BDE8F0834846F4
:1041400000F000FFE4E70024E2E74FF0FF30F3E780
:1041500010B588B000240594069407AA06A905A8FE
:1041600000F0F8FD059B0293069B01930094234603
:10417000079A19491948FFF77FFF48B10120012824
:1041800008D0012809D0B0F1FF3F1BD008B010BD06
:104190000020F4E700F04AFBF3E74FF0500383F30D
:1041A0001188BFF36F8FBFF34F8F4FF0FF320C4B6F
:1041B0001A6001220B4B1A6000220B4B1A6000F0B0
:1041C000E3FFE3E74FF0500383F31188BFF36F8FF2
:1041D000BFF34F8FFEE700BFF8640008D53F00082B
:1041E000C8090020E4090020100A0020024A1368D0
:1041F00001331360704700BF94090020014B186819
:10420000704700BF100A0020F8B53C4B1B68002B1C
:1042100068D13B4B1D6801351D60C5B9394B1B6822
:104220001B6843B14FF0500383F31188BFF36F8FC6
:10423000BFF34F8FFEE7334A1168334B18681060A5
:104240001960324A136801331360FFF793FD304B56
:104250001B689D423AD200242E4B1B68DB6A03EB9D
:1042600083039A002C4B9B58012B40D901243EE03C
:104270000124244B1B681B6853B3002353BB214B01
:104280001B68DB68DE6873689D4228D3371D38469B
:10429000FFF7FAF9B36A1BB106F11800FFF7F4F95A
:1042A000F36A1E4A1268934201D91C4A136003EB59
:1042B00083039A00394618481044FFF7BFF9F26AA1
:1042C000144B1B68DB6A9A42D2D2D2E70024D0E7B3
:1042D0000123D3E74FF0FF320D4B1A60BCE70C4AC5
:1042E0001360B9E70E4A13680133136000240D4BC5
:1042F0001B6803B101242046F8BD00BF94090020CB
:10430000100A00202005002024050020CC090020F0
:10431000C80900201C050020280500209C09002059
:1043200090090020140A002038B5354B1B6843B9AA
:104330004FF0500383F31188BFF36F8FBFF34F8F9C
:10434000FEE700F08FFE2E4B1A68013A1A601B68D8
:10435000002B50D12B4B1B6823B9002400F0A4FE86
:10436000204638BD0024284B1B681BB3264BDB6856
:10437000DC6804F11800FFF787F9251D2846FFF7D0
:1043800083F9E36A214A1268934201D91F4A1360F4
:1043900003EB83039A0029461D481044FFF74EF9AA
:1043A000E26A1C4B1B68DB6A9A42DCD301221A4B7F
:1043B0001A60D8E70CB1FFF7DDFC184B1C6874B924
:1043C000154B1B68CBB14FF08052154B1A60BFF3F1
:1043D0004F8FBFF36F8F0124C0E7013C07D0FFF779
:1043E00013FF0028F9D001220B4B1A60F5E70022D9
:1043F0000A4B1A60E4E70024B0E70024AEE700BFF0
:104400009409002088090020D00900209C09002080
:10441000280500201C050020140A00209009002017
:1044200004ED00E010B5A8B10446104B1B6843B181
:104430004FF0500383F31188BFF36F8FBFF34F8F9B
:10444000FEE7FFF7D3FE00212046FFF7D7FDFFF779
:104450006BFF00E0002038B94FF08052044B1A6027
:10446000BFF34F8FBFF36F8F10BD00BF94090020C3
:1044700004ED00E0204B1B686BB900221F4B1A6053
:104480001F4B1B6803EB83018A001E498A587AB9C7
:104490002BB1013BF6E70122184B1A6070474FF031
:1044A000500383F31188BFF36F8FBFF34F8FFEE785
:1044B00010B408469A00D418A10001444C686468FE
:1044C0004C601A4491000831084484420CD003EB3C
:1044D000830291000B4A0A445268D1680A4A11606B
:1044E000074A136010BC7047606803EB83029100B9
:1044F000044A0A445060EAE794090020140A0020A4
:104500009C090020280500201C05002040B94FF020
:10451000500383F31188BFF36F8FBFF34F8FFEE714
:1045200010B50C46044B19681831FFF793F80121B8
:104530002046FFF763FD10BD1C05002038B570B1A3
:104540000C4615460A4A11681831FFF777F80DB185
:104550004FF0FF3429462046FFF750FD38BD4FF09D
:10456000500383F31188BFF36F8FBFF34F8FFEE7C4
:104570001C05002038B5C368DC6824B304F11805B5
:104580002846FFF781F8184B1B682BBB251D2846D2
:10459000FFF77AF8E36A154A1268934201D9134A81
:1045A000136003EB83039A00294611481044FFF778
:1045B00045F8E26A0F4B1B68DB6A9A4211D9012069
:1045C0000D4B186038BD4FF0500383F31188BFF3D3
:1045D0006F8FBFF34F8FFEE729460848FFF72EF88D
:1045E000E7E7002038BD00BF940900209C090020A7
:1045F000280500201C050020140A0020D0090020F6
:10460000034B1B680360034B1B684360704700BF8C
:10461000CC090020100A0020F8B5E0B1054619B316
:104620000C4600F01FFD1A4B18686968421A23688F
:10463000B3F1FF3F28D02F68164E3668B74201D03D
:10464000884223D29A4218D300232360012400F029
:104650002BFD2046F8BD4FF0500383F31188BFF3C4
:104660006F8FBFF34F8FFEE74FF0500383F3118836
:10467000BFF36F8FBFF34F8FFEE79B1A236028466F
:10468000FFF7BEFF0024E2E70024E0E70124DEE7B5
:10469000100A0020CC0900200122014B1A6070474B
:1046A000140A0020054B1B6823B1054B1B681BB97E
:1046B000022070470120704700207047E409002065
:1046C00094090020002839D038B504461E4A1268E3
:1046D000904208D04FF0500383F31188BFF36F8FDF
:1046E000BFF34F8FFEE7026D42B94FF0500383F3E3
:1046F0001188BFF36F8FBFF34F8FFEE7013A02655A
:10470000C06AE16C88421BD0E2B9251D2846FEF73D
:10471000BBFFE36CE362C3F13802A2610B4A12688B
:10472000934201D9094A136003EB83039A00294697
:1047300007481044FEF782FF012038BD0020704773
:10474000002038BD002038BD1C0500209C09002039
:1047500028050020064B1A681368B3FA83F35B0937
:10476000036013B9D368186870470020704700BF12
:10477000180A002008B54160006191420CD8D21A95
:1047800083699A4201D3012008BD011D094B1868B5
:10479000FEF760FF002008BD9A4201D2994206D27E
:1047A000011D054B1868FEF755FF002008BD0120CC
:1047B00008BD00BF1C0A0020180A002030B583B0D5
:1047C00000F050FC114B1B681BB100F06DFC03B0F6
:1047D00030BD0F4D2846FEF723FF0E4C2046FEF756
:1047E0001FFF0D4B1D600D4B1C60002300930C4BF5
:1047F0000C4A10210A20FFF74CF8044B18600028DF
:10480000E3D00949FFF778FADFE700BF3C0B00204F
:10481000C00A0020D40A0020180A00201C0A002028
:10482000EC0A0020200A00200065000810B588B0BE
:10483000FFF7C4FF154B1B681BB3002405940694B7
:1048400007AA06A905A800F091FA059B0293069B0A
:104850000193022300932346079A0D490D48FFF761
:104860000BFC0D4B186050B1012060B94FF05003A4
:1048700083F31188BFF36F8FBFF34F8FFEE720469E
:10488000F3E70020F1E708B010BD00BF3C0B0020AB
:10489000086500087D4B0008400B0020C0B130B512
:1048A00085B015460446174A106840B31A46009171
:1048B0000195029405291CDCFFF7F4FE022810D0B4
:1048C00000231A4669460F480068FFF733F814E0E2
:1048D0004FF0500383F31188BFF36F8FBFF34F8FF7
:1048E000FEE70023089A694606480068FFF722F8A9
:1048F00003E000236946FFF7E1F805B030BD002072
:10490000FBE700BF3C0B002070B582B01A4B1B6860
:104910001A6852B3DB681E68DC68251D2846FEF75E
:10492000B3FE636A20469847E369012BEED1A36981
:1049300033449E4207D26360246129460E4B1868B7
:10494000FEF788FEE2E7002100910B463246204642
:10495000FFF7A4FF0028D9D14FF0500383F311884B
:10496000BFF36F8FBFF34F8FFEE7044A1068024911
:104970000860136002B070BD180A00201C0A0020F5
:1049800038B50546FFF73AFC0446074B1B689842CA
:1049900005D300232B60044B1C60204638BDFFF775
:1049A000B3FF01232B60F6E7E80A002070B582B060
:1049B00005460E46144B1B68DB68DC68201DFEF7BD
:1049C00063FEE369012B04D0636A2046984702B076
:1049D00070BDA1692B46324629442046FFF7CAFE26
:1049E0000028F1D0002100910B462A462046FFF70F
:1049F00055FF0028E8D14FF0500383F31188BFF32F
:104A00006F8FBFF34F8FFEE7180A002070B582B09A
:104A100006460C46FFF7EAFB01A8FFF7B1FF019B32
:104A200023BB05460CB9B04219D22CB1114B1B68FF
:104A30001C68B4FA84F464092246711B0E4B186892
:104A4000FFF76EF9FFF770FC38B94FF080520B4B4F
:104A50001A60BFF34F8FBFF36F8F02B070BDFFF7C7
:104A600063FC29463046FFF7A1FFF6E7FFF75CFC41
:104A7000F3E700BF1C0A00203C0B002004ED00E01F
:104A800030B589B002E0049B002B0FDA002204A9A4
:104A9000394B1868FFF782F800286AD0049B002B76
:104AA000F1DA07990698059B9847ECE7069C63693D
:104AB00013B1201DFEF7E8FD03A8FFF761FF049B7B
:104AC000092BE3D801A252F823F000BFF54A0008F1
:104AD000F54A0008F54A00088D4A00083D4B0008D9
:104AE000634B0008F54A0008F54A00088D4A0008A3
:104AF0003D4B00080599A5690B460246294420460E
:104B0000FFF738FE0028C1D0636A20469847E36962
:104B1000012BBBD1A269002100910B4605980244EC
:104B20002046FFF7BBFE0028B0D14FF0500383F3BF
:104B30001188BFF36F8FBFF34F8FFEE70599A16117
:104B400031B10346024601442046FFF713FE9DE7BC
:104B50004FF0500383F31188BFF36F8FBFF34F8F74
:104B6000FEE794F82C30002B90D1204600F0EAF9B3
:104B70008CE709B030BD00BF3C0B002000B583B00E
:104B800001A8FFF7E7FD0199FFF740FFFFF778FF66
:104B9000F6E70000EFF305839BB9EFF310839BB9B1
:104BA0000C4B1B68022B05D08BB90122094B1A60F4
:104BB00000207047EFF31182002AF5D06FF0050056
:104BC00070476FF0050070476FF0050070474FF0B9
:104BD000FF307047A00D002008B5EFF30583B3B98F
:104BE000EFF31083B3B90E4B1B68022B08D0012BD7
:104BF00013D102220A4B1A60FFF7AAFA002008BD5F
:104C0000EFF31182002AF2D06FF0050008BD6FF0BB
:104C1000050008BD6FF0050008BD4FF0FF3008BD6E
:104C2000A00D0020F0B587B000240494EFF30584B4
:104C300054BBEFF310833BBB344B1B68022B26D0D5
:104C400010B300238DF81730002A32D016681EB337
:104C5000946904B91824631E372B52D8536813F093
:104C6000010F50D15369D3B14FEA930E95682DB11E
:104C7000D7685B2F02D9176907B10BBB95B14FF00D
:104C8000FF35012D23D075B3049807B0F0BDEFF3C5
:104C90001183002BF8D1D3E70DF11706D8E74FF0B9
:104CA000800EE3E7D3686BB9136973B14FF0FF353A
:104CB000E7E7002518244FF0800E0DF11706E0E716
:104CC0000125DEE74FF0FF35DBE70025D9E7136963
:104CD00092680292019300940B4672463146FFF7A8
:104CE000CBF90490D0E704AA019200940B461FFA76
:104CF0008EF23146FFF7F9F90128C5D0002304935D
:104D0000C2E70020C1E70020BFE700BFA00D0020E0
:104D100008B5EFF30583A3B9EFF31083A3B90C4BE8
:104D20001B68022B02D040B9002008BDEFF31183AD
:104D3000002BF8D06FF0050008BDFFF773FB0020D3
:104D400008BD6FF0050008BD6FF0050008BD00BF8D
:104D5000A00D0020034B0360034B0B608023136006
:104D6000704700BF440D0020440B0020034B03603C
:104D7000034B0B604FF4807313607047A411002045
:104D8000A40D0020124A12F0070F1ED0D11D21F0F1
:104D90000701C1F5406313440A460E480260002132
:104DA00041601344083B23F007030B48036059603C
:104DB0001960991A51601360084B1960084B19600B
:104DC0004FF00042074B1A6070474FF44063E4E72E
:104DD00004120020101E0020001200200C1E0020D3
:104DE000081E0020041E002010B4124B1A688242D4
:104DF0001AD359685C18A04203D140680144596035
:104E0000184641684418A24212D10B4C2468A242B1
:104E10000CD05268114441601A68126802609842CE
:104E200000D0186010BC70471346DFE70460F6E757
:104E30000260F4E7101E00200012002070B5044646
:104E4000FFF7D4F93A4B1B68BBB13A4B1B681C42C5
:104E500063D1ACB1083414F0070F11D024F007046B
:104E6000083404F007035BB14FF0500383F311885B
:104E7000BFF36F8FBFF34F8FFEE7FFF783FFE4E7CA
:104E8000002C4CD02C4B1B689C424AD82B4B1D68E5
:104E900001E02B4615466A68944202D92A68002A26
:104EA000F7D1234A126895423DD01E6808362A6819
:104EB0001A606B681B1B102B10D9281910F0070FF4
:104EC00008D04FF0500383F31188BFF36F8FBFF307
:104ED0004F8FFEE743606C60FFF786FF6A681649F4
:104EE0000B689B1A0B60164909688B4201D2144962
:104EF0000B60104B1B6813436B6000232B60FFF7A4
:104F000013FA16F0070F10D04FF0500383F31188F7
:104F1000BFF36F8FBFF34F8FFEE70026EFE700264A
:104F2000EDE70026EBE70026E9E7304670BD00BF5D
:104F300000120020041E0020081E0020101E002069
:104F40000C1E002080B338B50446A0F1080550F8C7
:104F5000042C164909680A4208D14FF0500383F324
:104F60001188BFF36F8FBFF34F8FFEE750F8080C27
:104F700040B14FF0500383F31188BFF36F8FBFF33D
:104F80004F8FFEE722EA010244F8042CFFF72EF9C6
:104F900054F8041C064A13680B4413602846FFF7B4
:104FA00023FFFFF7C1F938BD704700BF041E002082
:104FB000081E002082B0002301930D4B1B68B3F143
:104FC000FF3F08D04FF0500383F31188BFF36F8F7A
:104FD000BFF34F8FFEE74FF0500383F31188BFF309
:104FE0006F8FBFF34F8F019B002BFCD002B0704737
:104FF0007800002006480068006880F3088862B6E0
:1050000061B6BFF34F8FBFF36F8F00DF00BF0000AB
:1050100008ED00E04FF0807340F8043C21F00101FE
:1050200040F8081C034B40F80C3C40F8202C40385A
:10503000704700BFB54F00080000000000000000EE
:10504000074B19680868B0E8F00F80F30988BFF3D0
:105050006F8F4FF0000080F311884EF00D0E7047F7
:105060001C0500204FF0500383F31188BFF36F8FAE
:10507000BFF34F8F0A4A136801331360012B0DD120
:10508000084B1B6813F0FF0F08D04FF0500383F359
:105090001188BFF36F8FBFF34F8FFEE7704700BFDC
:1050A0007800002004ED00E0094B1B6843B94FF085
:1050B000500383F31188BFF36F8FBFF34F8FFEE769
:1050C000013B034A13600BB983F31188704700BF9B
:1050D0007800002000000000000000000000000038
:1050E000EFF30980BFF36F8F0D4B1A6820E9F00FC3
:1050F00010602DE908404FF0500080F31188FFF751
:10510000B9F94FF0000080F31188BDE80840196834
:105110000868B0E8F00F80F30988BFF36F8F70471D
:105120001C05002008B54FF0500383F31188BFF32E
:105130006F8FBFF34F8FFFF767F818B14FF08052B2
:10514000024B1A60002383F3118808BD04ED00E0D0
:10515000084A0023136008490B60084B1B68084984
:10516000A1FB03139B09013B06490B600723136056
:10517000704700BF10E000E018E000E0740000207D
:10518000D34D621014E000E010B582B0274B1A78BE
:10519000D2B20192FF221A701B78DBB28DF8033075
:1051A0009DF8033003F05003214A13700722214B6E
:1051B0001A6009E01F4A1368013B13609DF8033031
:1051C0005B00DBB28DF803309DF8033013F0800FE5
:1051D000F0D1184B1B68032B08D04FF0500383F31A
:1051E0001188BFF36F8FBFF34F8FFEE71B0203F4ED
:1051F000E063104A1360019BDBB20C4A13700E4B44
:105200001A6842F470021A601A6842F070421A601A
:10521000FFF79EFF0024094B1C60FFF7EBFEFFF732
:1052200029F9FFF7C7FE204602B010BD00E400E0F8
:10523000181E00201C1E002020ED00E07800002039
:10524000EFF305830F2B0FD9104A9B5CDBB2104A9A
:105250001278934208D24FF0500383F31188BFF3C2
:105260006F8FBFF34F8FFEE70A4B1B6803F4E063B9
:10527000094A1268934208D94FF0500383F311880A
:10528000BFF36F8FBFF34F8FFEE77047F0E300E08F
:10529000181E00200CED00E01C1E002098B108B57F
:1052A0000346D0F88C0210B10020C3F88C0209B17B
:1052B000C3F888121846012380F874320270FBF795
:1052C000F5FB002008BD0220704719B1C0F88C1210
:1052D000002070470220704708B5FBF713FC002040
:1052E00008BD10B50446D0F88C325B680179984748
:1052F0002046FBF70FFC002010BD08B5D0F88C321B
:1053000023B11B68984718B1022008BD022008BDD0
:10531000002008BD08B5D0F88C325B6898470020A3
:1053200008BD38B5044600F52075284600F036F96A
:105330000123C4F86C32B4F88632C4F8703294F8A1
:10534000801201F01F03012B0ED03BB1022B10D0B5
:1053500001F080012046FBF7F0FB03E029462046E0
:1053600000F0A9FA002038BD2946204600F0D7FAFF
:10537000F8E72946204600F002FBF3E738B504467B
:10538000A9BB1046D4F86C32032B03D0052B25D0D3
:10539000002038BDD4F84C31D4F8502193420DD9B7
:1053A0009B1AC4F84C319A4206D99AB2014620465B
:1053B00000F02AFC002038BD92B2F7E7D4F88C3216
:1053C0001B691BB194F87422032A04D0204600F014
:1053D00023FC002038BD20469847F7E70025C4F895
:1053E0006C5229462046FBF7A8FB284638BD0A46E2
:1053F000D0F88C329B694BB190F87412032901D01C
:10540000022038BD11469847002038BD022038BD23
:1054100010B50446002954D11046D4F86C32022B42
:105420000CD0042B00D01BB980212046FBF785FB54
:1054300094F87832012B40D0002010BD236A626AB4
:1054400093421BD8E169B1FBF2F302FB13132BB9B2
:105450008A4203D8D4F8703299421DD3D4F88C32E2
:10546000DB681BB194F87422032A23D080212046E4
:10547000FBF763FB204600F0DAFBD9E79A1A2262B9
:1054800092B20146204600F0A8FB00231A461946B6
:105490002046FBF789FBCBE700221146204600F0AF
:1054A0009CFB0021C4F870120B460A462046FBF70D
:1054B0007BFBBDE720469847D8E7002084F87802B8
:1054C00010BD0A46D0F88C325B694BB190F874126B
:1054D000032901D0022010BD11469847002010BDBD
:1054E000022010BD70B50446402300221146FBF790
:1054F00019FB0125C4F844514026C4F850613346D5
:10550000002280212046FBF70DFBA561666284F82E
:1055100074520023C4F86C326360C4F87C32D4F84F
:1055200090322BB1D4F88C325B680021204698472A
:10553000002070BD01740020704790F8743280F82C
:105540007532042380F874320020704790F8753269
:1055500080F874320020704708B590F87432032B3D
:1055600001D0002008BDD0F88C32DB69002BF8D0C8
:105570009847F6E7002302E00133DBB201300278FE
:10558000002AF9D11846704708B54B88012B00D086
:1055900008BDC0F87C3200F03FFBF9E70B780370E0
:1055A0004B7843708B78CA7803EB022343800B79E6
:1055B0004A7903EB022383808B79CA7903EB0223B8
:1055C000C380704710B504468021FBF7B6FA00216E
:1055D0002046FBF7B2FA10BD30B583B005460C4645
:1055E00049880B0A013B062B00F28780DFE803F0B5
:1055F00004162A8585697600D0F888321B680DF17B
:105600000601007C9847BDF8062012B1E388002B04
:1056100077D1E388002B7ED003B030BD037C43B943
:10562000D0F88C329B6A0DF1060098470223437034
:10563000E9E7D0F88C32DB6A0DF1060098470223C7
:105640004370E0E7C9B2052934D8DFE801F0030B65
:10565000131B232BD0F888325B680DF10601007C08
:105660009847D0E7D0F888329B680DF10601007C9E
:105670009847C8E7D0F88832DB680DF10601007C56
:105680009847C0E7D0F888321B690DF10601007C0D
:105690009847B8E7D0F888325B690DF10601007CC5
:1056A0009847B0E7D0F888329B690DF10601007C7D
:1056B0009847A8E7D0F88C329B6B0DF1060298470B
:1056C000A1E7037C33B9D0F88C325B6B0DF1060097
:1056D000984798E72146FFF775FF9DE7037C43B99C
:1056E000D0F88C321B6B0DF10600984707234370EE
:1056F00089E72146FFF766FF8EE72146FFF762FF45
:105700008AE79A4228BF1A46ADF806200146284685
:1057100000F056FA7DE7284600F07EFA7CE738B5BF
:1057200004468B88F3B9CB88E3B94B887F2B19D813
:1057300003F07F0590F87432032B0CD080F876527A
:105740002946FBF721FA204600F066FA35B102231C
:1057500084F8743238BDFFF735FF38BD012384F873
:10576000743238BD2046FFF72DFF38BD38B50446EA
:105770000D468978284B197001290ED890F874329B
:10578000022B0ED0032B21D02946FFF71BFF224B03
:1057900019782046FFF7BEFD38BD2946FFF712FFF6
:1057A00038BD81B14160032380F87432FFF7A5FD55
:1057B000022803D0204600F02FFA38BD29462046A3
:1057C000FFF700FF38BD00F027FA38BD89B1436804
:1057D00099421DD0D9B2FFF79DFD0F4B197861603A
:1057E0002046FFF78AFD02280DD0204600F014FA6B
:1057F00038BD022380F874324160FFF78BFD2046EC
:1058000000F00AFA38BD29462046FFF7DBFE38BD16
:1058100000F002FA38BD00BF201E002008B5CB887A
:10582000012B0BD190F874329BB1022B09D9032BB9
:105830000FD10122011D00F0C3F908BDFFF7C2FE20
:1058400008BD0146002341F8083F012200F0B8F9E5
:1058500008BDFFF7B7FE08BD08B590F87432013BEC
:10586000022B12D8CB88022B0CD10123C360D0F8B5
:105870007C320BB10323C360022200F10C0100F063
:105880009FF908BDFFF79EFE08BDFFF79BFE08BD10
:1058900008B590F87432013B022B09D84B88012BD4
:1058A00000D008BD0023C0F87C3200F0B5F908BD77
:1058B000FFF788FEF5E708B50B7803F06003202BAF
:1058C00005D0402B03D043B1FFF77CFE03E0D0F8B6
:1058D0008C329B689847002008BD4B78092B1BD859
:1058E000DFE803F011171A141A08051A0E0BFFF758
:1058F00073FEF0E7FFF713FFEDE7FFF737FFEAE787
:10590000FFF78CFFE7E7FFF7A7FFE4E7FFF73CFEB1
:10591000E1E7FFF7BDFFDEE7FFF754FEDBE738B551
:1059200005460C460B7803F06003202B05D0402B76
:1059300003D013B1FFF746FE0BE095F87432013B3C
:10594000022B17D82379012B05D921462846FFF7CA
:1059500039FE002038BDD5F88C329B682146284698
:105960009847E388002BF4D10028F2D1284600F0B4
:1059700053F9EEE721462846FFF724FEE9E738B55C
:1059800004468A880B7803F06003202B08D0D0B23D
:10599000402B05D05BB12046FFF714FE002038BD38
:1059A000D4F88C329B6820469847002038BD202BC5
:1059B00012D04B78012B38D0002B64D0032B40F051
:1059C000DC8094F87432022B0CD0032B1CD02046C0
:1059D000FFF7F8FD002038BDD4F88C329B682046D4
:1059E000984738BD58B1802809D001462046FBF7BA
:1059F000A4F880212046FBF7A0F8002038BD2046FF
:105A0000FFF7E0FD002038BD4B8823B918B180288E
:105A100001D0CB8823B1204600F0FEF8002038BD2D
:105A200001462046FBF789F8F5E794F87432022B1B
:105A300006D0032B16D02046FFF7C4FD002038BD4A
:105A400058B1802809D001462046FBF776F880211E
:105A50002046FBF772F8002038BD2046FFF7B2FD64
:105A6000002038BD4B88002B40F08C8010F07F0F59
:105A700004D1204600F0D0F8002038BD0146204671
:105A8000FBF763F8F5E794F87432022B06D0032B8A
:105A900029D02046FFF796FD002038BD08B18028A8
:105AA00012D112F0800F14D100F07F0000EB8000C3
:105AB000830003F5A073E11800250D600222204643
:105AC00000F07EF8284638BD2046FFF77BFD002019
:105AD00038BD00F07F0000EB8000830003F110016F
